{
   "abi": [
      {
         "type": "constructor",
         "inputs": [],
         "stateMutability": "nonpayable"
      },
      {
         "type": "function",
         "name": "authorizeUser",
         "inputs": [
            {
               "name": "customer",
               "type": "address",
               "internalType": "contract Customer"
            },
            {
               "name": "user",
               "type": "address",
               "internalType": "address"
            }
         ],
         "outputs": [],
         "stateMutability": "nonpayable"
      },
      {
         "type": "function",
         "name": "compareStrings",
         "inputs": [
            {
               "name": "a",
               "type": "string",
               "internalType": "string"
            },
            {
               "name": "b",
               "type": "string",
               "internalType": "string"
            }
         ],
         "outputs": [
            {
               "name": "",
               "type": "bool",
               "internalType": "bool"
            }
         ],
         "stateMutability": "pure"
      },
      {
         "type": "function",
         "name": "createCustomer",
         "inputs": [
            {
               "name": "parent",
               "type": "address",
               "internalType": "contract Customer"
            },
            {
               "name": "_name",
               "type": "string",
               "internalType": "string"
            }
         ],
         "outputs": [
            {
               "name": "newCustomer",
               "type": "address",
               "internalType": "contract Customer"
            }
         ],
         "stateMutability": "nonpayable"
      },
      {
         "type": "function",
         "name": "createDevice",
         "inputs": [
            {
               "name": "customer",
               "type": "address",
               "internalType": "contract Customer"
            },
            {
               "name": "sn",
               "type": "string",
               "internalType": "string"
            },
            {
               "name": "metadata",
               "type": "string",
               "internalType": "string"
            }
         ],
         "outputs": [
            {
               "name": "newDevice",
               "type": "address",
               "internalType": "contract Device"
            }
         ],
         "stateMutability": "nonpayable"
      },
      {
         "type": "function",
         "name": "createDevices",
         "inputs": [
            {
               "name": "customer",
               "type": "address",
               "internalType": "contract Customer"
            },
            {
               "name": "sns",
               "type": "string[]",
               "internalType": "string[]"
            },
            {
               "name": "metadata",
               "type": "string",
               "internalType": "string"
            }
         ],
         "outputs": [
            {
               "name": "newDevices",
               "type": "address[]",
               "internalType": "contract Device[]"
            }
         ],
         "stateMutability": "nonpayable"
      },
      {
         "type": "function",
         "name": "customers",
         "inputs": [
            {
               "name": "",
               "type": "uint256",
               "internalType": "uint256"
            }
         ],
         "outputs": [
            {
               "name": "",
               "type": "address",
               "internalType": "contract Customer"
            }
         ],
         "stateMutability": "view"
      },
      {
         "type": "function",
         "name": "devices",
         "inputs": [
            {
               "name": "",
               "type": "uint256",
               "internalType": "uint256"
            }
         ],
         "outputs": [
            {
               "name": "",
               "type": "address",
               "internalType": "contract Device"
            }
         ],
         "stateMutability": "view"
      },
      {
         "type": "function",
         "name": "getCustomers",
         "inputs": [],
         "outputs": [
            {
               "name": "",
               "type": "address[]",
               "internalType": "contract Customer[]"
            }
         ],
         "stateMutability": "view"
      },
      {
         "type": "function",
         "name": "getDeviceByIndex",
         "inputs": [
            {
               "name": "index",
               "type": "uint256",
               "internalType": "uint256"
            }
         ],
         "outputs": [
            {
               "name": "device",
               "type": "address",
               "internalType": "contract Device"
            }
         ],
         "stateMutability": "view"
      },
      {
         "type": "function",
         "name": "getDeviceBySn",
         "inputs": [
            {
               "name": "sn",
               "type": "string",
               "internalType": "string"
            }
         ],
         "outputs": [
            {
               "name": "device",
               "type": "address",
               "internalType": "contract Device"
            }
         ],
         "stateMutability": "view"
      },
      {
         "type": "function",
         "name": "getDevices",
         "inputs": [],
         "outputs": [
            {
               "name": "",
               "type": "address[]",
               "internalType": "contract Device[]"
            }
         ],
         "stateMutability": "view"
      },
      {
         "type": "function",
         "name": "getDevicesOfCustomer",
         "inputs": [
            {
               "name": "customer",
               "type": "address",
               "internalType": "contract Customer"
            }
         ],
         "outputs": [
            {
               "name": "",
               "type": "address[]",
               "internalType": "contract Device[]"
            }
         ],
         "stateMutability": "view"
      },
      {
         "type": "function",
         "name": "getDevicesUnderCustomer",
         "inputs": [
            {
               "name": "customer",
               "type": "address",
               "internalType": "contract Customer"
            }
         ],
         "outputs": [
            {
               "name": "",
               "type": "address[]",
               "internalType": "contract Device[]"
            }
         ],
         "stateMutability": "view"
      },
      {
         "type": "function",
         "name": "owner",
         "inputs": [],
         "outputs": [
            {
               "name": "",
               "type": "address",
               "internalType": "address"
            }
         ],
         "stateMutability": "view"
      },
      {
         "type": "function",
         "name": "removeUserFromCustomer",
         "inputs": [
            {
               "name": "customer",
               "type": "address",
               "internalType": "contract Customer"
            },
            {
               "name": "user",
               "type": "address",
               "internalType": "address"
            }
         ],
         "outputs": [],
         "stateMutability": "nonpayable"
      },
      {
         "type": "function",
         "name": "renounceOwnership",
         "inputs": [],
         "outputs": [],
         "stateMutability": "nonpayable"
      },
      {
         "type": "function",
         "name": "setDeviceCustomer",
         "inputs": [
            {
               "name": "customer",
               "type": "address",
               "internalType": "contract Customer"
            },
            {
               "name": "device",
               "type": "address",
               "internalType": "contract Device"
            }
         ],
         "outputs": [],
         "stateMutability": "nonpayable"
      },
      {
         "type": "function",
         "name": "setDeviceMetadataUri",
         "inputs": [
            {
               "name": "newUri",
               "type": "string",
               "internalType": "string"
            },
            {
               "name": "device",
               "type": "address",
               "internalType": "contract Device"
            }
         ],
         "outputs": [],
         "stateMutability": "nonpayable"
      },
      {
         "type": "function",
         "name": "setDeviceState",
         "inputs": [
            {
               "name": "newState",
               "type": "uint8",
               "internalType": "enum Device.DeviceState"
            },
            {
               "name": "device",
               "type": "address",
               "internalType": "contract Device"
            }
         ],
         "outputs": [],
         "stateMutability": "nonpayable"
      },
      {
         "type": "function",
         "name": "toggleDeviceVisible",
         "inputs": [
            {
               "name": "device",
               "type": "address",
               "internalType": "contract Device"
            }
         ],
         "outputs": [],
         "stateMutability": "nonpayable"
      },
      {
         "type": "function",
         "name": "transferOwnership",
         "inputs": [
            {
               "name": "newOwner",
               "type": "address",
               "internalType": "address"
            }
         ],
         "outputs": [],
         "stateMutability": "nonpayable"
      },
      {
         "type": "event",
         "name": "CustomerCreated",
         "inputs": [
            {
               "name": "customerAddress",
               "type": "address",
               "indexed": false,
               "internalType": "address"
            },
            {
               "name": "parent",
               "type": "address",
               "indexed": false,
               "internalType": "address"
            }
         ],
         "anonymous": false
      },
      {
         "type": "event",
         "name": "DeviceAssigned",
         "inputs": [
            {
               "name": "customer",
               "type": "address",
               "indexed": false,
               "internalType": "address"
            },
            {
               "name": "device",
               "type": "address",
               "indexed": false,
               "internalType": "address"
            }
         ],
         "anonymous": false
      },
      {
         "type": "event",
         "name": "DeviceCreated",
         "inputs": [
            {
               "name": "customer",
               "type": "address",
               "indexed": false,
               "internalType": "address"
            },
            {
               "name": "deviceAddress",
               "type": "address",
               "indexed": false,
               "internalType": "address"
            },
            {
               "name": "sn",
               "type": "string",
               "indexed": false,
               "internalType": "string"
            }
         ],
         "anonymous": false
      },
      {
         "type": "event",
         "name": "OwnershipTransferred",
         "inputs": [
            {
               "name": "previousOwner",
               "type": "address",
               "indexed": true,
               "internalType": "address"
            },
            {
               "name": "newOwner",
               "type": "address",
               "indexed": true,
               "internalType": "address"
            }
         ],
         "anonymous": false
      },
      {
         "type": "error",
         "name": "OwnableInvalidOwner",
         "inputs": [
            {
               "name": "owner",
               "type": "address",
               "internalType": "address"
            }
         ]
      },
      {
         "type": "error",
         "name": "OwnableUnauthorizedAccount",
         "inputs": [
            {
               "name": "account",
               "type": "address",
               "internalType": "address"
            }
         ]
      }
   ],
   "bytecode": {
      "object": "0x608060405234801562000010575f80fd5b5033806200003757604051631e4fbdf760e01b81525f600482015260240160405180910390fd5b6200004281620000f7565b505f8033604051620000549062000146565b6001600160a01b0392831681529116602082015260606040820181905260049082015263149bdbdd60e21b608082015260a001604051809103905ff080158015620000a1573d5f803e3d5ffd5b506001805480820182555f919091527fb10e2d527612073b26eecdfd717e6a320cf44b4afac2b0732d9fcbe2b7fa0cf60180546001600160a01b0319166001600160a01b03929092169190911790555062000154565b5f80546001600160a01b038381166001600160a01b0319831681178455604051919092169283917f8be0079c531659141344cd1fd0a4f28419497f9722a3daafe3b4186f6b6457e09190a35050565b610d098062003da283390190565b613c4080620001625f395ff3fe608060405234801562000010575f80fd5b50600436106200014c575f3560e01c80639b9f34c411620000c3578063d6eb463e1162000083578063d6eb463e14620002c8578063d7c80d8914620002df578063e1f653b114620002f6578063eb3599d2146200030d578063f1ba71271462000324578063f2fde38b146200032e575f80fd5b80639b9f34c41462000251578063bed34bba1462000268578063c0abda2a1462000290578063cc1ed9e314620002a7578063d611d6c814620002be575f80fd5b8063645ae3b3116200010f578063645ae3b314620001f1578063715018a614620002085780638559040514620002125780638da5cb5b14620002295780639b1fa7a8146200023a575f80fd5b806310ff8e3114620001505780632924d4ee146200018457806334436ce5146200019b57806340bbcc3e14620001b4578063474ba1a514620001da575b5f80fd5b620001676200016136600462001ab7565b62000345565b6040516001600160a01b0390911681526020015b60405180910390f35b620001676200019536600462001b2b565b6200036e565b620001b2620001ac36600462001bb0565b6200063e565b005b620001cb620001c536600462001bec565b62000766565b6040516200017b919062001c11565b620001b2620001eb36600462001c5f565b6200094b565b620001b26200020236600462001bb0565b62000a3b565b620001b262000c08565b620001b26200022336600462001bec565b62000c1f565b5f546001600160a01b031662000167565b620001676200024b36600462001c80565b62000d01565b620001676200026236600462001d8a565b62000e24565b6200027f6200027936600462001ddc565b62001014565b60405190151581526020016200017b565b62000167620002a136600462001ab7565b62001070565b620001cb620002b836600462001e38565b62001080565b620001cb62001216565b620001b2620002d936600462001ecc565b62001278565b620001cb620002f036600462001bec565b62001336565b620001676200030736600462001ab7565b62001537565b620001b26200031e36600462001bb0565b62001568565b620001cb62001660565b620001b26200033f36600462001bec565b620016c0565b6002818154811062000355575f80fd5b5f918252602090912001546001600160a01b0316905081565b5f856001600160a01b03811615801590620003ed5750806001600160a01b031663267c4ae46040518163ffffffff1660e01b8152600401602060405180830381865afa158015620003c1573d5f803e3d5ffd5b505050506040513d601f19601f82011682018060405250810190620003e7919062001f24565b15156001145b620004155760405162461bcd60e51b81526004016200040c9062001f45565b60405180910390fd5b85855f5b6002548110156200053957620004ed600282815481106200043e576200043e62001f71565b5f918252602082200154604080516303e1cafb60e61b815290516001600160a01b039092169263f872bec0926004808401938290030181865afa15801562000488573d5f803e3d5ffd5b505050506040513d5f823e601f3d908101601f19168201604052620004b1919081019062001fa9565b84848080601f0160208091040260200160405190810160405280939291908181526020018383808284375f920191909152506200101492505050565b15620005305760405162461bcd60e51b8152602060048201526011602482015270534e206d75737420626520756e6971756560781b60448201526064016200040c565b60010162000419565b508862000547338262001703565b620005665760405162461bcd60e51b81526004016200040c9062002023565b8989898989604051620005799062001a9b565b620005899594939291906200207b565b604051809103905ff080158015620005a3573d5f803e3d5ffd5b50600280546001810182555f919091527f405787fa12a823e0f2b7631cc41b3ba8828b3321ca811111fa75cd3aa3bb5ace0180546001600160a01b0319166001600160a01b0383161790556040519095507f8ae62abfaf1a8a2062b143252dc200ce0c832a887b9378af263e30910d1090969062000629908c9088908d908d90620020c2565b60405180910390a15050505095945050505050565b816001600160a01b03811615801590620006bc5750806001600160a01b031663267c4ae46040518163ffffffff1660e01b8152600401602060405180830381865afa15801562000690573d5f803e3d5ffd5b505050506040513d601f19601f82011682018060405250810190620006b6919062001f24565b15156001145b620006db5760405162461bcd60e51b81526004016200040c9062001f45565b82620006e8338262001703565b620007075760405162461bcd60e51b81526004016200040c9062002023565b60405163033e151b60e51b81526001600160a01b0384811660048301528516906367c2a360906024015b5f604051808303815f87803b15801562000749575f80fd5b505af11580156200075c573d5f803e3d5ffd5b5050505050505050565b6002546060905f906001600160401b0381111562000788576200078862001cc2565b604051908082528060200260200182016040528015620007b2578160200160208202803683370190505b5090505f805b6002548110156200089a57846001600160a01b0316620007d88262001537565b6001600160a01b0316632804b2c06040518163ffffffff1660e01b8152600401602060405180830381865afa15801562000814573d5f803e3d5ffd5b505050506040513d601f19601f820116820180604052508101906200083a9190620020fa565b6001600160a01b0316036200089157620008548162001537565b83838151811062000869576200086962001f71565b6001600160a01b0390921660209283029190910190910152816200088d816200212c565b9250505b600101620007b8565b505f816001600160401b03811115620008b757620008b762001cc2565b604051908082528060200260200182016040528015620008e1578160200160208202803683370190505b5090505f5b82811015620009425783818151811062000904576200090462001f71565b602002602001015182828151811062000921576200092162001f71565b6001600160a01b0390921660209283029190910190910152600101620008e6565b50949350505050565b806001600160a01b0316632804b2c06040518163ffffffff1660e01b8152600401602060405180830381865afa15801562000988573d5f803e3d5ffd5b505050506040513d601f19601f82011682018060405250810190620009ae9190620020fa565b620009ba338262001703565b620009d95760405162461bcd60e51b81526004016200040c9062002023565b6040516356de96db60e01b81526001600160a01b038316906356de96db9062000a0790869060040162002147565b5f604051808303815f87803b15801562000a1f575f80fd5b505af115801562000a32573d5f803e3d5ffd5b50505050505050565b806001600160a01b0316632804b2c06040518163ffffffff1660e01b8152600401602060405180830381865afa15801562000a78573d5f803e3d5ffd5b505050506040513d601f19601f8201168201806040525081019062000a9e9190620020fa565b62000aaa338262001703565b62000ac95760405162461bcd60e51b81526004016200040c9062002023565b826001600160a01b0381161580159062000b475750806001600160a01b031663267c4ae46040518163ffffffff1660e01b8152600401602060405180830381865afa15801562000b1b573d5f803e3d5ffd5b505050506040513d601f19601f8201168201806040525081019062000b41919062001f24565b15156001145b62000b665760405162461bcd60e51b81526004016200040c9062001f45565b60405163620c0c4b60e01b81526001600160a01b03858116600483015284169063620c0c4b906024015f604051808303815f87803b15801562000ba7575f80fd5b505af115801562000bba573d5f803e3d5ffd5b5050604080516001600160a01b038089168252871660208201527f6589dc94843e0a8aa870e5c8bcf2fdd91ed0e0a26442e17e4f098db6b6bc2bfe935001905060405180910390a150505050565b62000c12620018ee565b62000c1d5f6200191c565b565b806001600160a01b0316632804b2c06040518163ffffffff1660e01b8152600401602060405180830381865afa15801562000c5c573d5f803e3d5ffd5b505050506040513d601f19601f8201168201806040525081019062000c829190620020fa565b62000c8e338262001703565b62000cad5760405162461bcd60e51b81526004016200040c9062002023565b816001600160a01b0316635b344c746040518163ffffffff1660e01b81526004015f604051808303815f87803b15801562000ce6575f80fd5b505af115801562000cf9573d5f803e3d5ffd5b505050505050565b5f805b60025481101562000de15762000dbe62000d1e8262001537565b6001600160a01b031663f872bec06040518163ffffffff1660e01b81526004015f60405180830381865afa15801562000d59573d5f803e3d5ffd5b505050506040513d5f823e601f3d908101601f1916820160405262000d82919081019062001fa9565b85858080601f0160208091040260200160405190810160405280939291908181526020018383808284375f920191909152506200101492505050565b1562000dd85762000dcf8162001537565b91505062000e1e565b60010162000d04565b5060405162461bcd60e51b815260206004820152601060248201526f11195d9a58d9481b9bdd08199bdd5b9960821b60448201526064016200040c565b92915050565b5f826001600160a01b0381161580159062000ea35750806001600160a01b031663267c4ae46040518163ffffffff1660e01b8152600401602060405180830381865afa15801562000e77573d5f803e3d5ffd5b505050506040513d601f19601f8201168201806040525081019062000e9d919062001f24565b15156001145b62000ec25760405162461bcd60e51b81526004016200040c9062001f45565b8362000ecf338262001703565b62000eee5760405162461bcd60e51b81526004016200040c9062002023565b84338560405162000eff9062001aa9565b62000f0d939291906200216e565b604051809103905ff08015801562000f27573d5f803e3d5ffd5b506001805480820182555f919091527fb10e2d527612073b26eecdfd717e6a320cf44b4afac2b0732d9fcbe2b7fa0cf60180546001600160a01b0319166001600160a01b03838116918217909255604051630f774c9d60e11b81526004810191909152919450861690631eee993a906024015f604051808303815f87803b15801562000fb1575f80fd5b505af115801562000fc4573d5f803e3d5ffd5b5050604080516001600160a01b038088168252891660208201527f85f6e79cf83af1b4acc033f88391b65cf5441b4553e1fe67dda9b9784a839d5f935001905060405180910390a1505092915050565b5f81604051602001620010289190620021bc565b6040516020818303038152906040528051906020012083604051602001620010519190620021bc565b6040516020818303038152906040528051906020012014905092915050565b6001818154811062000355575f80fd5b6060856001600160a01b03811615801590620011005750806001600160a01b031663267c4ae46040518163ffffffff1660e01b8152600401602060405180830381865afa158015620010d4573d5f803e3d5ffd5b505050506040513d601f19601f82011682018060405250810190620010fa919062001f24565b15156001145b6200111f5760405162461bcd60e51b81526004016200040c9062001f45565b866200112c338262001703565b6200114b5760405162461bcd60e51b81526004016200040c9062002023565b856001600160401b0381111562001166576200116662001cc2565b60405190808252806020026020018201604052801562001190578160200160208202803683370190505b5092505f5b868110156200120a57620011d489898984818110620011b857620011b862001f71565b9050602002810190620011cc9190620021d9565b89896200036e565b848281518110620011e957620011e962001f71565b6001600160a01b039092166020928302919091019091015260010162001195565b50505095945050505050565b606060028054806020026020016040519081016040528092919081815260200182805480156200126e57602002820191905f5260205f20905b81546001600160a01b031681526001909101906020018083116200124f575b5050505050905090565b806001600160a01b0316632804b2c06040518163ffffffff1660e01b8152600401602060405180830381865afa158015620012b5573d5f803e3d5ffd5b505050506040513d601f19601f82011682018060405250810190620012db9190620020fa565b620012e7338262001703565b620013065760405162461bcd60e51b81526004016200040c9062002023565b60405163044c18c360e21b81526001600160a01b03831690631130630c906200073190879087906004016200221e565b6060816001600160a01b03811615801590620013b65750806001600160a01b031663267c4ae46040518163ffffffff1660e01b8152600401602060405180830381865afa1580156200138a573d5f803e3d5ffd5b505050506040513d601f19601f82011682018060405250810190620013b0919062001f24565b15156001145b620013d55760405162461bcd60e51b81526004016200040c9062001f45565b5f836001600160a01b0316634892e8e86040518163ffffffff1660e01b81526004015f60405180830381865afa15801562001412573d5f803e3d5ffd5b505050506040513d5f823e601f3d908101601f191682016040526200143b91908101906200223b565b519050805f036200145a57620014518462000766565b92505062001531565b60605f620014688662000766565b90506200147682826200196b565b91505f866001600160a01b0316634892e8e86040518163ffffffff1660e01b81526004015f60405180830381865afa158015620014b5573d5f803e3d5ffd5b505050506040513d5f823e601f3d908101601f19168201604052620014de91908101906200223b565b90505f5b815181101562001529576200151e84620015188484815181106200150a576200150a62001f71565b602002602001015162001336565b6200196b565b9350600101620014e2565b509194505050505b50919050565b5f600282815481106200154e576200154e62001f71565b5f918252602090912001546001600160a01b031692915050565b816001600160a01b03811615801590620015e65750806001600160a01b031663267c4ae46040518163ffffffff1660e01b8152600401602060405180830381865afa158015620015ba573d5f803e3d5ffd5b505050506040513d601f19601f82011682018060405250810190620015e0919062001f24565b15156001145b620016055760405162461bcd60e51b81526004016200040c9062001f45565b8262001612338262001703565b620016315760405162461bcd60e51b81526004016200040c9062002023565b604051633bc25ff160e21b81526001600160a01b03848116600483015285169063ef097fc49060240162000731565b606060018054806020026020016040519081016040528092919081815260200182805480156200126e57602002820191905f5260205f209081546001600160a01b031681526001909101906020018083116200124f575050505050905090565b620016ca620018ee565b6001600160a01b038116620016f557604051631e4fbdf760e01b81525f60048201526024016200040c565b62001700816200191c565b50565b5f815b5f6001600160a01b0316816001600160a01b03166360f96a8f6040518163ffffffff1660e01b8152600401602060405180830381865afa1580156200174d573d5f803e3d5ffd5b505050506040513d601f19601f82011682018060405250810190620017739190620020fa565b6001600160a01b031614620018695760405163760bf09d60e11b81526001600160a01b03858116600483015282169063ec17e13a90602401602060405180830381865afa158015620017c7573d5f803e3d5ffd5b505050506040513d601f19601f82011682018060405250810190620017ed919062001f24565b15620017fe57600191505062000e1e565b806001600160a01b03166360f96a8f6040518163ffffffff1660e01b8152600401602060405180830381865afa1580156200183b573d5f803e3d5ffd5b505050506040513d601f19601f82011682018060405250810190620018619190620020fa565b905062001706565b60405163760bf09d60e11b81526001600160a01b03858116600483015282169063ec17e13a90602401602060405180830381865afa158015620018ae573d5f803e3d5ffd5b505050506040513d601f19601f82011682018060405250810190620018d4919062001f24565b15620018e557600191505062000e1e565b505f9392505050565b5f546001600160a01b0316331462000c1d5760405163118cdaa760e01b81523360048201526024016200040c565b5f80546001600160a01b038381166001600160a01b0319831681178455604051919092169283917f8be0079c531659141344cd1fd0a4f28419497f9722a3daafe3b4186f6b6457e09190a35050565b81518151606091905f620019808284620022e8565b6001600160401b038111156200199a576200199a62001cc2565b604051908082528060200260200182016040528015620019c4578160200160208202803683370190505b5090505f5b8381101562001a2557868181518110620019e757620019e762001f71565b602002602001015182828151811062001a045762001a0462001f71565b6001600160a01b0390921660209283029190910190910152600101620019c9565b505f5b8281101562001a915785818151811062001a465762001a4662001f71565b602002602001015182828662001a5d9190620022e8565b8151811062001a705762001a7062001f71565b6001600160a01b039092166020928302919091019091015260010162001a28565b5095945050505050565b610c0380620022ff83390190565b610d098062002f0283390190565b5f6020828403121562001ac8575f80fd5b5035919050565b6001600160a01b038116811462001700575f80fd5b5f8083601f84011262001af5575f80fd5b5081356001600160401b0381111562001b0c575f80fd5b60208301915083602082850101111562001b24575f80fd5b9250929050565b5f805f805f6060868803121562001b40575f80fd5b853562001b4d8162001acf565b945060208601356001600160401b038082111562001b69575f80fd5b62001b7789838a0162001ae4565b9096509450604088013591508082111562001b90575f80fd5b5062001b9f8882890162001ae4565b969995985093965092949392505050565b5f806040838503121562001bc2575f80fd5b823562001bcf8162001acf565b9150602083013562001be18162001acf565b809150509250929050565b5f6020828403121562001bfd575f80fd5b813562001c0a8162001acf565b9392505050565b602080825282518282018190525f9190848201906040850190845b8181101562001c535783516001600160a01b03168352928401929184019160010162001c2c565b50909695505050505050565b5f806040838503121562001c71575f80fd5b82356003811062001bcf575f80fd5b5f806020838503121562001c92575f80fd5b82356001600160401b0381111562001ca8575f80fd5b62001cb68582860162001ae4565b90969095509350505050565b634e487b7160e01b5f52604160045260245ffd5b604051601f8201601f191681016001600160401b038111828210171562001d015762001d0162001cc2565b604052919050565b5f6001600160401b0382111562001d245762001d2462001cc2565b50601f01601f191660200190565b5f82601f83011262001d42575f80fd5b813562001d5962001d538262001d09565b62001cd6565b81815284602083860101111562001d6e575f80fd5b816020850160208301375f918101602001919091529392505050565b5f806040838503121562001d9c575f80fd5b823562001da98162001acf565b915060208301356001600160401b0381111562001dc4575f80fd5b62001dd28582860162001d32565b9150509250929050565b5f806040838503121562001dee575f80fd5b82356001600160401b038082111562001e05575f80fd5b62001e138683870162001d32565b9350602085013591508082111562001e29575f80fd5b5062001dd28582860162001d32565b5f805f805f6060868803121562001e4d575f80fd5b853562001e5a8162001acf565b945060208601356001600160401b038082111562001e76575f80fd5b818801915088601f83011262001e8a575f80fd5b81358181111562001e99575f80fd5b8960208260051b850101111562001eae575f80fd5b60208301965080955050604088013591508082111562001b90575f80fd5b5f805f6040848603121562001edf575f80fd5b83356001600160401b0381111562001ef5575f80fd5b62001f038682870162001ae4565b909450925050602084013562001f198162001acf565b809150509250925092565b5f6020828403121562001f35575f80fd5b8151801515811462001c0a575f80fd5b60208082526012908201527110dd5cdd1bdb595c881b9bdd08199bdd5b9960721b604082015260600190565b634e487b7160e01b5f52603260045260245ffd5b5f5b8381101562001fa157818101518382015260200162001f87565b50505f910152565b5f6020828403121562001fba575f80fd5b81516001600160401b0381111562001fd0575f80fd5b8201601f8101841362001fe1575f80fd5b805162001ff262001d538262001d09565b81815285602083850101111562002007575f80fd5b6200201a82602083016020860162001f85565b95945050505050565b6020808252601690820152752ab730baba3437b934bd32b21037b832b930ba34b7b760511b604082015260600190565b81835281816020850137505f828201602090810191909152601f909101601f19169091010190565b6001600160a01b03861681526060602082018190525f90620020a1908301868862002053565b8281036040840152620020b681858762002053565b98975050505050505050565b6001600160a01b038581168252841660208201526060604082018190525f90620020f0908301848662002053565b9695505050505050565b5f602082840312156200210b575f80fd5b815162001c0a8162001acf565b634e487b7160e01b5f52601160045260245ffd5b5f6001820162002140576200214062002118565b5060010190565b60208101600383106200216857634e487b7160e01b5f52602160045260245ffd5b91905290565b5f60018060a01b038086168352808516602084015250606060408301528251806060840152620021a681608085016020870162001f85565b601f01601f191691909101608001949350505050565b5f8251620021cf81846020870162001f85565b9190910192915050565b5f808335601e19843603018112620021ef575f80fd5b8301803591506001600160401b0382111562002209575f80fd5b60200191503681900382131562001b24575f80fd5b602081525f6200223360208301848662002053565b949350505050565b5f60208083850312156200224d575f80fd5b82516001600160401b038082111562002264575f80fd5b818501915085601f83011262002278575f80fd5b8151818111156200228d576200228d62001cc2565b8060051b9150620022a084830162001cd6565b8181529183018401918481019088841115620022ba575f80fd5b938501935b83851015620020b65784519250620022d78362001acf565b8282529385019390850190620022bf565b8082018082111562000e1e5762000e1e6200211856fe608060405234801562000010575f80fd5b5060405162000c0338038062000c038339810160408190526200003391620001d2565b33806200005957604051631e4fbdf760e01b81525f600482015260240160405180910390fd5b6200006481620000c2565b50600180546001600160a01b0319166001600160a01b03851617905560026200008e8382620002e0565b506003805460ff191660011790556004620000aa8282620002e0565b50506005805460ff1916600117905550620003ac9050565b5f80546001600160a01b038381166001600160a01b0319831681178455604051919092169283917f8be0079c531659141344cd1fd0a4f28419497f9722a3daafe3b4186f6b6457e09190a35050565b634e487b7160e01b5f52604160045260245ffd5b5f82601f83011262000135575f80fd5b81516001600160401b038082111562000152576200015262000111565b604051601f8301601f19908116603f011681019082821181831017156200017d576200017d62000111565b81604052838152602092508660208588010111156200019a575f80fd5b5f91505b83821015620001bd57858201830151818301840152908201906200019e565b5f602085830101528094505050505092915050565b5f805f60608486031215620001e5575f80fd5b83516001600160a01b0381168114620001fc575f80fd5b60208501519093506001600160401b038082111562000219575f80fd5b620002278783880162000125565b935060408601519150808211156200023d575f80fd5b506200024c8682870162000125565b9150509250925092565b600181811c908216806200026b57607f821691505b6020821081036200028a57634e487b7160e01b5f52602260045260245ffd5b50919050565b601f821115620002db57805f5260205f20601f840160051c81016020851015620002b75750805b601f840160051c820191505b81811015620002d8575f8155600101620002c3565b50505b505050565b81516001600160401b03811115620002fc57620002fc62000111565b62000314816200030d845462000256565b8462000290565b602080601f8311600181146200034a575f8415620003325750858301515b5f19600386901b1c1916600185901b178555620003a4565b5f85815260208120601f198616915b828110156200037a5788860151825594840194600190910190840162000359565b50858210156200039857878501515f19600388901b60f8161c191681555b505060018460011b0185555b505050505050565b61084980620003ba5f395ff3fe608060405234801561000f575f80fd5b50600436106100b1575f3560e01c8063715018a61161006e578063715018a61461013d5780638da5cb5b14610145578063a34bbe6614610155578063af6a6d791461016f578063f2fde38b1461018c578063f872bec01461019f575f80fd5b80631130630c146100b55780632804b2c0146100ca578063392f37e9146100fa57806356de96db1461010f5780635b344c7414610122578063620c0c4b1461012a575b5f80fd5b6100c86100c336600461048c565b6101a7565b005b6001546100dd906001600160a01b031681565b6040516001600160a01b0390911681526020015b60405180910390f35b6101026101f5565b6040516100f191906104f8565b6100c861011d366004610544565b610281565b6100c86102f1565b6100c861013836600461057d565b61033e565b6100c86103af565b5f546001600160a01b03166100dd565b6003546101629060ff1681565b6040516100f191906105cc565b60055461017c9060ff1681565b60405190151581526020016100f1565b6100c861019a36600461057d565b6103c2565b610102610404565b7ff794b32488eb5712dd5a2640efa2ebc0234c4b77fe6f3a290b3402e7b03abc48600483836040516101db93929190610640565b60405180910390a160046101f082848361073e565b505050565b60048054610202906105e0565b80601f016020809104026020016040519081016040528092919081815260200182805461022e906105e0565b80156102795780601f1061025057610100808354040283529160200191610279565b820191905f5260205f20905b81548152906001019060200180831161025c57829003601f168201915b505050505081565b610289610411565b6003546040517fe8a97ea87e4388fa22d496b95a8ed5ced6717f49790318de2b928aaf37a021d8916102c29160ff9091169084906107f8565b60405180910390a16003805482919060ff191660018360028111156102e9576102e9610598565b021790555050565b6005805460ff8082161560ff1990921682179092556040519116151581527f7f291f75b82672cc6f1d9ae48e6cc17849327ce27523fc65d23c9a8208a8c0a19060200160405180910390a1565b610346610411565b600154604080516001600160a01b03928316815291831660208301527f391847abdda0edb4f1e720f30e246be400e373ef6243bd03bd41fe7db6e74f55910160405180910390a1600180546001600160a01b0319166001600160a01b0392909216919091179055565b6103b7610411565b6103c05f61043d565b565b6103ca610411565b6001600160a01b0381166103f857604051631e4fbdf760e01b81525f60048201526024015b60405180910390fd5b6104018161043d565b50565b60028054610202906105e0565b5f546001600160a01b031633146103c05760405163118cdaa760e01b81523360048201526024016103ef565b5f80546001600160a01b038381166001600160a01b0319831681178455604051919092169283917f8be0079c531659141344cd1fd0a4f28419497f9722a3daafe3b4186f6b6457e09190a35050565b5f806020838503121561049d575f80fd5b823567ffffffffffffffff808211156104b4575f80fd5b818501915085601f8301126104c7575f80fd5b8135818111156104d5575f80fd5b8660208285010111156104e6575f80fd5b60209290920196919550909350505050565b5f602080835283518060208501525f5b8181101561052457858101830151858201604001528201610508565b505f604082860101526040601f19601f8301168501019250505092915050565b5f60208284031215610554575f80fd5b813560038110610562575f80fd5b9392505050565b6001600160a01b0381168114610401575f80fd5b5f6020828403121561058d575f80fd5b813561056281610569565b634e487b7160e01b5f52602160045260245ffd5b600381106105c857634e487b7160e01b5f52602160045260245ffd5b9052565b602081016105da82846105ac565b92915050565b600181811c908216806105f457607f821691505b60208210810361061257634e487b7160e01b5f52602260045260245ffd5b50919050565b81835281816020850137505f828201602090810191909152601f909101601f19169091010190565b604081525f808554610651816105e0565b806040860152606060018084165f8114610672576001811461068e576106bd565b60ff1985166060890152606084151560051b89010195506106bd565b8a5f526020805f205f5b868110156106b35781548b8201870152908401908201610698565b8a01606001975050505b505050505082810360208401526106d5818587610618565b9695505050505050565b634e487b7160e01b5f52604160045260245ffd5b601f8211156101f057805f5260205f20601f840160051c810160208510156107185750805b601f840160051c820191505b81811015610737575f8155600101610724565b5050505050565b67ffffffffffffffff831115610756576107566106df565b61076a8361076483546105e0565b836106f3565b5f601f84116001811461079b575f85156107845750838201355b5f19600387901b1c1916600186901b178355610737565b5f83815260208120601f198716915b828110156107ca57868501358255602094850194600190920191016107aa565b50868210156107e6575f1960f88860031b161c19848701351681555b505060018560011b0183555050505050565b6040810161080682856105ac565b61056260208301846105ac56fea264697066735822122012131b1b4eaa8c67b0a8def1fa693faeb1526ac48b49654f51d16d5206e356ca64736f6c63430008180033608060405234801562000010575f80fd5b5060405162000d0938038062000d0983398101604081905262000033916200019c565b33806200005957604051631e4fbdf760e01b81525f600482015260240160405180910390fd5b620000648162000121565b50600180546001600160a01b038086166001600160a01b03199283161783556004805460ff1916841790556003805493840181555f527fc2575a0e9e593c00f959f8c92f12db2869c3395a3b0502d05e2516446f71f85b9092018054928516929091169190911790556005620000db82826200031e565b506040516001600160a01b03831681527f19ef9a4877199f89440a26acb26895ec02ed86f2df1aeaa90dc18041b892f71f9060200160405180910390a1505050620003ea565b5f80546001600160a01b038381166001600160a01b0319831681178455604051919092169283917f8be0079c531659141344cd1fd0a4f28419497f9722a3daafe3b4186f6b6457e09190a35050565b6001600160a01b038116811462000185575f80fd5b50565b634e487b7160e01b5f52604160045260245ffd5b5f805f60608486031215620001af575f80fd5b8351620001bc8162000170565b80935050602080850151620001d18162000170565b60408601519093506001600160401b0380821115620001ee575f80fd5b818701915087601f83011262000202575f80fd5b81518181111562000217576200021762000188565b604051601f8201601f19908116603f0116810190838211818310171562000242576200024262000188565b816040528281528a868487010111156200025a575f80fd5b5f93505b828410156200027d57848401860151818501870152928501926200025e565b5f8684830101528096505050505050509250925092565b600181811c90821680620002a957607f821691505b602082108103620002c857634e487b7160e01b5f52602260045260245ffd5b50919050565b601f8211156200031957805f5260205f20601f840160051c81016020851015620002f55750805b601f840160051c820191505b8181101562000316575f815560010162000301565b50505b505050565b81516001600160401b038111156200033a576200033a62000188565b62000352816200034b845462000294565b84620002ce565b602080601f83116001811462000388575f8415620003705750858301515b5f19600386901b1c1916600185901b178555620003e2565b5f85815260208120601f198616915b82811015620003b85788860151825594840194600190910190840162000397565b5085821015620003d657878501515f19600388901b60f8161c191681555b505060018460011b0185555b505050505050565b61091180620003f85f395ff3fe608060405234801561000f575f80fd5b50600436106100e5575f3560e01c806367c2a36011610088578063d8e7d36a11610063578063d8e7d36a1461020b578063ec17e13a1461021e578063ef097fc414610231578063f2fde38b14610244575f80fd5b806367c2a360146101e0578063715018a6146101f35780638da5cb5b146101fb575f80fd5b806325a10a70116100c357806325a10a701461017d578063267c4ae4146101a85780634892e8e8146101c557806360f96a8f146101cd575f80fd5b806306fdde03146100e95780631ba7214c146101075780631eee993a1461011c575b5f80fd5b6100f1610257565b6040516100fe9190610771565b60405180910390f35b61010f6102e3565b6040516100fe91906107bd565b61017b61012a36600461081d565b600280546001810182555f919091527f405787fa12a823e0f2b7631cc41b3ba8828b3321ca811111fa75cd3aa3bb5ace0180546001600160a01b0319166001600160a01b0392909216919091179055565b005b61019061018b36600461081d565b610343565b6040516001600160a01b0390911681526020016100fe565b6004546101b59060ff1681565b60405190151581526020016100fe565b61010f6103f7565b600154610190906001600160a01b031681565b61017b6101ee36600461081d565b610455565b61017b6104e0565b5f546001600160a01b0316610190565b61019061021936600461083f565b6104f3565b6101b561022c36600461081d565b61051b565b61017b61023f36600461081d565b610577565b61017b61025236600461081d565b6106b9565b6005805461026490610856565b80601f016020809104026020016040519081016040528092919081815260200182805461029090610856565b80156102db5780601f106102b2576101008083540402835291602001916102db565b820191905f5260205f20905b8154815290600101906020018083116102be57829003601f168201915b505050505081565b6060600380548060200260200160405190810160405280929190818152602001828054801561033957602002820191905f5260205f20905b81546001600160a01b0316815260019091019060200180831161031b575b5050505050905090565b5f8061034d6103f7565b90505f5b81518110156103b757836001600160a01b03168282815181106103765761037661088e565b60200260200101516001600160a01b0316036103af5781818151811061039e5761039e61088e565b602002602001015192505050919050565b600101610351565b5060405162461bcd60e51b815260206004820152600f60248201526e10da1a5b19081b9bdd08199bdd5b99608a1b60448201526064015b60405180910390fd5b6060600280548060200260200160405190810160405280929190818152602001828054801561033957602002820191905f5260205f209081546001600160a01b0316815260019091019060200180831161031b575050505050905090565b61045d6106f6565b600380546001810182555f919091527fc2575a0e9e593c00f959f8c92f12db2869c3395a3b0502d05e2516446f71f85b0180546001600160a01b0319166001600160a01b0383169081179091556040519081527f19ef9a4877199f89440a26acb26895ec02ed86f2df1aeaa90dc18041b892f71f9060200160405180910390a150565b6104e86106f6565b6104f15f610722565b565b60038181548110610502575f80fd5b5f918252602090912001546001600160a01b0316905081565b5f805b60035481101561056f57826001600160a01b0316600382815481106105455761054561088e565b5f918252602090912001546001600160a01b0316036105675750600192915050565b60010161051e565b505f92915050565b61057f6106f6565b5f805b6003548110156105ce57826001600160a01b0316600382815481106105a9576105a961088e565b5f918252602090912001546001600160a01b0316036105c6578091505b600101610582565b50600380546105df906001906108a2565b815481106105ef576105ef61088e565b5f91825260209091200154600380546001600160a01b03909216918390811061061a5761061a61088e565b905f5260205f20015f6101000a8154816001600160a01b0302191690836001600160a01b031602179055506003805480610656576106566108c7565b5f8281526020908190205f19908301810180546001600160a01b03191690559091019091556040516001600160a01b03841681527fb43ac7bf01d16ebcb8c868a4c03fecb1f6984ea4fa1a52c116ef282b8dbb17c5910160405180910390a15050565b6106c16106f6565b6001600160a01b0381166106ea57604051631e4fbdf760e01b81525f60048201526024016103ee565b6106f381610722565b50565b5f546001600160a01b031633146104f15760405163118cdaa760e01b81523360048201526024016103ee565b5f80546001600160a01b038381166001600160a01b0319831681178455604051919092169283917f8be0079c531659141344cd1fd0a4f28419497f9722a3daafe3b4186f6b6457e09190a35050565b5f602080835283518060208501525f5b8181101561079d57858101830151858201604001528201610781565b505f604082860101526040601f19601f8301168501019250505092915050565b602080825282518282018190525f9190848201906040850190845b818110156107fd5783516001600160a01b0316835292840192918401916001016107d8565b50909695505050505050565b6001600160a01b03811681146106f3575f80fd5b5f6020828403121561082d575f80fd5b813561083881610809565b9392505050565b5f6020828403121561084f575f80fd5b5035919050565b600181811c9082168061086a57607f821691505b60208210810361088857634e487b7160e01b5f52602260045260245ffd5b50919050565b634e487b7160e01b5f52603260045260245ffd5b818103818111156108c157634e487b7160e01b5f52601160045260245ffd5b92915050565b634e487b7160e01b5f52603160045260245ffdfea2646970667358221220c470be4ecfaef7568dc7e3f94624ccea62dee37fdb5915db055e05cf7a1844b364736f6c63430008180033a26469706673582212208a359e94f2d0d26c558ae5db7b7934f128b694907316787aa2035609d3b444a264736f6c63430008180033608060405234801562000010575f80fd5b5060405162000d0938038062000d0983398101604081905262000033916200019c565b33806200005957604051631e4fbdf760e01b81525f600482015260240160405180910390fd5b620000648162000121565b50600180546001600160a01b038086166001600160a01b03199283161783556004805460ff1916841790556003805493840181555f527fc2575a0e9e593c00f959f8c92f12db2869c3395a3b0502d05e2516446f71f85b9092018054928516929091169190911790556005620000db82826200031e565b506040516001600160a01b03831681527f19ef9a4877199f89440a26acb26895ec02ed86f2df1aeaa90dc18041b892f71f9060200160405180910390a1505050620003ea565b5f80546001600160a01b038381166001600160a01b0319831681178455604051919092169283917f8be0079c531659141344cd1fd0a4f28419497f9722a3daafe3b4186f6b6457e09190a35050565b6001600160a01b038116811462000185575f80fd5b50565b634e487b7160e01b5f52604160045260245ffd5b5f805f60608486031215620001af575f80fd5b8351620001bc8162000170565b80935050602080850151620001d18162000170565b60408601519093506001600160401b0380821115620001ee575f80fd5b818701915087601f83011262000202575f80fd5b81518181111562000217576200021762000188565b604051601f8201601f19908116603f0116810190838211818310171562000242576200024262000188565b816040528281528a868487010111156200025a575f80fd5b5f93505b828410156200027d57848401860151818501870152928501926200025e565b5f8684830101528096505050505050509250925092565b600181811c90821680620002a957607f821691505b602082108103620002c857634e487b7160e01b5f52602260045260245ffd5b50919050565b601f8211156200031957805f5260205f20601f840160051c81016020851015620002f55750805b601f840160051c820191505b8181101562000316575f815560010162000301565b50505b505050565b81516001600160401b038111156200033a576200033a62000188565b62000352816200034b845462000294565b84620002ce565b602080601f83116001811462000388575f8415620003705750858301515b5f19600386901b1c1916600185901b178555620003e2565b5f85815260208120601f198616915b82811015620003b85788860151825594840194600190910190840162000397565b5085821015620003d657878501515f19600388901b60f8161c191681555b505060018460011b0185555b505050505050565b61091180620003f85f395ff3fe608060405234801561000f575f80fd5b50600436106100e5575f3560e01c806367c2a36011610088578063d8e7d36a11610063578063d8e7d36a1461020b578063ec17e13a1461021e578063ef097fc414610231578063f2fde38b14610244575f80fd5b806367c2a360146101e0578063715018a6146101f35780638da5cb5b146101fb575f80fd5b806325a10a70116100c357806325a10a701461017d578063267c4ae4146101a85780634892e8e8146101c557806360f96a8f146101cd575f80fd5b806306fdde03146100e95780631ba7214c146101075780631eee993a1461011c575b5f80fd5b6100f1610257565b6040516100fe9190610771565b60405180910390f35b61010f6102e3565b6040516100fe91906107bd565b61017b61012a36600461081d565b600280546001810182555f919091527f405787fa12a823e0f2b7631cc41b3ba8828b3321ca811111fa75cd3aa3bb5ace0180546001600160a01b0319166001600160a01b0392909216919091179055565b005b61019061018b36600461081d565b610343565b6040516001600160a01b0390911681526020016100fe565b6004546101b59060ff1681565b60405190151581526020016100fe565b61010f6103f7565b600154610190906001600160a01b031681565b61017b6101ee36600461081d565b610455565b61017b6104e0565b5f546001600160a01b0316610190565b61019061021936600461083f565b6104f3565b6101b561022c36600461081d565b61051b565b61017b61023f36600461081d565b610577565b61017b61025236600461081d565b6106b9565b6005805461026490610856565b80601f016020809104026020016040519081016040528092919081815260200182805461029090610856565b80156102db5780601f106102b2576101008083540402835291602001916102db565b820191905f5260205f20905b8154815290600101906020018083116102be57829003601f168201915b505050505081565b6060600380548060200260200160405190810160405280929190818152602001828054801561033957602002820191905f5260205f20905b81546001600160a01b0316815260019091019060200180831161031b575b5050505050905090565b5f8061034d6103f7565b90505f5b81518110156103b757836001600160a01b03168282815181106103765761037661088e565b60200260200101516001600160a01b0316036103af5781818151811061039e5761039e61088e565b602002602001015192505050919050565b600101610351565b5060405162461bcd60e51b815260206004820152600f60248201526e10da1a5b19081b9bdd08199bdd5b99608a1b60448201526064015b60405180910390fd5b6060600280548060200260200160405190810160405280929190818152602001828054801561033957602002820191905f5260205f209081546001600160a01b0316815260019091019060200180831161031b575050505050905090565b61045d6106f6565b600380546001810182555f919091527fc2575a0e9e593c00f959f8c92f12db2869c3395a3b0502d05e2516446f71f85b0180546001600160a01b0319166001600160a01b0383169081179091556040519081527f19ef9a4877199f89440a26acb26895ec02ed86f2df1aeaa90dc18041b892f71f9060200160405180910390a150565b6104e86106f6565b6104f15f610722565b565b60038181548110610502575f80fd5b5f918252602090912001546001600160a01b0316905081565b5f805b60035481101561056f57826001600160a01b0316600382815481106105455761054561088e565b5f918252602090912001546001600160a01b0316036105675750600192915050565b60010161051e565b505f92915050565b61057f6106f6565b5f805b6003548110156105ce57826001600160a01b0316600382815481106105a9576105a961088e565b5f918252602090912001546001600160a01b0316036105c6578091505b600101610582565b50600380546105df906001906108a2565b815481106105ef576105ef61088e565b5f91825260209091200154600380546001600160a01b03909216918390811061061a5761061a61088e565b905f5260205f20015f6101000a8154816001600160a01b0302191690836001600160a01b031602179055506003805480610656576106566108c7565b5f8281526020908190205f19908301810180546001600160a01b03191690559091019091556040516001600160a01b03841681527fb43ac7bf01d16ebcb8c868a4c03fecb1f6984ea4fa1a52c116ef282b8dbb17c5910160405180910390a15050565b6106c16106f6565b6001600160a01b0381166106ea57604051631e4fbdf760e01b81525f60048201526024016103ee565b6106f381610722565b50565b5f546001600160a01b031633146104f15760405163118cdaa760e01b81523360048201526024016103ee565b5f80546001600160a01b038381166001600160a01b0319831681178455604051919092169283917f8be0079c531659141344cd1fd0a4f28419497f9722a3daafe3b4186f6b6457e09190a35050565b5f602080835283518060208501525f5b8181101561079d57858101830151858201604001528201610781565b505f604082860101526040601f19601f8301168501019250505092915050565b602080825282518282018190525f9190848201906040850190845b818110156107fd5783516001600160a01b0316835292840192918401916001016107d8565b50909695505050505050565b6001600160a01b03811681146106f3575f80fd5b5f6020828403121561082d575f80fd5b813561083881610809565b9392505050565b5f6020828403121561084f575f80fd5b5035919050565b600181811c9082168061086a57607f821691505b60208210810361088857634e487b7160e01b5f52602260045260245ffd5b50919050565b634e487b7160e01b5f52603260045260245ffd5b818103818111156108c157634e487b7160e01b5f52601160045260245ffd5b92915050565b634e487b7160e01b5f52603160045260245ffdfea2646970667358221220c470be4ecfaef7568dc7e3f94624ccea62dee37fdb5915db055e05cf7a1844b364736f6c63430008180033",
      "linkReferences": {}
   },
   "methodIdentifiers": {
      "authorizeUser(address,address)": "34436ce5",
      "compareStrings(string,string)": "bed34bba",
      "createCustomer(address,string)": "9b9f34c4",
      "createDevice(address,string,string)": "2924d4ee",
      "createDevices(address,string[],string)": "cc1ed9e3",
      "customers(uint256)": "c0abda2a",
      "devices(uint256)": "10ff8e31",
      "getCustomers()": "f1ba7127",
      "getDeviceByIndex(uint256)": "e1f653b1",
      "getDeviceBySn(string)": "9b1fa7a8",
      "getDevices()": "d611d6c8",
      "getDevicesOfCustomer(address)": "40bbcc3e",
      "getDevicesUnderCustomer(address)": "d7c80d89",
      "owner()": "8da5cb5b",
      "removeUserFromCustomer(address,address)": "eb3599d2",
      "renounceOwnership()": "715018a6",
      "setDeviceCustomer(address,address)": "645ae3b3",
      "setDeviceMetadataUri(string,address)": "d6eb463e",
      "setDeviceState(uint8,address)": "474ba1a5",
      "toggleDeviceVisible(address)": "85590405",
      "transferOwnership(address)": "f2fde38b"
   },
   "id": 25
}