{
   "abi": [
      {
         "type": "constructor",
         "inputs": [],
         "stateMutability": "nonpayable"
      },
      {
         "type": "function",
         "name": "authorizeUser",
         "inputs": [
            {
               "name": "customer",
               "type": "address",
               "internalType": "contract Customer"
            },
            {
               "name": "user",
               "type": "address",
               "internalType": "address"
            }
         ],
         "outputs": [],
         "stateMutability": "nonpayable"
      },
      {
         "type": "function",
         "name": "compareStrings",
         "inputs": [
            {
               "name": "a",
               "type": "string",
               "internalType": "string"
            },
            {
               "name": "b",
               "type": "string",
               "internalType": "string"
            }
         ],
         "outputs": [
            {
               "name": "",
               "type": "bool",
               "internalType": "bool"
            }
         ],
         "stateMutability": "pure"
      },
      {
         "type": "function",
         "name": "createCustomer",
         "inputs": [
            {
               "name": "parent",
               "type": "address",
               "internalType": "contract Customer"
            },
            {
               "name": "_name",
               "type": "string",
               "internalType": "string"
            }
         ],
         "outputs": [
            {
               "name": "newCustomer",
               "type": "address",
               "internalType": "contract Customer"
            }
         ],
         "stateMutability": "nonpayable"
      },
      {
         "type": "function",
         "name": "createDevice",
         "inputs": [
            {
               "name": "customer",
               "type": "address",
               "internalType": "contract Customer"
            },
            {
               "name": "sn",
               "type": "string",
               "internalType": "string"
            },
            {
               "name": "metadata",
               "type": "string",
               "internalType": "string"
            }
         ],
         "outputs": [
            {
               "name": "newDevice",
               "type": "address",
               "internalType": "contract Device"
            }
         ],
         "stateMutability": "nonpayable"
      },
      {
         "type": "function",
         "name": "createDevices",
         "inputs": [
            {
               "name": "customer",
               "type": "address",
               "internalType": "contract Customer"
            },
            {
               "name": "sns",
               "type": "string[]",
               "internalType": "string[]"
            },
            {
               "name": "metadata",
               "type": "string",
               "internalType": "string"
            }
         ],
         "outputs": [
            {
               "name": "newDevices",
               "type": "address[]",
               "internalType": "contract Device[]"
            }
         ],
         "stateMutability": "nonpayable"
      },
      {
         "type": "function",
         "name": "customers",
         "inputs": [
            {
               "name": "",
               "type": "uint256",
               "internalType": "uint256"
            }
         ],
         "outputs": [
            {
               "name": "",
               "type": "address",
               "internalType": "contract Customer"
            }
         ],
         "stateMutability": "view"
      },
      {
         "type": "function",
         "name": "devices",
         "inputs": [
            {
               "name": "",
               "type": "uint256",
               "internalType": "uint256"
            }
         ],
         "outputs": [
            {
               "name": "",
               "type": "address",
               "internalType": "contract Device"
            }
         ],
         "stateMutability": "view"
      },
      {
         "type": "function",
         "name": "getCustomers",
         "inputs": [],
         "outputs": [
            {
               "name": "",
               "type": "address[]",
               "internalType": "contract Customer[]"
            }
         ],
         "stateMutability": "view"
      },
      {
         "type": "function",
         "name": "getDeviceByIndex",
         "inputs": [
            {
               "name": "index",
               "type": "uint256",
               "internalType": "uint256"
            }
         ],
         "outputs": [
            {
               "name": "device",
               "type": "address",
               "internalType": "contract Device"
            }
         ],
         "stateMutability": "view"
      },
      {
         "type": "function",
         "name": "getDeviceBySn",
         "inputs": [
            {
               "name": "sn",
               "type": "string",
               "internalType": "string"
            }
         ],
         "outputs": [
            {
               "name": "device",
               "type": "address",
               "internalType": "contract Device"
            }
         ],
         "stateMutability": "view"
      },
      {
         "type": "function",
         "name": "getDevices",
         "inputs": [],
         "outputs": [
            {
               "name": "",
               "type": "address[]",
               "internalType": "contract Device[]"
            }
         ],
         "stateMutability": "view"
      },
      {
         "type": "function",
         "name": "getDevicesOfCustomer",
         "inputs": [
            {
               "name": "customer",
               "type": "address",
               "internalType": "contract Customer"
            }
         ],
         "outputs": [
            {
               "name": "",
               "type": "address[]",
               "internalType": "contract Device[]"
            }
         ],
         "stateMutability": "view"
      },
      {
         "type": "function",
         "name": "getDevicesUnderCustomer",
         "inputs": [
            {
               "name": "customer",
               "type": "address",
               "internalType": "contract Customer"
            }
         ],
         "outputs": [
            {
               "name": "",
               "type": "address[]",
               "internalType": "contract Device[]"
            }
         ],
         "stateMutability": "view"
      },
      {
         "type": "function",
         "name": "owner",
         "inputs": [],
         "outputs": [
            {
               "name": "",
               "type": "address",
               "internalType": "address"
            }
         ],
         "stateMutability": "view"
      },
      {
         "type": "function",
         "name": "removeUserFromCustomer",
         "inputs": [
            {
               "name": "customer",
               "type": "address",
               "internalType": "contract Customer"
            },
            {
               "name": "user",
               "type": "address",
               "internalType": "address"
            }
         ],
         "outputs": [],
         "stateMutability": "nonpayable"
      },
      {
         "type": "function",
         "name": "renounceOwnership",
         "inputs": [],
         "outputs": [],
         "stateMutability": "nonpayable"
      },
      {
         "type": "function",
         "name": "setDeviceCustomer",
         "inputs": [
            {
               "name": "customer",
               "type": "address",
               "internalType": "contract Customer"
            },
            {
               "name": "device",
               "type": "address",
               "internalType": "contract Device"
            }
         ],
         "outputs": [],
         "stateMutability": "nonpayable"
      },
      {
         "type": "function",
         "name": "setDeviceMetadataUri",
         "inputs": [
            {
               "name": "newUri",
               "type": "string",
               "internalType": "string"
            },
            {
               "name": "device",
               "type": "address",
               "internalType": "contract Device"
            }
         ],
         "outputs": [],
         "stateMutability": "nonpayable"
      },
      {
         "type": "function",
         "name": "setDeviceState",
         "inputs": [
            {
               "name": "newState",
               "type": "uint8",
               "internalType": "enum Device.DeviceState"
            },
            {
               "name": "device",
               "type": "address",
               "internalType": "contract Device"
            }
         ],
         "outputs": [],
         "stateMutability": "nonpayable"
      },
      {
         "type": "function",
         "name": "transferOwnership",
         "inputs": [
            {
               "name": "newOwner",
               "type": "address",
               "internalType": "address"
            }
         ],
         "outputs": [],
         "stateMutability": "nonpayable"
      },
      {
         "type": "event",
         "name": "CustomerCreated",
         "inputs": [
            {
               "name": "customerAddress",
               "type": "address",
               "indexed": false,
               "internalType": "address"
            },
            {
               "name": "parent",
               "type": "address",
               "indexed": false,
               "internalType": "address"
            }
         ],
         "anonymous": false
      },
      {
         "type": "event",
         "name": "DeviceAssigned",
         "inputs": [
            {
               "name": "customer",
               "type": "address",
               "indexed": false,
               "internalType": "address"
            },
            {
               "name": "device",
               "type": "address",
               "indexed": false,
               "internalType": "address"
            }
         ],
         "anonymous": false
      },
      {
         "type": "event",
         "name": "DeviceCreated",
         "inputs": [
            {
               "name": "customer",
               "type": "address",
               "indexed": false,
               "internalType": "address"
            },
            {
               "name": "deviceAddress",
               "type": "address",
               "indexed": false,
               "internalType": "address"
            },
            {
               "name": "sn",
               "type": "string",
               "indexed": false,
               "internalType": "string"
            }
         ],
         "anonymous": false
      },
      {
         "type": "event",
         "name": "OwnershipTransferred",
         "inputs": [
            {
               "name": "previousOwner",
               "type": "address",
               "indexed": true,
               "internalType": "address"
            },
            {
               "name": "newOwner",
               "type": "address",
               "indexed": true,
               "internalType": "address"
            }
         ],
         "anonymous": false
      },
      {
         "type": "error",
         "name": "OwnableInvalidOwner",
         "inputs": [
            {
               "name": "owner",
               "type": "address",
               "internalType": "address"
            }
         ]
      },
      {
         "type": "error",
         "name": "OwnableUnauthorizedAccount",
         "inputs": [
            {
               "name": "account",
               "type": "address",
               "internalType": "address"
            }
         ]
      }
   ],
   "bytecode": {
      "object": "0x608060405234801562000010575f80fd5b5033806200003757604051631e4fbdf760e01b81525f600482015260240160405180910390fd5b6200004281620000f7565b505f8033604051620000549062000146565b6001600160a01b0392831681529116602082015260606040820181905260049082015263149bdbdd60e21b608082015260a001604051809103905ff080158015620000a1573d5f803e3d5ffd5b506001805480820182555f919091527fb10e2d527612073b26eecdfd717e6a320cf44b4afac2b0732d9fcbe2b7fa0cf60180546001600160a01b0319166001600160a01b03929092169190911790555062000154565b5f80546001600160a01b038381166001600160a01b0319831681178455604051919092169283917f8be0079c531659141344cd1fd0a4f28419497f9722a3daafe3b4186f6b6457e09190a35050565b610d098062003c0783390190565b613aa580620001625f395ff3fe608060405234801562000010575f80fd5b506004361062000140575f3560e01c8063bed34bba11620000b7578063d7c80d891162000077578063d7c80d8914620002bc578063e1f653b114620002d3578063eb3599d214620002ea578063f1ba71271462000301578063f2fde38b146200030b575f80fd5b8063bed34bba1462000245578063c0abda2a146200026d578063cc1ed9e31462000284578063d611d6c8146200029b578063d6eb463e14620002a5575f80fd5b8063645ae3b31162000103578063645ae3b314620001e5578063715018a614620001fc5780638da5cb5b14620002065780639b1fa7a814620002175780639b9f34c4146200022e575f80fd5b806310ff8e3114620001445780632924d4ee146200017857806334436ce5146200018f57806340bbcc3e14620001a8578063474ba1a514620001ce575b5f80fd5b6200015b62000155366004620019b2565b62000322565b6040516001600160a01b0390911681526020015b60405180910390f35b6200015b6200018936600462001a26565b6200034b565b620001a6620001a036600462001aab565b6200061b565b005b620001bf620001b936600462001ae7565b62000743565b6040516200016f919062001b0c565b620001a6620001df36600462001b5a565b62000928565b620001a6620001f636600462001aab565b62000a18565b620001a662000be5565b5f546001600160a01b03166200015b565b6200015b6200022836600462001b7b565b62000bfc565b6200015b6200023f36600462001c85565b62000d1f565b6200025c6200025636600462001cd7565b62000f0f565b60405190151581526020016200016f565b6200015b6200027e366004620019b2565b62000f6b565b620001bf6200029536600462001d33565b62000f7b565b620001bf62001111565b620001a6620002b636600462001dc7565b62001173565b620001bf620002cd36600462001ae7565b62001231565b6200015b620002e4366004620019b2565b62001432565b620001a6620002fb36600462001aab565b62001463565b620001bf6200155b565b620001a66200031c36600462001ae7565b620015bb565b6002818154811062000332575f80fd5b5f918252602090912001546001600160a01b0316905081565b5f856001600160a01b03811615801590620003ca5750806001600160a01b031663267c4ae46040518163ffffffff1660e01b8152600401602060405180830381865afa1580156200039e573d5f803e3d5ffd5b505050506040513d601f19601f82011682018060405250810190620003c4919062001e1f565b15156001145b620003f25760405162461bcd60e51b8152600401620003e99062001e40565b60405180910390fd5b85855f5b6002548110156200051657620004ca600282815481106200041b576200041b62001e6c565b5f918252602082200154604080516303e1cafb60e61b815290516001600160a01b039092169263f872bec0926004808401938290030181865afa15801562000465573d5f803e3d5ffd5b505050506040513d5f823e601f3d908101601f191682016040526200048e919081019062001ea4565b84848080601f0160208091040260200160405190810160405280939291908181526020018383808284375f9201919091525062000f0f92505050565b156200050d5760405162461bcd60e51b8152602060048201526011602482015270534e206d75737420626520756e6971756560781b6044820152606401620003e9565b600101620003f6565b5088620005243382620015fe565b620005435760405162461bcd60e51b8152600401620003e99062001f1e565b8989898989604051620005569062001996565b6200056695949392919062001f76565b604051809103905ff08015801562000580573d5f803e3d5ffd5b50600280546001810182555f919091527f405787fa12a823e0f2b7631cc41b3ba8828b3321ca811111fa75cd3aa3bb5ace0180546001600160a01b0319166001600160a01b0383161790556040519095507f8ae62abfaf1a8a2062b143252dc200ce0c832a887b9378af263e30910d1090969062000606908c9088908d908d9062001fbd565b60405180910390a15050505095945050505050565b816001600160a01b03811615801590620006995750806001600160a01b031663267c4ae46040518163ffffffff1660e01b8152600401602060405180830381865afa1580156200066d573d5f803e3d5ffd5b505050506040513d601f19601f8201168201806040525081019062000693919062001e1f565b15156001145b620006b85760405162461bcd60e51b8152600401620003e99062001e40565b82620006c53382620015fe565b620006e45760405162461bcd60e51b8152600401620003e99062001f1e565b60405163033e151b60e51b81526001600160a01b0384811660048301528516906367c2a360906024015b5f604051808303815f87803b15801562000726575f80fd5b505af115801562000739573d5f803e3d5ffd5b5050505050505050565b6002546060905f906001600160401b0381111562000765576200076562001bbd565b6040519080825280602002602001820160405280156200078f578160200160208202803683370190505b5090505f805b6002548110156200087757846001600160a01b0316620007b58262001432565b6001600160a01b0316632804b2c06040518163ffffffff1660e01b8152600401602060405180830381865afa158015620007f1573d5f803e3d5ffd5b505050506040513d601f19601f8201168201806040525081019062000817919062001ff5565b6001600160a01b0316036200086e57620008318162001432565b83838151811062000846576200084662001e6c565b6001600160a01b0390921660209283029190910190910152816200086a8162002027565b9250505b60010162000795565b505f816001600160401b0381111562000894576200089462001bbd565b604051908082528060200260200182016040528015620008be578160200160208202803683370190505b5090505f5b828110156200091f57838181518110620008e157620008e162001e6c565b6020026020010151828281518110620008fe57620008fe62001e6c565b6001600160a01b0390921660209283029190910190910152600101620008c3565b50949350505050565b806001600160a01b0316632804b2c06040518163ffffffff1660e01b8152600401602060405180830381865afa15801562000965573d5f803e3d5ffd5b505050506040513d601f19601f820116820180604052508101906200098b919062001ff5565b620009973382620015fe565b620009b65760405162461bcd60e51b8152600401620003e99062001f1e565b6040516356de96db60e01b81526001600160a01b038316906356de96db90620009e490869060040162002042565b5f604051808303815f87803b158015620009fc575f80fd5b505af115801562000a0f573d5f803e3d5ffd5b50505050505050565b806001600160a01b0316632804b2c06040518163ffffffff1660e01b8152600401602060405180830381865afa15801562000a55573d5f803e3d5ffd5b505050506040513d601f19601f8201168201806040525081019062000a7b919062001ff5565b62000a873382620015fe565b62000aa65760405162461bcd60e51b8152600401620003e99062001f1e565b826001600160a01b0381161580159062000b245750806001600160a01b031663267c4ae46040518163ffffffff1660e01b8152600401602060405180830381865afa15801562000af8573d5f803e3d5ffd5b505050506040513d601f19601f8201168201806040525081019062000b1e919062001e1f565b15156001145b62000b435760405162461bcd60e51b8152600401620003e99062001e40565b60405163620c0c4b60e01b81526001600160a01b03858116600483015284169063620c0c4b906024015f604051808303815f87803b15801562000b84575f80fd5b505af115801562000b97573d5f803e3d5ffd5b5050604080516001600160a01b038089168252871660208201527f6589dc94843e0a8aa870e5c8bcf2fdd91ed0e0a26442e17e4f098db6b6bc2bfe935001905060405180910390a150505050565b62000bef620017e9565b62000bfa5f62001817565b565b5f805b60025481101562000cdc5762000cb962000c198262001432565b6001600160a01b031663f872bec06040518163ffffffff1660e01b81526004015f60405180830381865afa15801562000c54573d5f803e3d5ffd5b505050506040513d5f823e601f3d908101601f1916820160405262000c7d919081019062001ea4565b85858080601f0160208091040260200160405190810160405280939291908181526020018383808284375f9201919091525062000f0f92505050565b1562000cd35762000cca8162001432565b91505062000d19565b60010162000bff565b5060405162461bcd60e51b815260206004820152601060248201526f11195d9a58d9481b9bdd08199bdd5b9960821b6044820152606401620003e9565b92915050565b5f826001600160a01b0381161580159062000d9e5750806001600160a01b031663267c4ae46040518163ffffffff1660e01b8152600401602060405180830381865afa15801562000d72573d5f803e3d5ffd5b505050506040513d601f19601f8201168201806040525081019062000d98919062001e1f565b15156001145b62000dbd5760405162461bcd60e51b8152600401620003e99062001e40565b8362000dca3382620015fe565b62000de95760405162461bcd60e51b8152600401620003e99062001f1e565b84338560405162000dfa90620019a4565b62000e089392919062002069565b604051809103905ff08015801562000e22573d5f803e3d5ffd5b506001805480820182555f919091527fb10e2d527612073b26eecdfd717e6a320cf44b4afac2b0732d9fcbe2b7fa0cf60180546001600160a01b0319166001600160a01b03838116918217909255604051630f774c9d60e11b81526004810191909152919450861690631eee993a906024015f604051808303815f87803b15801562000eac575f80fd5b505af115801562000ebf573d5f803e3d5ffd5b5050604080516001600160a01b038088168252891660208201527f85f6e79cf83af1b4acc033f88391b65cf5441b4553e1fe67dda9b9784a839d5f935001905060405180910390a1505092915050565b5f8160405160200162000f239190620020b7565b604051602081830303815290604052805190602001208360405160200162000f4c9190620020b7565b6040516020818303038152906040528051906020012014905092915050565b6001818154811062000332575f80fd5b6060856001600160a01b0381161580159062000ffb5750806001600160a01b031663267c4ae46040518163ffffffff1660e01b8152600401602060405180830381865afa15801562000fcf573d5f803e3d5ffd5b505050506040513d601f19601f8201168201806040525081019062000ff5919062001e1f565b15156001145b6200101a5760405162461bcd60e51b8152600401620003e99062001e40565b86620010273382620015fe565b620010465760405162461bcd60e51b8152600401620003e99062001f1e565b856001600160401b0381111562001061576200106162001bbd565b6040519080825280602002602001820160405280156200108b578160200160208202803683370190505b5092505f5b868110156200110557620010cf89898984818110620010b357620010b362001e6c565b9050602002810190620010c79190620020d4565b89896200034b565b848281518110620010e457620010e462001e6c565b6001600160a01b039092166020928302919091019091015260010162001090565b50505095945050505050565b606060028054806020026020016040519081016040528092919081815260200182805480156200116957602002820191905f5260205f20905b81546001600160a01b031681526001909101906020018083116200114a575b5050505050905090565b806001600160a01b0316632804b2c06040518163ffffffff1660e01b8152600401602060405180830381865afa158015620011b0573d5f803e3d5ffd5b505050506040513d601f19601f82011682018060405250810190620011d6919062001ff5565b620011e23382620015fe565b620012015760405162461bcd60e51b8152600401620003e99062001f1e565b60405163044c18c360e21b81526001600160a01b03831690631130630c906200070e908790879060040162002119565b6060816001600160a01b03811615801590620012b15750806001600160a01b031663267c4ae46040518163ffffffff1660e01b8152600401602060405180830381865afa15801562001285573d5f803e3d5ffd5b505050506040513d601f19601f82011682018060405250810190620012ab919062001e1f565b15156001145b620012d05760405162461bcd60e51b8152600401620003e99062001e40565b5f836001600160a01b0316634892e8e86040518163ffffffff1660e01b81526004015f60405180830381865afa1580156200130d573d5f803e3d5ffd5b505050506040513d5f823e601f3d908101601f1916820160405262001336919081019062002136565b519050805f0362001355576200134c8462000743565b9250506200142c565b60605f620013638662000743565b905062001371828262001866565b91505f866001600160a01b0316634892e8e86040518163ffffffff1660e01b81526004015f60405180830381865afa158015620013b0573d5f803e3d5ffd5b505050506040513d5f823e601f3d908101601f19168201604052620013d9919081019062002136565b90505f5b8151811015620014245762001419846200141384848151811062001405576200140562001e6c565b602002602001015162001231565b62001866565b9350600101620013dd565b509194505050505b50919050565b5f6002828154811062001449576200144962001e6c565b5f918252602090912001546001600160a01b031692915050565b816001600160a01b03811615801590620014e15750806001600160a01b031663267c4ae46040518163ffffffff1660e01b8152600401602060405180830381865afa158015620014b5573d5f803e3d5ffd5b505050506040513d601f19601f82011682018060405250810190620014db919062001e1f565b15156001145b620015005760405162461bcd60e51b8152600401620003e99062001e40565b826200150d3382620015fe565b6200152c5760405162461bcd60e51b8152600401620003e99062001f1e565b604051633bc25ff160e21b81526001600160a01b03848116600483015285169063ef097fc4906024016200070e565b606060018054806020026020016040519081016040528092919081815260200182805480156200116957602002820191905f5260205f209081546001600160a01b031681526001909101906020018083116200114a575050505050905090565b620015c5620017e9565b6001600160a01b038116620015f057604051631e4fbdf760e01b81525f6004820152602401620003e9565b620015fb8162001817565b50565b5f815b5f6001600160a01b0316816001600160a01b03166360f96a8f6040518163ffffffff1660e01b8152600401602060405180830381865afa15801562001648573d5f803e3d5ffd5b505050506040513d601f19601f820116820180604052508101906200166e919062001ff5565b6001600160a01b031614620017645760405163760bf09d60e11b81526001600160a01b03858116600483015282169063ec17e13a90602401602060405180830381865afa158015620016c2573d5f803e3d5ffd5b505050506040513d601f19601f82011682018060405250810190620016e8919062001e1f565b15620016f957600191505062000d19565b806001600160a01b03166360f96a8f6040518163ffffffff1660e01b8152600401602060405180830381865afa15801562001736573d5f803e3d5ffd5b505050506040513d601f19601f820116820180604052508101906200175c919062001ff5565b905062001601565b60405163760bf09d60e11b81526001600160a01b03858116600483015282169063ec17e13a90602401602060405180830381865afa158015620017a9573d5f803e3d5ffd5b505050506040513d601f19601f82011682018060405250810190620017cf919062001e1f565b15620017e057600191505062000d19565b505f9392505050565b5f546001600160a01b0316331462000bfa5760405163118cdaa760e01b8152336004820152602401620003e9565b5f80546001600160a01b038381166001600160a01b0319831681178455604051919092169283917f8be0079c531659141344cd1fd0a4f28419497f9722a3daafe3b4186f6b6457e09190a35050565b81518151606091905f6200187b8284620021e3565b6001600160401b0381111562001895576200189562001bbd565b604051908082528060200260200182016040528015620018bf578160200160208202803683370190505b5090505f5b838110156200192057868181518110620018e257620018e262001e6c565b6020026020010151828281518110620018ff57620018ff62001e6c565b6001600160a01b0390921660209283029190910190910152600101620018c4565b505f5b828110156200198c5785818151811062001941576200194162001e6c565b6020026020010151828286620019589190620021e3565b815181106200196b576200196b62001e6c565b6001600160a01b039092166020928302919091019091015260010162001923565b5095945050505050565b610b6d80620021fa83390190565b610d098062002d6783390190565b5f60208284031215620019c3575f80fd5b5035919050565b6001600160a01b0381168114620015fb575f80fd5b5f8083601f840112620019f0575f80fd5b5081356001600160401b0381111562001a07575f80fd5b60208301915083602082850101111562001a1f575f80fd5b9250929050565b5f805f805f6060868803121562001a3b575f80fd5b853562001a4881620019ca565b945060208601356001600160401b038082111562001a64575f80fd5b62001a7289838a01620019df565b9096509450604088013591508082111562001a8b575f80fd5b5062001a9a88828901620019df565b969995985093965092949392505050565b5f806040838503121562001abd575f80fd5b823562001aca81620019ca565b9150602083013562001adc81620019ca565b809150509250929050565b5f6020828403121562001af8575f80fd5b813562001b0581620019ca565b9392505050565b602080825282518282018190525f9190848201906040850190845b8181101562001b4e5783516001600160a01b03168352928401929184019160010162001b27565b50909695505050505050565b5f806040838503121562001b6c575f80fd5b82356003811062001aca575f80fd5b5f806020838503121562001b8d575f80fd5b82356001600160401b0381111562001ba3575f80fd5b62001bb185828601620019df565b90969095509350505050565b634e487b7160e01b5f52604160045260245ffd5b604051601f8201601f191681016001600160401b038111828210171562001bfc5762001bfc62001bbd565b604052919050565b5f6001600160401b0382111562001c1f5762001c1f62001bbd565b50601f01601f191660200190565b5f82601f83011262001c3d575f80fd5b813562001c5462001c4e8262001c04565b62001bd1565b81815284602083860101111562001c69575f80fd5b816020850160208301375f918101602001919091529392505050565b5f806040838503121562001c97575f80fd5b823562001ca481620019ca565b915060208301356001600160401b0381111562001cbf575f80fd5b62001ccd8582860162001c2d565b9150509250929050565b5f806040838503121562001ce9575f80fd5b82356001600160401b038082111562001d00575f80fd5b62001d0e8683870162001c2d565b9350602085013591508082111562001d24575f80fd5b5062001ccd8582860162001c2d565b5f805f805f6060868803121562001d48575f80fd5b853562001d5581620019ca565b945060208601356001600160401b038082111562001d71575f80fd5b818801915088601f83011262001d85575f80fd5b81358181111562001d94575f80fd5b8960208260051b850101111562001da9575f80fd5b60208301965080955050604088013591508082111562001a8b575f80fd5b5f805f6040848603121562001dda575f80fd5b83356001600160401b0381111562001df0575f80fd5b62001dfe86828701620019df565b909450925050602084013562001e1481620019ca565b809150509250925092565b5f6020828403121562001e30575f80fd5b8151801515811462001b05575f80fd5b60208082526012908201527110dd5cdd1bdb595c881b9bdd08199bdd5b9960721b604082015260600190565b634e487b7160e01b5f52603260045260245ffd5b5f5b8381101562001e9c57818101518382015260200162001e82565b50505f910152565b5f6020828403121562001eb5575f80fd5b81516001600160401b0381111562001ecb575f80fd5b8201601f8101841362001edc575f80fd5b805162001eed62001c4e8262001c04565b81815285602083850101111562001f02575f80fd5b62001f1582602083016020860162001e80565b95945050505050565b6020808252601690820152752ab730baba3437b934bd32b21037b832b930ba34b7b760511b604082015260600190565b81835281816020850137505f828201602090810191909152601f909101601f19169091010190565b6001600160a01b03861681526060602082018190525f9062001f9c908301868862001f4e565b828103604084015262001fb181858762001f4e565b98975050505050505050565b6001600160a01b038581168252841660208201526060604082018190525f9062001feb908301848662001f4e565b9695505050505050565b5f6020828403121562002006575f80fd5b815162001b0581620019ca565b634e487b7160e01b5f52601160045260245ffd5b5f600182016200203b576200203b62002013565b5060010190565b60208101600383106200206357634e487b7160e01b5f52602160045260245ffd5b91905290565b5f60018060a01b038086168352808516602084015250606060408301528251806060840152620020a181608085016020870162001e80565b601f01601f191691909101608001949350505050565b5f8251620020ca81846020870162001e80565b9190910192915050565b5f808335601e19843603018112620020ea575f80fd5b8301803591506001600160401b0382111562002104575f80fd5b60200191503681900382131562001a1f575f80fd5b602081525f6200212e60208301848662001f4e565b949350505050565b5f602080838503121562002148575f80fd5b82516001600160401b03808211156200215f575f80fd5b818501915085601f83011262002173575f80fd5b81518181111562002188576200218862001bbd565b8060051b91506200219b84830162001bd1565b8181529183018401918481019088841115620021b5575f80fd5b938501935b8385101562001fb15784519250620021d283620019ca565b8282529385019390850190620021ba565b8082018082111562000d195762000d196200201356fe608060405234801562000010575f80fd5b5060405162000b6d38038062000b6d8339810160408190526200003391620001c4565b33806200005957604051631e4fbdf760e01b81525f600482015260240160405180910390fd5b6200006481620000b4565b50600180546001600160a01b0319166001600160a01b03851617905560026200008e8382620002d2565b506003805460ff191660011790556004620000aa8282620002d2565b505050506200039e565b5f80546001600160a01b038381166001600160a01b0319831681178455604051919092169283917f8be0079c531659141344cd1fd0a4f28419497f9722a3daafe3b4186f6b6457e09190a35050565b634e487b7160e01b5f52604160045260245ffd5b5f82601f83011262000127575f80fd5b81516001600160401b038082111562000144576200014462000103565b604051601f8301601f19908116603f011681019082821181831017156200016f576200016f62000103565b81604052838152602092508660208588010111156200018c575f80fd5b5f91505b83821015620001af578582018301518183018401529082019062000190565b5f602085830101528094505050505092915050565b5f805f60608486031215620001d7575f80fd5b83516001600160a01b0381168114620001ee575f80fd5b60208501519093506001600160401b03808211156200020b575f80fd5b620002198783880162000117565b935060408601519150808211156200022f575f80fd5b506200023e8682870162000117565b9150509250925092565b600181811c908216806200025d57607f821691505b6020821081036200027c57634e487b7160e01b5f52602260045260245ffd5b50919050565b601f821115620002cd57805f5260205f20601f840160051c81016020851015620002a95750805b601f840160051c820191505b81811015620002ca575f8155600101620002b5565b50505b505050565b81516001600160401b03811115620002ee57620002ee62000103565b6200030681620002ff845462000248565b8462000282565b602080601f8311600181146200033c575f8415620003245750858301515b5f19600386901b1c1916600185901b17855562000396565b5f85815260208120601f198616915b828110156200036c578886015182559484019460019091019084016200034b565b50858210156200038a57878501515f19600388901b60f8161c191681555b505060018460011b0185555b505050505050565b6107c180620003ac5f395ff3fe608060405234801561000f575f80fd5b506004361061009b575f3560e01c8063715018a611610063578063715018a61461011f5780638da5cb5b14610127578063a34bbe6614610137578063f2fde38b14610151578063f872bec014610164575f80fd5b80631130630c1461009f5780632804b2c0146100b4578063392f37e9146100e457806356de96db146100f9578063620c0c4b1461010c575b5f80fd5b6100b26100ad366004610404565b61016c565b005b6001546100c7906001600160a01b031681565b6040516001600160a01b0390911681526020015b60405180910390f35b6100ec6101ba565b6040516100db9190610470565b6100b26101073660046104bc565b610246565b6100b261011a3660046104f5565b6102b6565b6100b2610327565b5f546001600160a01b03166100c7565b6003546101449060ff1681565b6040516100db9190610544565b6100b261015f3660046104f5565b61033a565b6100ec61037c565b7ff794b32488eb5712dd5a2640efa2ebc0234c4b77fe6f3a290b3402e7b03abc48600483836040516101a0939291906105b8565b60405180910390a160046101b58284836106b6565b505050565b600480546101c790610558565b80601f01602080910402602001604051908101604052809291908181526020018280546101f390610558565b801561023e5780601f106102155761010080835404028352916020019161023e565b820191905f5260205f20905b81548152906001019060200180831161022157829003601f168201915b505050505081565b61024e610389565b6003546040517fe8a97ea87e4388fa22d496b95a8ed5ced6717f49790318de2b928aaf37a021d8916102879160ff909116908490610770565b60405180910390a16003805482919060ff191660018360028111156102ae576102ae610510565b021790555050565b6102be610389565b600154604080516001600160a01b03928316815291831660208301527f391847abdda0edb4f1e720f30e246be400e373ef6243bd03bd41fe7db6e74f55910160405180910390a1600180546001600160a01b0319166001600160a01b0392909216919091179055565b61032f610389565b6103385f6103b5565b565b610342610389565b6001600160a01b03811661037057604051631e4fbdf760e01b81525f60048201526024015b60405180910390fd5b610379816103b5565b50565b600280546101c790610558565b5f546001600160a01b031633146103385760405163118cdaa760e01b8152336004820152602401610367565b5f80546001600160a01b038381166001600160a01b0319831681178455604051919092169283917f8be0079c531659141344cd1fd0a4f28419497f9722a3daafe3b4186f6b6457e09190a35050565b5f8060208385031215610415575f80fd5b823567ffffffffffffffff8082111561042c575f80fd5b818501915085601f83011261043f575f80fd5b81358181111561044d575f80fd5b86602082850101111561045e575f80fd5b60209290920196919550909350505050565b5f602080835283518060208501525f5b8181101561049c57858101830151858201604001528201610480565b505f604082860101526040601f19601f8301168501019250505092915050565b5f602082840312156104cc575f80fd5b8135600381106104da575f80fd5b9392505050565b6001600160a01b0381168114610379575f80fd5b5f60208284031215610505575f80fd5b81356104da816104e1565b634e487b7160e01b5f52602160045260245ffd5b6003811061054057634e487b7160e01b5f52602160045260245ffd5b9052565b602081016105528284610524565b92915050565b600181811c9082168061056c57607f821691505b60208210810361058a57634e487b7160e01b5f52602260045260245ffd5b50919050565b81835281816020850137505f828201602090810191909152601f909101601f19169091010190565b604081525f8085546105c981610558565b806040860152606060018084165f81146105ea576001811461060657610635565b60ff1985166060890152606084151560051b8901019550610635565b8a5f526020805f205f5b8681101561062b5781548b8201870152908401908201610610565b8a01606001975050505b5050505050828103602084015261064d818587610590565b9695505050505050565b634e487b7160e01b5f52604160045260245ffd5b601f8211156101b557805f5260205f20601f840160051c810160208510156106905750805b601f840160051c820191505b818110156106af575f815560010161069c565b5050505050565b67ffffffffffffffff8311156106ce576106ce610657565b6106e2836106dc8354610558565b8361066b565b5f601f841160018114610713575f85156106fc5750838201355b5f19600387901b1c1916600186901b1783556106af565b5f83815260208120601f198716915b828110156107425786850135825560209485019460019092019101610722565b508682101561075e575f1960f88860031b161c19848701351681555b505060018560011b0183555050505050565b6040810161077e8285610524565b6104da602083018461052456fea2646970667358221220f831cecb03c0503fcbf963d22118c218980e4725fda073b28c75c31c2763bf8664736f6c63430008180033608060405234801562000010575f80fd5b5060405162000d0938038062000d0983398101604081905262000033916200019c565b33806200005957604051631e4fbdf760e01b81525f600482015260240160405180910390fd5b620000648162000121565b50600180546001600160a01b038086166001600160a01b03199283161783556004805460ff1916841790556003805493840181555f527fc2575a0e9e593c00f959f8c92f12db2869c3395a3b0502d05e2516446f71f85b9092018054928516929091169190911790556005620000db82826200031e565b506040516001600160a01b03831681527f19ef9a4877199f89440a26acb26895ec02ed86f2df1aeaa90dc18041b892f71f9060200160405180910390a1505050620003ea565b5f80546001600160a01b038381166001600160a01b0319831681178455604051919092169283917f8be0079c531659141344cd1fd0a4f28419497f9722a3daafe3b4186f6b6457e09190a35050565b6001600160a01b038116811462000185575f80fd5b50565b634e487b7160e01b5f52604160045260245ffd5b5f805f60608486031215620001af575f80fd5b8351620001bc8162000170565b80935050602080850151620001d18162000170565b60408601519093506001600160401b0380821115620001ee575f80fd5b818701915087601f83011262000202575f80fd5b81518181111562000217576200021762000188565b604051601f8201601f19908116603f0116810190838211818310171562000242576200024262000188565b816040528281528a868487010111156200025a575f80fd5b5f93505b828410156200027d57848401860151818501870152928501926200025e565b5f8684830101528096505050505050509250925092565b600181811c90821680620002a957607f821691505b602082108103620002c857634e487b7160e01b5f52602260045260245ffd5b50919050565b601f8211156200031957805f5260205f20601f840160051c81016020851015620002f55750805b601f840160051c820191505b8181101562000316575f815560010162000301565b50505b505050565b81516001600160401b038111156200033a576200033a62000188565b62000352816200034b845462000294565b84620002ce565b602080601f83116001811462000388575f8415620003705750858301515b5f19600386901b1c1916600185901b178555620003e2565b5f85815260208120601f198616915b82811015620003b85788860151825594840194600190910190840162000397565b5085821015620003d657878501515f19600388901b60f8161c191681555b505060018460011b0185555b505050505050565b61091180620003f85f395ff3fe608060405234801561000f575f80fd5b50600436106100e5575f3560e01c806367c2a36011610088578063d8e7d36a11610063578063d8e7d36a1461020b578063ec17e13a1461021e578063ef097fc414610231578063f2fde38b14610244575f80fd5b806367c2a360146101e0578063715018a6146101f35780638da5cb5b146101fb575f80fd5b806325a10a70116100c357806325a10a701461017d578063267c4ae4146101a85780634892e8e8146101c557806360f96a8f146101cd575f80fd5b806306fdde03146100e95780631ba7214c146101075780631eee993a1461011c575b5f80fd5b6100f1610257565b6040516100fe9190610771565b60405180910390f35b61010f6102e3565b6040516100fe91906107bd565b61017b61012a36600461081d565b600280546001810182555f919091527f405787fa12a823e0f2b7631cc41b3ba8828b3321ca811111fa75cd3aa3bb5ace0180546001600160a01b0319166001600160a01b0392909216919091179055565b005b61019061018b36600461081d565b610343565b6040516001600160a01b0390911681526020016100fe565b6004546101b59060ff1681565b60405190151581526020016100fe565b61010f6103f7565b600154610190906001600160a01b031681565b61017b6101ee36600461081d565b610455565b61017b6104e0565b5f546001600160a01b0316610190565b61019061021936600461083f565b6104f3565b6101b561022c36600461081d565b61051b565b61017b61023f36600461081d565b610577565b61017b61025236600461081d565b6106b9565b6005805461026490610856565b80601f016020809104026020016040519081016040528092919081815260200182805461029090610856565b80156102db5780601f106102b2576101008083540402835291602001916102db565b820191905f5260205f20905b8154815290600101906020018083116102be57829003601f168201915b505050505081565b6060600380548060200260200160405190810160405280929190818152602001828054801561033957602002820191905f5260205f20905b81546001600160a01b0316815260019091019060200180831161031b575b5050505050905090565b5f8061034d6103f7565b90505f5b81518110156103b757836001600160a01b03168282815181106103765761037661088e565b60200260200101516001600160a01b0316036103af5781818151811061039e5761039e61088e565b602002602001015192505050919050565b600101610351565b5060405162461bcd60e51b815260206004820152600f60248201526e10da1a5b19081b9bdd08199bdd5b99608a1b60448201526064015b60405180910390fd5b6060600280548060200260200160405190810160405280929190818152602001828054801561033957602002820191905f5260205f209081546001600160a01b0316815260019091019060200180831161031b575050505050905090565b61045d6106f6565b600380546001810182555f919091527fc2575a0e9e593c00f959f8c92f12db2869c3395a3b0502d05e2516446f71f85b0180546001600160a01b0319166001600160a01b0383169081179091556040519081527f19ef9a4877199f89440a26acb26895ec02ed86f2df1aeaa90dc18041b892f71f9060200160405180910390a150565b6104e86106f6565b6104f15f610722565b565b60038181548110610502575f80fd5b5f918252602090912001546001600160a01b0316905081565b5f805b60035481101561056f57826001600160a01b0316600382815481106105455761054561088e565b5f918252602090912001546001600160a01b0316036105675750600192915050565b60010161051e565b505f92915050565b61057f6106f6565b5f805b6003548110156105ce57826001600160a01b0316600382815481106105a9576105a961088e565b5f918252602090912001546001600160a01b0316036105c6578091505b600101610582565b50600380546105df906001906108a2565b815481106105ef576105ef61088e565b5f91825260209091200154600380546001600160a01b03909216918390811061061a5761061a61088e565b905f5260205f20015f6101000a8154816001600160a01b0302191690836001600160a01b031602179055506003805480610656576106566108c7565b5f8281526020908190205f19908301810180546001600160a01b03191690559091019091556040516001600160a01b03841681527fb43ac7bf01d16ebcb8c868a4c03fecb1f6984ea4fa1a52c116ef282b8dbb17c5910160405180910390a15050565b6106c16106f6565b6001600160a01b0381166106ea57604051631e4fbdf760e01b81525f60048201526024016103ee565b6106f381610722565b50565b5f546001600160a01b031633146104f15760405163118cdaa760e01b81523360048201526024016103ee565b5f80546001600160a01b038381166001600160a01b0319831681178455604051919092169283917f8be0079c531659141344cd1fd0a4f28419497f9722a3daafe3b4186f6b6457e09190a35050565b5f602080835283518060208501525f5b8181101561079d57858101830151858201604001528201610781565b505f604082860101526040601f19601f8301168501019250505092915050565b602080825282518282018190525f9190848201906040850190845b818110156107fd5783516001600160a01b0316835292840192918401916001016107d8565b50909695505050505050565b6001600160a01b03811681146106f3575f80fd5b5f6020828403121561082d575f80fd5b813561083881610809565b9392505050565b5f6020828403121561084f575f80fd5b5035919050565b600181811c9082168061086a57607f821691505b60208210810361088857634e487b7160e01b5f52602260045260245ffd5b50919050565b634e487b7160e01b5f52603260045260245ffd5b818103818111156108c157634e487b7160e01b5f52601160045260245ffd5b92915050565b634e487b7160e01b5f52603160045260245ffdfea2646970667358221220c470be4ecfaef7568dc7e3f94624ccea62dee37fdb5915db055e05cf7a1844b364736f6c63430008180033a26469706673582212208f8db30e48eeea78301717e6c2980dc76c2f4f517e1b083b4ce8c05a97f99c3c64736f6c63430008180033608060405234801562000010575f80fd5b5060405162000d0938038062000d0983398101604081905262000033916200019c565b33806200005957604051631e4fbdf760e01b81525f600482015260240160405180910390fd5b620000648162000121565b50600180546001600160a01b038086166001600160a01b03199283161783556004805460ff1916841790556003805493840181555f527fc2575a0e9e593c00f959f8c92f12db2869c3395a3b0502d05e2516446f71f85b9092018054928516929091169190911790556005620000db82826200031e565b506040516001600160a01b03831681527f19ef9a4877199f89440a26acb26895ec02ed86f2df1aeaa90dc18041b892f71f9060200160405180910390a1505050620003ea565b5f80546001600160a01b038381166001600160a01b0319831681178455604051919092169283917f8be0079c531659141344cd1fd0a4f28419497f9722a3daafe3b4186f6b6457e09190a35050565b6001600160a01b038116811462000185575f80fd5b50565b634e487b7160e01b5f52604160045260245ffd5b5f805f60608486031215620001af575f80fd5b8351620001bc8162000170565b80935050602080850151620001d18162000170565b60408601519093506001600160401b0380821115620001ee575f80fd5b818701915087601f83011262000202575f80fd5b81518181111562000217576200021762000188565b604051601f8201601f19908116603f0116810190838211818310171562000242576200024262000188565b816040528281528a868487010111156200025a575f80fd5b5f93505b828410156200027d57848401860151818501870152928501926200025e565b5f8684830101528096505050505050509250925092565b600181811c90821680620002a957607f821691505b602082108103620002c857634e487b7160e01b5f52602260045260245ffd5b50919050565b601f8211156200031957805f5260205f20601f840160051c81016020851015620002f55750805b601f840160051c820191505b8181101562000316575f815560010162000301565b50505b505050565b81516001600160401b038111156200033a576200033a62000188565b62000352816200034b845462000294565b84620002ce565b602080601f83116001811462000388575f8415620003705750858301515b5f19600386901b1c1916600185901b178555620003e2565b5f85815260208120601f198616915b82811015620003b85788860151825594840194600190910190840162000397565b5085821015620003d657878501515f19600388901b60f8161c191681555b505060018460011b0185555b505050505050565b61091180620003f85f395ff3fe608060405234801561000f575f80fd5b50600436106100e5575f3560e01c806367c2a36011610088578063d8e7d36a11610063578063d8e7d36a1461020b578063ec17e13a1461021e578063ef097fc414610231578063f2fde38b14610244575f80fd5b806367c2a360146101e0578063715018a6146101f35780638da5cb5b146101fb575f80fd5b806325a10a70116100c357806325a10a701461017d578063267c4ae4146101a85780634892e8e8146101c557806360f96a8f146101cd575f80fd5b806306fdde03146100e95780631ba7214c146101075780631eee993a1461011c575b5f80fd5b6100f1610257565b6040516100fe9190610771565b60405180910390f35b61010f6102e3565b6040516100fe91906107bd565b61017b61012a36600461081d565b600280546001810182555f919091527f405787fa12a823e0f2b7631cc41b3ba8828b3321ca811111fa75cd3aa3bb5ace0180546001600160a01b0319166001600160a01b0392909216919091179055565b005b61019061018b36600461081d565b610343565b6040516001600160a01b0390911681526020016100fe565b6004546101b59060ff1681565b60405190151581526020016100fe565b61010f6103f7565b600154610190906001600160a01b031681565b61017b6101ee36600461081d565b610455565b61017b6104e0565b5f546001600160a01b0316610190565b61019061021936600461083f565b6104f3565b6101b561022c36600461081d565b61051b565b61017b61023f36600461081d565b610577565b61017b61025236600461081d565b6106b9565b6005805461026490610856565b80601f016020809104026020016040519081016040528092919081815260200182805461029090610856565b80156102db5780601f106102b2576101008083540402835291602001916102db565b820191905f5260205f20905b8154815290600101906020018083116102be57829003601f168201915b505050505081565b6060600380548060200260200160405190810160405280929190818152602001828054801561033957602002820191905f5260205f20905b81546001600160a01b0316815260019091019060200180831161031b575b5050505050905090565b5f8061034d6103f7565b90505f5b81518110156103b757836001600160a01b03168282815181106103765761037661088e565b60200260200101516001600160a01b0316036103af5781818151811061039e5761039e61088e565b602002602001015192505050919050565b600101610351565b5060405162461bcd60e51b815260206004820152600f60248201526e10da1a5b19081b9bdd08199bdd5b99608a1b60448201526064015b60405180910390fd5b6060600280548060200260200160405190810160405280929190818152602001828054801561033957602002820191905f5260205f209081546001600160a01b0316815260019091019060200180831161031b575050505050905090565b61045d6106f6565b600380546001810182555f919091527fc2575a0e9e593c00f959f8c92f12db2869c3395a3b0502d05e2516446f71f85b0180546001600160a01b0319166001600160a01b0383169081179091556040519081527f19ef9a4877199f89440a26acb26895ec02ed86f2df1aeaa90dc18041b892f71f9060200160405180910390a150565b6104e86106f6565b6104f15f610722565b565b60038181548110610502575f80fd5b5f918252602090912001546001600160a01b0316905081565b5f805b60035481101561056f57826001600160a01b0316600382815481106105455761054561088e565b5f918252602090912001546001600160a01b0316036105675750600192915050565b60010161051e565b505f92915050565b61057f6106f6565b5f805b6003548110156105ce57826001600160a01b0316600382815481106105a9576105a961088e565b5f918252602090912001546001600160a01b0316036105c6578091505b600101610582565b50600380546105df906001906108a2565b815481106105ef576105ef61088e565b5f91825260209091200154600380546001600160a01b03909216918390811061061a5761061a61088e565b905f5260205f20015f6101000a8154816001600160a01b0302191690836001600160a01b031602179055506003805480610656576106566108c7565b5f8281526020908190205f19908301810180546001600160a01b03191690559091019091556040516001600160a01b03841681527fb43ac7bf01d16ebcb8c868a4c03fecb1f6984ea4fa1a52c116ef282b8dbb17c5910160405180910390a15050565b6106c16106f6565b6001600160a01b0381166106ea57604051631e4fbdf760e01b81525f60048201526024016103ee565b6106f381610722565b50565b5f546001600160a01b031633146104f15760405163118cdaa760e01b81523360048201526024016103ee565b5f80546001600160a01b038381166001600160a01b0319831681178455604051919092169283917f8be0079c531659141344cd1fd0a4f28419497f9722a3daafe3b4186f6b6457e09190a35050565b5f602080835283518060208501525f5b8181101561079d57858101830151858201604001528201610781565b505f604082860101526040601f19601f8301168501019250505092915050565b602080825282518282018190525f9190848201906040850190845b818110156107fd5783516001600160a01b0316835292840192918401916001016107d8565b50909695505050505050565b6001600160a01b03811681146106f3575f80fd5b5f6020828403121561082d575f80fd5b813561083881610809565b9392505050565b5f6020828403121561084f575f80fd5b5035919050565b600181811c9082168061086a57607f821691505b60208210810361088857634e487b7160e01b5f52602260045260245ffd5b50919050565b634e487b7160e01b5f52603260045260245ffd5b818103818111156108c157634e487b7160e01b5f52601160045260245ffd5b92915050565b634e487b7160e01b5f52603160045260245ffdfea2646970667358221220c470be4ecfaef7568dc7e3f94624ccea62dee37fdb5915db055e05cf7a1844b364736f6c63430008180033",
      "linkReferences": {}
   },
   "methodIdentifiers": {
      "authorizeUser(address,address)": "34436ce5",
      "compareStrings(string,string)": "bed34bba",
      "createCustomer(address,string)": "9b9f34c4",
      "createDevice(address,string,string)": "2924d4ee",
      "createDevices(address,string[],string)": "cc1ed9e3",
      "customers(uint256)": "c0abda2a",
      "devices(uint256)": "10ff8e31",
      "getCustomers()": "f1ba7127",
      "getDeviceByIndex(uint256)": "e1f653b1",
      "getDeviceBySn(string)": "9b1fa7a8",
      "getDevices()": "d611d6c8",
      "getDevicesOfCustomer(address)": "40bbcc3e",
      "getDevicesUnderCustomer(address)": "d7c80d89",
      "owner()": "8da5cb5b",
      "removeUserFromCustomer(address,address)": "eb3599d2",
      "renounceOwnership()": "715018a6",
      "setDeviceCustomer(address,address)": "645ae3b3",
      "setDeviceMetadataUri(string,address)": "d6eb463e",
      "setDeviceState(uint8,address)": "474ba1a5",
      "transferOwnership(address)": "f2fde38b"
   },
   "id": 22
}