{
   "abi": [
      {
         "type": "constructor",
         "inputs": [],
         "stateMutability": "nonpayable"
      },
      {
         "type": "function",
         "name": "authorizeUser",
         "inputs": [
            {
               "name": "customer",
               "type": "address",
               "internalType": "contract Customer"
            },
            {
               "name": "user",
               "type": "address",
               "internalType": "address"
            }
         ],
         "outputs": [],
         "stateMutability": "nonpayable"
      },
      {
         "type": "function",
         "name": "compareStrings",
         "inputs": [
            {
               "name": "a",
               "type": "string",
               "internalType": "string"
            },
            {
               "name": "b",
               "type": "string",
               "internalType": "string"
            }
         ],
         "outputs": [
            {
               "name": "",
               "type": "bool",
               "internalType": "bool"
            }
         ],
         "stateMutability": "pure"
      },
      {
         "type": "function",
         "name": "createCustomer",
         "inputs": [
            {
               "name": "parent",
               "type": "address",
               "internalType": "contract Customer"
            },
            {
               "name": "_name",
               "type": "string",
               "internalType": "string"
            },
            {
               "name": "_deviceMetadata",
               "type": "string",
               "internalType": "string"
            }
         ],
         "outputs": [
            {
               "name": "newCustomer",
               "type": "address",
               "internalType": "contract Customer"
            }
         ],
         "stateMutability": "nonpayable"
      },
      {
         "type": "function",
         "name": "createDevice",
         "inputs": [
            {
               "name": "customer",
               "type": "address",
               "internalType": "contract Customer"
            },
            {
               "name": "sn",
               "type": "string",
               "internalType": "string"
            },
            {
               "name": "metadata",
               "type": "string",
               "internalType": "string"
            },
            {
               "name": "initialState",
               "type": "uint8",
               "internalType": "enum Device.DeviceState"
            }
         ],
         "outputs": [
            {
               "name": "newDevice",
               "type": "address",
               "internalType": "contract Device"
            }
         ],
         "stateMutability": "nonpayable"
      },
      {
         "type": "function",
         "name": "createDevices",
         "inputs": [
            {
               "name": "customer",
               "type": "address",
               "internalType": "contract Customer"
            },
            {
               "name": "sns",
               "type": "string[]",
               "internalType": "string[]"
            },
            {
               "name": "metadata",
               "type": "string",
               "internalType": "string"
            }
         ],
         "outputs": [
            {
               "name": "newDevices",
               "type": "address[]",
               "internalType": "contract Device[]"
            }
         ],
         "stateMutability": "nonpayable"
      },
      {
         "type": "function",
         "name": "customers",
         "inputs": [
            {
               "name": "",
               "type": "uint256",
               "internalType": "uint256"
            }
         ],
         "outputs": [
            {
               "name": "",
               "type": "address",
               "internalType": "contract Customer"
            }
         ],
         "stateMutability": "view"
      },
      {
         "type": "function",
         "name": "devices",
         "inputs": [
            {
               "name": "",
               "type": "uint256",
               "internalType": "uint256"
            }
         ],
         "outputs": [
            {
               "name": "",
               "type": "address",
               "internalType": "contract Device"
            }
         ],
         "stateMutability": "view"
      },
      {
         "type": "function",
         "name": "getCustomers",
         "inputs": [],
         "outputs": [
            {
               "name": "",
               "type": "address[]",
               "internalType": "contract Customer[]"
            }
         ],
         "stateMutability": "view"
      },
      {
         "type": "function",
         "name": "getDeviceByIndex",
         "inputs": [
            {
               "name": "index",
               "type": "uint256",
               "internalType": "uint256"
            }
         ],
         "outputs": [
            {
               "name": "device",
               "type": "address",
               "internalType": "contract Device"
            }
         ],
         "stateMutability": "view"
      },
      {
         "type": "function",
         "name": "getDeviceBySn",
         "inputs": [
            {
               "name": "sn",
               "type": "string",
               "internalType": "string"
            }
         ],
         "outputs": [
            {
               "name": "device",
               "type": "address",
               "internalType": "contract Device"
            }
         ],
         "stateMutability": "view"
      },
      {
         "type": "function",
         "name": "getDevices",
         "inputs": [],
         "outputs": [
            {
               "name": "",
               "type": "address[]",
               "internalType": "contract Device[]"
            }
         ],
         "stateMutability": "view"
      },
      {
         "type": "function",
         "name": "getDevicesOfCustomer",
         "inputs": [
            {
               "name": "customer",
               "type": "address",
               "internalType": "contract Customer"
            }
         ],
         "outputs": [
            {
               "name": "",
               "type": "address[]",
               "internalType": "contract Device[]"
            }
         ],
         "stateMutability": "view"
      },
      {
         "type": "function",
         "name": "getDevicesUnderCustomer",
         "inputs": [
            {
               "name": "customer",
               "type": "address",
               "internalType": "contract Customer"
            }
         ],
         "outputs": [
            {
               "name": "",
               "type": "address[]",
               "internalType": "contract Device[]"
            }
         ],
         "stateMutability": "view"
      },
      {
         "type": "function",
         "name": "owner",
         "inputs": [],
         "outputs": [
            {
               "name": "",
               "type": "address",
               "internalType": "address"
            }
         ],
         "stateMutability": "view"
      },
      {
         "type": "function",
         "name": "removeUserFromCustomer",
         "inputs": [
            {
               "name": "customer",
               "type": "address",
               "internalType": "contract Customer"
            },
            {
               "name": "user",
               "type": "address",
               "internalType": "address"
            }
         ],
         "outputs": [],
         "stateMutability": "nonpayable"
      },
      {
         "type": "function",
         "name": "renounceOwnership",
         "inputs": [],
         "outputs": [],
         "stateMutability": "nonpayable"
      },
      {
         "type": "function",
         "name": "setCustomerDeviceMetadata",
         "inputs": [
            {
               "name": "newDeviceMetadata",
               "type": "string",
               "internalType": "string"
            },
            {
               "name": "customer",
               "type": "address",
               "internalType": "contract Customer"
            }
         ],
         "outputs": [],
         "stateMutability": "nonpayable"
      },
      {
         "type": "function",
         "name": "setCustomerName",
         "inputs": [
            {
               "name": "newName",
               "type": "string",
               "internalType": "string"
            },
            {
               "name": "customer",
               "type": "address",
               "internalType": "contract Customer"
            }
         ],
         "outputs": [],
         "stateMutability": "nonpayable"
      },
      {
         "type": "function",
         "name": "setDeviceCustomer",
         "inputs": [
            {
               "name": "customer",
               "type": "address",
               "internalType": "contract Customer"
            },
            {
               "name": "device",
               "type": "address",
               "internalType": "contract Device"
            }
         ],
         "outputs": [],
         "stateMutability": "nonpayable"
      },
      {
         "type": "function",
         "name": "setDeviceMetadataUri",
         "inputs": [
            {
               "name": "newUri",
               "type": "string",
               "internalType": "string"
            },
            {
               "name": "device",
               "type": "address",
               "internalType": "contract Device"
            }
         ],
         "outputs": [],
         "stateMutability": "nonpayable"
      },
      {
         "type": "function",
         "name": "setDeviceState",
         "inputs": [
            {
               "name": "newState",
               "type": "uint8",
               "internalType": "enum Device.DeviceState"
            },
            {
               "name": "device",
               "type": "address",
               "internalType": "contract Device"
            }
         ],
         "outputs": [],
         "stateMutability": "nonpayable"
      },
      {
         "type": "function",
         "name": "toggleDeviceVisible",
         "inputs": [
            {
               "name": "device",
               "type": "address",
               "internalType": "contract Device"
            }
         ],
         "outputs": [],
         "stateMutability": "nonpayable"
      },
      {
         "type": "function",
         "name": "transferOwnership",
         "inputs": [
            {
               "name": "newOwner",
               "type": "address",
               "internalType": "address"
            }
         ],
         "outputs": [],
         "stateMutability": "nonpayable"
      },
      {
         "type": "event",
         "name": "CustomerCreated",
         "inputs": [
            {
               "name": "customerAddress",
               "type": "address",
               "indexed": false,
               "internalType": "address"
            },
            {
               "name": "parent",
               "type": "address",
               "indexed": false,
               "internalType": "address"
            }
         ],
         "anonymous": false
      },
      {
         "type": "event",
         "name": "DeviceAssigned",
         "inputs": [
            {
               "name": "customer",
               "type": "address",
               "indexed": false,
               "internalType": "address"
            },
            {
               "name": "device",
               "type": "address",
               "indexed": false,
               "internalType": "address"
            }
         ],
         "anonymous": false
      },
      {
         "type": "event",
         "name": "DeviceCreated",
         "inputs": [
            {
               "name": "customer",
               "type": "address",
               "indexed": false,
               "internalType": "address"
            },
            {
               "name": "deviceAddress",
               "type": "address",
               "indexed": false,
               "internalType": "address"
            },
            {
               "name": "sn",
               "type": "string",
               "indexed": false,
               "internalType": "string"
            }
         ],
         "anonymous": false
      },
      {
         "type": "event",
         "name": "OwnershipTransferred",
         "inputs": [
            {
               "name": "previousOwner",
               "type": "address",
               "indexed": true,
               "internalType": "address"
            },
            {
               "name": "newOwner",
               "type": "address",
               "indexed": true,
               "internalType": "address"
            }
         ],
         "anonymous": false
      },
      {
         "type": "error",
         "name": "OwnableInvalidOwner",
         "inputs": [
            {
               "name": "owner",
               "type": "address",
               "internalType": "address"
            }
         ]
      },
      {
         "type": "error",
         "name": "OwnableUnauthorizedAccount",
         "inputs": [
            {
               "name": "account",
               "type": "address",
               "internalType": "address"
            }
         ]
      }
   ],
   "bytecode": {
      "object": "0x608060405234801562000010575f80fd5b5033806200003757604051631e4fbdf760e01b81525f600482015260240160405180910390fd5b620000428162000105565b505f8033604051620000549062000154565b6001600160a01b0392831681529116602082015260806040820181905260049082015263149bdbdd60e21b60a082015260c0606082018190525f9082015260e001604051809103905ff080158015620000af573d5f803e3d5ffd5b506001805480820182555f919091527fb10e2d527612073b26eecdfd717e6a320cf44b4afac2b0732d9fcbe2b7fa0cf60180546001600160a01b0319166001600160a01b03929092169190911790555062000162565b5f80546001600160a01b038381166001600160a01b0319831681178455604051919092169283917f8be0079c531659141344cd1fd0a4f28419497f9722a3daafe3b4186f6b6457e09190a35050565b6111a9806200417183390190565b61400180620001705f395ff3fe608060405234801562000010575f80fd5b506004361062000164575f3560e01c80639b1fa7a811620000cf578063d6eb463e1162000083578063d6eb463e146200030e578063d7c80d891462000325578063e1f653b1146200033c578063eb3599d21462000353578063f1ba7127146200036a578063f2fde38b1462000374575f80fd5b80639b1fa7a81462000280578063a8a6aa901462000297578063bed34bba14620002ae578063c0abda2a14620002d6578063cc1ed9e314620002ed578063d611d6c81462000304575f80fd5b8063645ae3b31162000127578063645ae3b31462000209578063715018a6146200022057806379221d08146200022a5780637a277af214620002415780638559040514620002585780638da5cb5b146200026f575f80fd5b806310ff8e31146200016857806334436ce5146200019c57806340bbcc3e14620001b55780634516092514620001db578063474ba1a514620001f2575b5f80fd5b6200017f62000179366004620018a8565b6200038b565b6040516001600160a01b0390911681526020015b60405180910390f35b620001b3620001ad366004620018d5565b620003b4565b005b620001cc620001c636600462001911565b62000454565b60405162000193919062001936565b6200017f620001ec366004620019df565b62000639565b620001b36200020336600462001a75565b6200075b565b620001b36200021a366004620018d5565b6200084b565b620001b362000987565b6200017f6200023b36600462001b5a565b6200099e565b620001b36200025236600462001bd3565b62000b00565b620001b36200026936600462001911565b62000b5a565b5f546001600160a01b03166200017f565b6200017f6200029136600462001c1c565b62000c3c565b620001b3620002a836600462001bd3565b62000d5f565b620002c5620002bf36600462001c5e565b62000db9565b604051901515815260200162000193565b6200017f620002e7366004620018a8565b62000e15565b620001cc620002fe36600462001cc4565b62000e25565b620001cc62000f2c565b620001b36200031f36600462001d78565b62000f8e565b620001cc6200033636600462001911565b6200104c565b6200017f6200034d366004620018a8565b620011bc565b620001b362000364366004620018d5565b620011ed565b620001cc62001254565b620001b36200038536600462001911565b620012b4565b600281815481106200039b575f80fd5b5f918252602090912001546001600160a01b0316905081565b81620003c081620012f7565b82620003cd3382620013cd565b620003f55760405162461bcd60e51b8152600401620003ec9062001dd0565b60405180910390fd5b60405163033e151b60e51b81526001600160a01b0384811660048301528516906367c2a360906024015b5f604051808303815f87803b15801562000437575f80fd5b505af11580156200044a573d5f803e3d5ffd5b5050505050505050565b6002546060905f906001600160401b0381111562000476576200047662001a92565b604051908082528060200260200182016040528015620004a0578160200160208202803683370190505b5090505f805b6002548110156200058857846001600160a01b0316620004c682620011bc565b6001600160a01b0316632804b2c06040518163ffffffff1660e01b8152600401602060405180830381865afa15801562000502573d5f803e3d5ffd5b505050506040513d601f19601f8201168201806040525081019062000528919062001e00565b6001600160a01b0316036200057f576200054281620011bc565b83838151811062000557576200055762001e1e565b6001600160a01b0390921660209283029190910190910152816200057b8162001e46565b9250505b600101620004a6565b505f816001600160401b03811115620005a557620005a562001a92565b604051908082528060200260200182016040528015620005cf578160200160208202803683370190505b5090505f5b828110156200063057838181518110620005f257620005f262001e1e565b60200260200101518282815181106200060f576200060f62001e1e565b6001600160a01b0390921660209283029190910190910152600101620005d4565b50949350505050565b5f866200064681620012f7565b8686620006548282620015b8565b89620006613382620013cd565b620006805760405162461bcd60e51b8152600401620003ec9062001dd0565b8a8a8a8a8a8a60405162000694906200188c565b620006a59695949392919062001eaa565b604051809103905ff080158015620006bf573d5f803e3d5ffd5b50600280546001810182555f919091527f405787fa12a823e0f2b7631cc41b3ba8828b3321ca811111fa75cd3aa3bb5ace0180546001600160a01b0319166001600160a01b0383161790556040519095507f8ae62abfaf1a8a2062b143252dc200ce0c832a887b9378af263e30910d1090969062000745908d9088908e908e9062001f02565b60405180910390a1505050509695505050505050565b806001600160a01b0316632804b2c06040518163ffffffff1660e01b8152600401602060405180830381865afa15801562000798573d5f803e3d5ffd5b505050506040513d601f19601f82011682018060405250810190620007be919062001e00565b620007ca3382620013cd565b620007e95760405162461bcd60e51b8152600401620003ec9062001dd0565b6040516356de96db60e01b81526001600160a01b038316906356de96db906200081790869060040162001f3a565b5f604051808303815f87803b1580156200082f575f80fd5b505af115801562000842573d5f803e3d5ffd5b50505050505050565b806001600160a01b0316632804b2c06040518163ffffffff1660e01b8152600401602060405180830381865afa15801562000888573d5f803e3d5ffd5b505050506040513d601f19601f82011682018060405250810190620008ae919062001e00565b620008ba3382620013cd565b620008d95760405162461bcd60e51b8152600401620003ec9062001dd0565b82620008e581620012f7565b60405163620c0c4b60e01b81526001600160a01b03858116600483015284169063620c0c4b906024015f604051808303815f87803b15801562000926575f80fd5b505af115801562000939573d5f803e3d5ffd5b5050604080516001600160a01b038089168252871660208201527f6589dc94843e0a8aa870e5c8bcf2fdd91ed0e0a26442e17e4f098db6b6bc2bfe935001905060405180910390a150505050565b62000991620016df565b6200099c5f6200170d565b565b5f83620009ab81620012f7565b84620009b83382620013cd565b620009d75760405162461bcd60e51b8152600401620003ec9062001dd0565b85338686604051620009e9906200189a565b620009f8949392919062001f9b565b604051809103905ff08015801562000a12573d5f803e3d5ffd5b506001805480820182555f919091527fb10e2d527612073b26eecdfd717e6a320cf44b4afac2b0732d9fcbe2b7fa0cf60180546001600160a01b0319166001600160a01b03838116918217909255604051630f774c9d60e11b81526004810191909152919450871690631eee993a906024015f604051808303815f87803b15801562000a9c575f80fd5b505af115801562000aaf573d5f803e3d5ffd5b5050604080516001600160a01b0380881682528a1660208201527f85f6e79cf83af1b4acc033f88391b65cf5441b4553e1fe67dda9b9784a839d5f935001905060405180910390a150509392505050565b8062000b0d3382620013cd565b62000b2c5760405162461bcd60e51b8152600401620003ec9062001dd0565b60405163051ff0ad60e51b81526001600160a01b0383169063a3fe15a0906200081790869060040162001fdc565b806001600160a01b0316632804b2c06040518163ffffffff1660e01b8152600401602060405180830381865afa15801562000b97573d5f803e3d5ffd5b505050506040513d601f19601f8201168201806040525081019062000bbd919062001e00565b62000bc93382620013cd565b62000be85760405162461bcd60e51b8152600401620003ec9062001dd0565b816001600160a01b0316635b344c746040518163ffffffff1660e01b81526004015f604051808303815f87803b15801562000c21575f80fd5b505af115801562000c34573d5f803e3d5ffd5b505050505050565b5f805b60025481101562000d1c5762000cf962000c5982620011bc565b6001600160a01b031663f872bec06040518163ffffffff1660e01b81526004015f60405180830381865afa15801562000c94573d5f803e3d5ffd5b505050506040513d5f823e601f3d908101601f1916820160405262000cbd919081019062001ff0565b85858080601f0160208091040260200160405190810160405280939291908181526020018383808284375f9201919091525062000db992505050565b1562000d135762000d0a81620011bc565b91505062000d59565b60010162000c3f565b5060405162461bcd60e51b815260206004820152601060248201526f11195d9a58d9481b9bdd08199bdd5b9960821b6044820152606401620003ec565b92915050565b8062000d6c3382620013cd565b62000d8b5760405162461bcd60e51b8152600401620003ec9062001dd0565b60405163c47f002760e01b81526001600160a01b0383169063c47f0027906200081790869060040162001fdc565b5f8160405160200162000dcd91906200206a565b604051602081830303815290604052805190602001208360405160200162000df691906200206a565b6040516020818303038152906040528051906020012014905092915050565b600181815481106200039b575f80fd5b60608562000e3381620012f7565b8662000e403382620013cd565b62000e5f5760405162461bcd60e51b8152600401620003ec9062001dd0565b856001600160401b0381111562000e7a5762000e7a62001a92565b60405190808252806020026020018201604052801562000ea4578160200160208202803683370190505b5092505f5b8681101562000f205762000eea8989898481811062000ecc5762000ecc62001e1e565b905060200281019062000ee0919062002087565b8989600162000639565b84828151811062000eff5762000eff62001e1e565b6001600160a01b039092166020928302919091019091015260010162000ea9565b50505095945050505050565b6060600280548060200260200160405190810160405280929190818152602001828054801562000f8457602002820191905f5260205f20905b81546001600160a01b0316815260019091019060200180831162000f65575b5050505050905090565b806001600160a01b0316632804b2c06040518163ffffffff1660e01b8152600401602060405180830381865afa15801562000fcb573d5f803e3d5ffd5b505050506040513d601f19601f8201168201806040525081019062000ff1919062001e00565b62000ffd3382620013cd565b6200101c5760405162461bcd60e51b8152600401620003ec9062001dd0565b60405163044c18c360e21b81526001600160a01b03831690631130630c906200041f9087908790600401620020cc565b6060816200105a81620012f7565b5f836001600160a01b0316634892e8e86040518163ffffffff1660e01b81526004015f60405180830381865afa15801562001097573d5f803e3d5ffd5b505050506040513d5f823e601f3d908101601f19168201604052620010c09190810190620020e9565b519050805f03620010df57620010d68462000454565b925050620011b6565b60605f620010ed8662000454565b9050620010fb82826200175c565b91505f866001600160a01b0316634892e8e86040518163ffffffff1660e01b81526004015f60405180830381865afa1580156200113a573d5f803e3d5ffd5b505050506040513d5f823e601f3d908101601f19168201604052620011639190810190620020e9565b90505f5b8151811015620011ae57620011a3846200119d8484815181106200118f576200118f62001e1e565b60200260200101516200104c565b6200175c565b935060010162001167565b509194505050505b50919050565b5f60028281548110620011d357620011d362001e1e565b5f918252602090912001546001600160a01b031692915050565b81620011f981620012f7565b82620012063382620013cd565b620012255760405162461bcd60e51b8152600401620003ec9062001dd0565b604051633bc25ff160e21b81526001600160a01b03848116600483015285169063ef097fc4906024016200041f565b6060600180548060200260200160405190810160405280929190818152602001828054801562000f8457602002820191905f5260205f209081546001600160a01b0316815260019091019060200180831162000f65575050505050905090565b620012be620016df565b6001600160a01b038116620012e957604051631e4fbdf760e01b81525f6004820152602401620003ec565b620012f4816200170d565b50565b6001600160a01b038116158015906200131957505f816001600160a01b03163b115b80156200138a5750806001600160a01b031663267c4ae46040518163ffffffff1660e01b8152600401602060405180830381865afa1580156200135e573d5f803e3d5ffd5b505050506040513d601f19601f82011682018060405250810190620013849190620021a2565b15156001145b620012f45760405162461bcd60e51b815260206004820152601260248201527110dd5cdd1bdb595c881b9bdd08199bdd5b9960721b6044820152606401620003ec565b5f815b5f6001600160a01b0316816001600160a01b03166360f96a8f6040518163ffffffff1660e01b8152600401602060405180830381865afa15801562001417573d5f803e3d5ffd5b505050506040513d601f19601f820116820180604052508101906200143d919062001e00565b6001600160a01b031614620015335760405163760bf09d60e11b81526001600160a01b03858116600483015282169063ec17e13a90602401602060405180830381865afa15801562001491573d5f803e3d5ffd5b505050506040513d601f19601f82011682018060405250810190620014b79190620021a2565b15620014c857600191505062000d59565b806001600160a01b03166360f96a8f6040518163ffffffff1660e01b8152600401602060405180830381865afa15801562001505573d5f803e3d5ffd5b505050506040513d601f19601f820116820180604052508101906200152b919062001e00565b9050620013d0565b60405163760bf09d60e11b81526001600160a01b03858116600483015282169063ec17e13a90602401602060405180830381865afa15801562001578573d5f803e3d5ffd5b505050506040513d601f19601f820116820180604052508101906200159e9190620021a2565b15620015af57600191505062000d59565b505f9392505050565b5f5b600254811015620016da576200168e60028281548110620015df57620015df62001e1e565b5f918252602082200154604080516303e1cafb60e61b815290516001600160a01b039092169263f872bec0926004808401938290030181865afa15801562001629573d5f803e3d5ffd5b505050506040513d5f823e601f3d908101601f1916820160405262001652919081019062001ff0565b84848080601f0160208091040260200160405190810160405280939291908181526020018383808284375f9201919091525062000db992505050565b15620016d15760405162461bcd60e51b8152602060048201526011602482015270534e206d75737420626520756e6971756560781b6044820152606401620003ec565b600101620015ba565b505050565b5f546001600160a01b031633146200099c5760405163118cdaa760e01b8152336004820152602401620003ec565b5f80546001600160a01b038381166001600160a01b0319831681178455604051919092169283917f8be0079c531659141344cd1fd0a4f28419497f9722a3daafe3b4186f6b6457e09190a35050565b81518151606091905f620017718284620021c3565b6001600160401b038111156200178b576200178b62001a92565b604051908082528060200260200182016040528015620017b5578160200160208202803683370190505b5090505f5b838110156200181657868181518110620017d857620017d862001e1e565b6020026020010151828281518110620017f557620017f562001e1e565b6001600160a01b0390921660209283029190910190910152600101620017ba565b505f5b82811015620018825785818151811062001837576200183762001e1e565b60200260200101518282866200184e9190620021c3565b8151811062001861576200186162001e1e565b6001600160a01b039092166020928302919091019091015260010162001819565b5095945050505050565b610c4980620021da83390190565b6111a98062002e2383390190565b5f60208284031215620018b9575f80fd5b5035919050565b6001600160a01b0381168114620012f4575f80fd5b5f8060408385031215620018e7575f80fd5b8235620018f481620018c0565b915060208301356200190681620018c0565b809150509250929050565b5f6020828403121562001922575f80fd5b81356200192f81620018c0565b9392505050565b602080825282518282018190525f9190848201906040850190845b81811015620019785783516001600160a01b03168352928401929184019160010162001951565b50909695505050505050565b5f8083601f84011262001995575f80fd5b5081356001600160401b03811115620019ac575f80fd5b602083019150836020828501011115620019c4575f80fd5b9250929050565b803560038110620019da575f80fd5b919050565b5f805f805f8060808789031215620019f5575f80fd5b863562001a0281620018c0565b955060208701356001600160401b038082111562001a1e575f80fd5b62001a2c8a838b0162001984565b9097509550604089013591508082111562001a45575f80fd5b5062001a5489828a0162001984565b909450925062001a69905060608801620019cb565b90509295509295509295565b5f806040838503121562001a87575f80fd5b620018f483620019cb565b634e487b7160e01b5f52604160045260245ffd5b604051601f8201601f191681016001600160401b038111828210171562001ad15762001ad162001a92565b604052919050565b5f6001600160401b0382111562001af45762001af462001a92565b50601f01601f191660200190565b5f82601f83011262001b12575f80fd5b813562001b2962001b238262001ad9565b62001aa6565b81815284602083860101111562001b3e575f80fd5b816020850160208301375f918101602001919091529392505050565b5f805f6060848603121562001b6d575f80fd5b833562001b7a81620018c0565b925060208401356001600160401b038082111562001b96575f80fd5b62001ba48783880162001b02565b9350604086013591508082111562001bba575f80fd5b5062001bc98682870162001b02565b9150509250925092565b5f806040838503121562001be5575f80fd5b82356001600160401b0381111562001bfb575f80fd5b62001c098582860162001b02565b92505060208301356200190681620018c0565b5f806020838503121562001c2e575f80fd5b82356001600160401b0381111562001c44575f80fd5b62001c528582860162001984565b90969095509350505050565b5f806040838503121562001c70575f80fd5b82356001600160401b038082111562001c87575f80fd5b62001c958683870162001b02565b9350602085013591508082111562001cab575f80fd5b5062001cba8582860162001b02565b9150509250929050565b5f805f805f6060868803121562001cd9575f80fd5b853562001ce681620018c0565b945060208601356001600160401b038082111562001d02575f80fd5b818801915088601f83011262001d16575f80fd5b81358181111562001d25575f80fd5b8960208260051b850101111562001d3a575f80fd5b60208301965080955050604088013591508082111562001d58575f80fd5b5062001d678882890162001984565b969995985093965092949392505050565b5f805f6040848603121562001d8b575f80fd5b83356001600160401b0381111562001da1575f80fd5b62001daf8682870162001984565b909450925050602084013562001dc581620018c0565b809150509250925092565b6020808252601690820152752ab730baba3437b934bd32b21037b832b930ba34b7b760511b604082015260600190565b5f6020828403121562001e11575f80fd5b81516200192f81620018c0565b634e487b7160e01b5f52603260045260245ffd5b634e487b7160e01b5f52601160045260245ffd5b5f6001820162001e5a5762001e5a62001e32565b5060010190565b81835281816020850137505f828201602090810191909152601f909101601f19169091010190565b6003811062001ea657634e487b7160e01b5f52602160045260245ffd5b9052565b6001600160a01b03871681526080602082018190525f9062001ed0908301878962001e61565b828103604084015262001ee581868862001e61565b91505062001ef7606083018462001e89565b979650505050505050565b6001600160a01b038581168252841660208201526060604082018190525f9062001f30908301848662001e61565b9695505050505050565b6020810162000d59828462001e89565b5f5b8381101562001f6657818101518382015260200162001f4c565b50505f910152565b5f815180845262001f8781602086016020860162001f4a565b601f01601f19169290920160200192915050565b6001600160a01b038581168252841660208201526080604082018190525f9062001fc89083018562001f6e565b828103606084015262001ef7818562001f6e565b602081525f6200192f602083018462001f6e565b5f6020828403121562002001575f80fd5b81516001600160401b0381111562002017575f80fd5b8201601f8101841362002028575f80fd5b80516200203962001b238262001ad9565b8181528560208385010111156200204e575f80fd5b6200206182602083016020860162001f4a565b95945050505050565b5f82516200207d81846020870162001f4a565b9190910192915050565b5f808335601e198436030181126200209d575f80fd5b8301803591506001600160401b03821115620020b7575f80fd5b602001915036819003821315620019c4575f80fd5b602081525f620020e160208301848662001e61565b949350505050565b5f6020808385031215620020fb575f80fd5b82516001600160401b038082111562002112575f80fd5b818501915085601f83011262002126575f80fd5b8151818111156200213b576200213b62001a92565b8060051b91506200214e84830162001aa6565b818152918301840191848101908884111562002168575f80fd5b938501935b838510156200219657845192506200218583620018c0565b82825293850193908501906200216d565b98975050505050505050565b5f60208284031215620021b3575f80fd5b815180151581146200192f575f80fd5b8082018082111562000d595762000d5962001e3256fe608060405234801562000010575f80fd5b5060405162000c4938038062000c498339810160408190526200003391620001ed565b33806200005957604051631e4fbdf760e01b81525f600482015260240160405180910390fd5b6200006481620000dd565b50600180546001600160a01b0319166001600160a01b03861617905560026200008e848262000312565b506003805482919060ff19166001836002811115620000b157620000b1620003de565b02179055506004620000c4838262000312565b50506005805460ff1916600117905550620003f2915050565b5f80546001600160a01b038381166001600160a01b0319831681178455604051919092169283917f8be0079c531659141344cd1fd0a4f28419497f9722a3daafe3b4186f6b6457e09190a35050565b634e487b7160e01b5f52604160045260245ffd5b5f82601f83011262000150575f80fd5b81516001600160401b03808211156200016d576200016d6200012c565b604051601f8301601f19908116603f011681019082821181831017156200019857620001986200012c565b8160405283815260209250866020858801011115620001b5575f80fd5b5f91505b83821015620001d85785820183015181830184015290820190620001b9565b5f602085830101528094505050505092915050565b5f805f806080858703121562000201575f80fd5b84516001600160a01b038116811462000218575f80fd5b60208601519094506001600160401b038082111562000235575f80fd5b620002438883890162000140565b9450604087015191508082111562000259575f80fd5b50620002688782880162000140565b9250506060850151600381106200027d575f80fd5b939692955090935050565b600181811c908216806200029d57607f821691505b602082108103620002bc57634e487b7160e01b5f52602260045260245ffd5b50919050565b601f8211156200030d57805f5260205f20601f840160051c81016020851015620002e95750805b601f840160051c820191505b818110156200030a575f8155600101620002f5565b50505b505050565b81516001600160401b038111156200032e576200032e6200012c565b62000346816200033f845462000288565b84620002c2565b602080601f8311600181146200037c575f8415620003645750858301515b5f19600386901b1c1916600185901b178555620003d6565b5f85815260208120601f198616915b82811015620003ac578886015182559484019460019091019084016200038b565b5085821015620003ca57878501515f19600388901b60f8161c191681555b505060018460011b0185555b505050505050565b634e487b7160e01b5f52602160045260245ffd5b61084980620004005f395ff3fe608060405234801561000f575f80fd5b50600436106100b1575f3560e01c8063715018a61161006e578063715018a61461013d5780638da5cb5b14610145578063a34bbe6614610155578063af6a6d791461016f578063f2fde38b1461018c578063f872bec01461019f575f80fd5b80631130630c146100b55780632804b2c0146100ca578063392f37e9146100fa57806356de96db1461010f5780635b344c7414610122578063620c0c4b1461012a575b5f80fd5b6100c86100c336600461048c565b6101a7565b005b6001546100dd906001600160a01b031681565b6040516001600160a01b0390911681526020015b60405180910390f35b6101026101f5565b6040516100f191906104f8565b6100c861011d366004610544565b610281565b6100c86102f1565b6100c861013836600461057d565b61033e565b6100c86103af565b5f546001600160a01b03166100dd565b6003546101629060ff1681565b6040516100f191906105cc565b60055461017c9060ff1681565b60405190151581526020016100f1565b6100c861019a36600461057d565b6103c2565b610102610404565b7ff794b32488eb5712dd5a2640efa2ebc0234c4b77fe6f3a290b3402e7b03abc48600483836040516101db93929190610640565b60405180910390a160046101f082848361073e565b505050565b60048054610202906105e0565b80601f016020809104026020016040519081016040528092919081815260200182805461022e906105e0565b80156102795780601f1061025057610100808354040283529160200191610279565b820191905f5260205f20905b81548152906001019060200180831161025c57829003601f168201915b505050505081565b610289610411565b6003546040517fe8a97ea87e4388fa22d496b95a8ed5ced6717f49790318de2b928aaf37a021d8916102c29160ff9091169084906107f8565b60405180910390a16003805482919060ff191660018360028111156102e9576102e9610598565b021790555050565b6005805460ff8082161560ff1990921682179092556040519116151581527f7f291f75b82672cc6f1d9ae48e6cc17849327ce27523fc65d23c9a8208a8c0a19060200160405180910390a1565b610346610411565b600154604080516001600160a01b03928316815291831660208301527f391847abdda0edb4f1e720f30e246be400e373ef6243bd03bd41fe7db6e74f55910160405180910390a1600180546001600160a01b0319166001600160a01b0392909216919091179055565b6103b7610411565b6103c05f61043d565b565b6103ca610411565b6001600160a01b0381166103f857604051631e4fbdf760e01b81525f60048201526024015b60405180910390fd5b6104018161043d565b50565b60028054610202906105e0565b5f546001600160a01b031633146103c05760405163118cdaa760e01b81523360048201526024016103ef565b5f80546001600160a01b038381166001600160a01b0319831681178455604051919092169283917f8be0079c531659141344cd1fd0a4f28419497f9722a3daafe3b4186f6b6457e09190a35050565b5f806020838503121561049d575f80fd5b823567ffffffffffffffff808211156104b4575f80fd5b818501915085601f8301126104c7575f80fd5b8135818111156104d5575f80fd5b8660208285010111156104e6575f80fd5b60209290920196919550909350505050565b5f602080835283518060208501525f5b8181101561052457858101830151858201604001528201610508565b505f604082860101526040601f19601f8301168501019250505092915050565b5f60208284031215610554575f80fd5b813560038110610562575f80fd5b9392505050565b6001600160a01b0381168114610401575f80fd5b5f6020828403121561058d575f80fd5b813561056281610569565b634e487b7160e01b5f52602160045260245ffd5b600381106105c857634e487b7160e01b5f52602160045260245ffd5b9052565b602081016105da82846105ac565b92915050565b600181811c908216806105f457607f821691505b60208210810361061257634e487b7160e01b5f52602260045260245ffd5b50919050565b81835281816020850137505f828201602090810191909152601f909101601f19169091010190565b604081525f808554610651816105e0565b806040860152606060018084165f8114610672576001811461068e576106bd565b60ff1985166060890152606084151560051b89010195506106bd565b8a5f526020805f205f5b868110156106b35781548b8201870152908401908201610698565b8a01606001975050505b505050505082810360208401526106d5818587610618565b9695505050505050565b634e487b7160e01b5f52604160045260245ffd5b601f8211156101f057805f5260205f20601f840160051c810160208510156107185750805b601f840160051c820191505b81811015610737575f8155600101610724565b5050505050565b67ffffffffffffffff831115610756576107566106df565b61076a8361076483546105e0565b836106f3565b5f601f84116001811461079b575f85156107845750838201355b5f19600387901b1c1916600186901b178355610737565b5f83815260208120601f198716915b828110156107ca57868501358255602094850194600190920191016107aa565b50868210156107e6575f1960f88860031b161c19848701351681555b505060018560011b0183555050505050565b6040810161080682856105ac565b61056260208301846105ac56fea264697066735822122011003ad016c534d01a981be91aa92a0cf9078b3c30ba0b5abc0ca80965ce4c1b64736f6c63430008180033608060405234801562000010575f80fd5b50604051620011a9380380620011a9833981016040819052620000339162000259565b33806200005957604051631e4fbdf760e01b81525f600482015260240160405180910390fd5b620000648162000131565b50600180546001600160a01b038087166001600160a01b03199283161783556004805460ff1916841790556003805493840181555f527fc2575a0e9e593c00f959f8c92f12db2869c3395a3b0502d05e2516446f71f85b9092018054928616929091169190911790556005620000db838262000373565b506006620000ea828262000373565b506040516001600160a01b03841681527f19ef9a4877199f89440a26acb26895ec02ed86f2df1aeaa90dc18041b892f71f9060200160405180910390a1505050506200043f565b5f80546001600160a01b038381166001600160a01b0319831681178455604051919092169283917f8be0079c531659141344cd1fd0a4f28419497f9722a3daafe3b4186f6b6457e09190a35050565b6001600160a01b038116811462000195575f80fd5b50565b634e487b7160e01b5f52604160045260245ffd5b5f82601f830112620001bc575f80fd5b81516001600160401b0380821115620001d957620001d962000198565b604051601f8301601f19908116603f0116810190828211818310171562000204576200020462000198565b816040528381526020925086602085880101111562000221575f80fd5b5f91505b8382101562000244578582018301518183018401529082019062000225565b5f602085830101528094505050505092915050565b5f805f80608085870312156200026d575f80fd5b84516200027a8162000180565b60208601519094506200028d8162000180565b60408601519093506001600160401b0380821115620002aa575f80fd5b620002b888838901620001ac565b93506060870151915080821115620002ce575f80fd5b50620002dd87828801620001ac565b91505092959194509250565b600181811c90821680620002fe57607f821691505b6020821081036200031d57634e487b7160e01b5f52602260045260245ffd5b50919050565b601f8211156200036e57805f5260205f20601f840160051c810160208510156200034a5750805b601f840160051c820191505b818110156200036b575f815560010162000356565b50505b505050565b81516001600160401b038111156200038f576200038f62000198565b620003a781620003a08454620002e9565b8462000323565b602080601f831160018114620003dd575f8415620003c55750858301515b5f19600386901b1c1916600185901b17855562000437565b5f85815260208120601f198616915b828110156200040d57888601518255948401946001909101908401620003ec565b50858210156200042b57878501515f19600388901b60f8161c191681555b505060018460011b0185555b505050505050565b610d5c806200044d5f395ff3fe608060405234801561000f575f80fd5b5060043610610111575f3560e01c806367c2a3601161009e578063c47f00271161006e578063c47f00271461025a578063d8e7d36a1461026d578063ec17e13a14610280578063ef097fc414610293578063f2fde38b146102a6575f80fd5b806367c2a3601461021c578063715018a61461022f5780638da5cb5b14610237578063a3fe15a014610247575f80fd5b8063267c4ae4116100e4578063267c4ae4146101d4578063390330f4146101f15780634892e8e8146101f95780634e5186f11461020157806360f96a8f14610209575f80fd5b806306fdde03146101155780631ba7214c146101335780631eee993a1461014857806325a10a70146101a9575b5f80fd5b61011d6102b9565b60405161012a9190610972565b60405180910390f35b61013b610345565b60405161012a91906109a4565b6101a7610156366004610a04565b600280546001810182555f919091527f405787fa12a823e0f2b7631cc41b3ba8828b3321ca811111fa75cd3aa3bb5ace0180546001600160a01b0319166001600160a01b0392909216919091179055565b005b6101bc6101b7366004610a04565b6103a5565b6040516001600160a01b03909116815260200161012a565b6004546101e19060ff1681565b604051901515815260200161012a565b61011d610459565b61013b61059d565b61011d6105fb565b6001546101bc906001600160a01b031681565b6101a761022a366004610a04565b610608565b6101a7610693565b5f546001600160a01b03166101bc565b6101a7610255366004610a92565b6106a6565b6101a7610268366004610a92565b6106be565b6101bc61027b366004610b0c565b6106d2565b6101e161028e366004610a04565b6106fa565b6101a76102a1366004610a04565b610756565b6101a76102b4366004610a04565b610898565b600580546102c690610b23565b80601f01602080910402602001604051908101604052809291908181526020018280546102f290610b23565b801561033d5780601f106103145761010080835404028352916020019161033d565b820191905f5260205f20905b81548152906001019060200180831161032057829003601f168201915b505050505081565b6060600380548060200260200160405190810160405280929190818152602001828054801561039b57602002820191905f5260205f20905b81546001600160a01b0316815260019091019060200180831161037d575b5050505050905090565b5f806103af61059d565b90505f5b815181101561041957836001600160a01b03168282815181106103d8576103d8610b5b565b60200260200101516001600160a01b0316036104115781818151811061040057610400610b5b565b602002602001015192505050919050565b6001016103b3565b5060405162461bcd60e51b815260206004820152600f60248201526e10da1a5b19081b9bdd08199bdd5b99608a1b60448201526064015b60405180910390fd5b60606006805461046890610b23565b159050801561048157506001546001600160a01b031615155b801561049857506001546001600160a01b03163b15155b156105185760015f9054906101000a90046001600160a01b03166001600160a01b031663390330f46040518163ffffffff1660e01b81526004015f60405180830381865afa1580156104ec573d5f803e3d5ffd5b505050506040513d5f823e601f3d908101601f191682016040526105139190810190610b6f565b905090565b6006805461052590610b23565b80601f016020809104026020016040519081016040528092919081815260200182805461055190610b23565b801561039b5780601f106105735761010080835404028352916020019161039b565b820191905f5260205f20905b81548152906001019060200180831161057f57509395945050505050565b6060600280548060200260200160405190810160405280929190818152602001828054801561039b57602002820191905f5260205f209081546001600160a01b0316815260019091019060200180831161037d575050505050905090565b600680546102c690610b23565b6106106108d5565b600380546001810182555f919091527fc2575a0e9e593c00f959f8c92f12db2869c3395a3b0502d05e2516446f71f85b0180546001600160a01b0319166001600160a01b0383169081179091556040519081527f19ef9a4877199f89440a26acb26895ec02ed86f2df1aeaa90dc18041b892f71f9060200160405180910390a150565b61069b6108d5565b6106a45f610901565b565b6106ae6108d5565b60066106ba8282610c2d565b5050565b6106c66108d5565b60056106ba8282610c2d565b600381815481106106e1575f80fd5b5f918252602090912001546001600160a01b0316905081565b5f805b60035481101561074e57826001600160a01b03166003828154811061072457610724610b5b565b5f918252602090912001546001600160a01b0316036107465750600192915050565b6001016106fd565b505f92915050565b61075e6108d5565b5f805b6003548110156107ad57826001600160a01b03166003828154811061078857610788610b5b565b5f918252602090912001546001600160a01b0316036107a5578091505b600101610761565b50600380546107be90600190610ced565b815481106107ce576107ce610b5b565b5f91825260209091200154600380546001600160a01b0390921691839081106107f9576107f9610b5b565b905f5260205f20015f6101000a8154816001600160a01b0302191690836001600160a01b03160217905550600380548061083557610835610d12565b5f8281526020908190205f19908301810180546001600160a01b03191690559091019091556040516001600160a01b03841681527fb43ac7bf01d16ebcb8c868a4c03fecb1f6984ea4fa1a52c116ef282b8dbb17c5910160405180910390a15050565b6108a06108d5565b6001600160a01b0381166108c957604051631e4fbdf760e01b81525f6004820152602401610450565b6108d281610901565b50565b5f546001600160a01b031633146106a45760405163118cdaa760e01b8152336004820152602401610450565b5f80546001600160a01b038381166001600160a01b0319831681178455604051919092169283917f8be0079c531659141344cd1fd0a4f28419497f9722a3daafe3b4186f6b6457e09190a35050565b5f5b8381101561096a578181015183820152602001610952565b50505f910152565b602081525f8251806020840152610990816040850160208701610950565b601f01601f19169190910160400192915050565b602080825282518282018190525f9190848201906040850190845b818110156109e45783516001600160a01b0316835292840192918401916001016109bf565b50909695505050505050565b6001600160a01b03811681146108d2575f80fd5b5f60208284031215610a14575f80fd5b8135610a1f816109f0565b9392505050565b634e487b7160e01b5f52604160045260245ffd5b604051601f8201601f1916810167ffffffffffffffff81118282101715610a6357610a63610a26565b604052919050565b5f67ffffffffffffffff821115610a8457610a84610a26565b50601f01601f191660200190565b5f60208284031215610aa2575f80fd5b813567ffffffffffffffff811115610ab8575f80fd5b8201601f81018413610ac8575f80fd5b8035610adb610ad682610a6b565b610a3a565b818152856020838501011115610aef575f80fd5b816020840160208301375f91810160200191909152949350505050565b5f60208284031215610b1c575f80fd5b5035919050565b600181811c90821680610b3757607f821691505b602082108103610b5557634e487b7160e01b5f52602260045260245ffd5b50919050565b634e487b7160e01b5f52603260045260245ffd5b5f60208284031215610b7f575f80fd5b815167ffffffffffffffff811115610b95575f80fd5b8201601f81018413610ba5575f80fd5b8051610bb3610ad682610a6b565b818152856020838501011115610bc7575f80fd5b610bd8826020830160208601610950565b95945050505050565b601f821115610c2857805f5260205f20601f840160051c81016020851015610c065750805b601f840160051c820191505b81811015610c25575f8155600101610c12565b50505b505050565b815167ffffffffffffffff811115610c4757610c47610a26565b610c5b81610c558454610b23565b84610be1565b602080601f831160018114610c8e575f8415610c775750858301515b5f19600386901b1c1916600185901b178555610ce5565b5f85815260208120601f198616915b82811015610cbc57888601518255948401946001909101908401610c9d565b5085821015610cd957878501515f19600388901b60f8161c191681555b505060018460011b0185555b505050505050565b81810381811115610d0c57634e487b7160e01b5f52601160045260245ffd5b92915050565b634e487b7160e01b5f52603160045260245ffdfea264697066735822122074e2379f2cd648fd805081e7b1dd251e4709b25c3ae1ac00b2129e7c1866ca7664736f6c63430008180033a2646970667358221220941a0d62e6a61d4b7af6ee613605b7eb1a35ed77388789417c1f9adf05adbeda64736f6c63430008180033608060405234801562000010575f80fd5b50604051620011a9380380620011a9833981016040819052620000339162000259565b33806200005957604051631e4fbdf760e01b81525f600482015260240160405180910390fd5b620000648162000131565b50600180546001600160a01b038087166001600160a01b03199283161783556004805460ff1916841790556003805493840181555f527fc2575a0e9e593c00f959f8c92f12db2869c3395a3b0502d05e2516446f71f85b9092018054928616929091169190911790556005620000db838262000373565b506006620000ea828262000373565b506040516001600160a01b03841681527f19ef9a4877199f89440a26acb26895ec02ed86f2df1aeaa90dc18041b892f71f9060200160405180910390a1505050506200043f565b5f80546001600160a01b038381166001600160a01b0319831681178455604051919092169283917f8be0079c531659141344cd1fd0a4f28419497f9722a3daafe3b4186f6b6457e09190a35050565b6001600160a01b038116811462000195575f80fd5b50565b634e487b7160e01b5f52604160045260245ffd5b5f82601f830112620001bc575f80fd5b81516001600160401b0380821115620001d957620001d962000198565b604051601f8301601f19908116603f0116810190828211818310171562000204576200020462000198565b816040528381526020925086602085880101111562000221575f80fd5b5f91505b8382101562000244578582018301518183018401529082019062000225565b5f602085830101528094505050505092915050565b5f805f80608085870312156200026d575f80fd5b84516200027a8162000180565b60208601519094506200028d8162000180565b60408601519093506001600160401b0380821115620002aa575f80fd5b620002b888838901620001ac565b93506060870151915080821115620002ce575f80fd5b50620002dd87828801620001ac565b91505092959194509250565b600181811c90821680620002fe57607f821691505b6020821081036200031d57634e487b7160e01b5f52602260045260245ffd5b50919050565b601f8211156200036e57805f5260205f20601f840160051c810160208510156200034a5750805b601f840160051c820191505b818110156200036b575f815560010162000356565b50505b505050565b81516001600160401b038111156200038f576200038f62000198565b620003a781620003a08454620002e9565b8462000323565b602080601f831160018114620003dd575f8415620003c55750858301515b5f19600386901b1c1916600185901b17855562000437565b5f85815260208120601f198616915b828110156200040d57888601518255948401946001909101908401620003ec565b50858210156200042b57878501515f19600388901b60f8161c191681555b505060018460011b0185555b505050505050565b610d5c806200044d5f395ff3fe608060405234801561000f575f80fd5b5060043610610111575f3560e01c806367c2a3601161009e578063c47f00271161006e578063c47f00271461025a578063d8e7d36a1461026d578063ec17e13a14610280578063ef097fc414610293578063f2fde38b146102a6575f80fd5b806367c2a3601461021c578063715018a61461022f5780638da5cb5b14610237578063a3fe15a014610247575f80fd5b8063267c4ae4116100e4578063267c4ae4146101d4578063390330f4146101f15780634892e8e8146101f95780634e5186f11461020157806360f96a8f14610209575f80fd5b806306fdde03146101155780631ba7214c146101335780631eee993a1461014857806325a10a70146101a9575b5f80fd5b61011d6102b9565b60405161012a9190610972565b60405180910390f35b61013b610345565b60405161012a91906109a4565b6101a7610156366004610a04565b600280546001810182555f919091527f405787fa12a823e0f2b7631cc41b3ba8828b3321ca811111fa75cd3aa3bb5ace0180546001600160a01b0319166001600160a01b0392909216919091179055565b005b6101bc6101b7366004610a04565b6103a5565b6040516001600160a01b03909116815260200161012a565b6004546101e19060ff1681565b604051901515815260200161012a565b61011d610459565b61013b61059d565b61011d6105fb565b6001546101bc906001600160a01b031681565b6101a761022a366004610a04565b610608565b6101a7610693565b5f546001600160a01b03166101bc565b6101a7610255366004610a92565b6106a6565b6101a7610268366004610a92565b6106be565b6101bc61027b366004610b0c565b6106d2565b6101e161028e366004610a04565b6106fa565b6101a76102a1366004610a04565b610756565b6101a76102b4366004610a04565b610898565b600580546102c690610b23565b80601f01602080910402602001604051908101604052809291908181526020018280546102f290610b23565b801561033d5780601f106103145761010080835404028352916020019161033d565b820191905f5260205f20905b81548152906001019060200180831161032057829003601f168201915b505050505081565b6060600380548060200260200160405190810160405280929190818152602001828054801561039b57602002820191905f5260205f20905b81546001600160a01b0316815260019091019060200180831161037d575b5050505050905090565b5f806103af61059d565b90505f5b815181101561041957836001600160a01b03168282815181106103d8576103d8610b5b565b60200260200101516001600160a01b0316036104115781818151811061040057610400610b5b565b602002602001015192505050919050565b6001016103b3565b5060405162461bcd60e51b815260206004820152600f60248201526e10da1a5b19081b9bdd08199bdd5b99608a1b60448201526064015b60405180910390fd5b60606006805461046890610b23565b159050801561048157506001546001600160a01b031615155b801561049857506001546001600160a01b03163b15155b156105185760015f9054906101000a90046001600160a01b03166001600160a01b031663390330f46040518163ffffffff1660e01b81526004015f60405180830381865afa1580156104ec573d5f803e3d5ffd5b505050506040513d5f823e601f3d908101601f191682016040526105139190810190610b6f565b905090565b6006805461052590610b23565b80601f016020809104026020016040519081016040528092919081815260200182805461055190610b23565b801561039b5780601f106105735761010080835404028352916020019161039b565b820191905f5260205f20905b81548152906001019060200180831161057f57509395945050505050565b6060600280548060200260200160405190810160405280929190818152602001828054801561039b57602002820191905f5260205f209081546001600160a01b0316815260019091019060200180831161037d575050505050905090565b600680546102c690610b23565b6106106108d5565b600380546001810182555f919091527fc2575a0e9e593c00f959f8c92f12db2869c3395a3b0502d05e2516446f71f85b0180546001600160a01b0319166001600160a01b0383169081179091556040519081527f19ef9a4877199f89440a26acb26895ec02ed86f2df1aeaa90dc18041b892f71f9060200160405180910390a150565b61069b6108d5565b6106a45f610901565b565b6106ae6108d5565b60066106ba8282610c2d565b5050565b6106c66108d5565b60056106ba8282610c2d565b600381815481106106e1575f80fd5b5f918252602090912001546001600160a01b0316905081565b5f805b60035481101561074e57826001600160a01b03166003828154811061072457610724610b5b565b5f918252602090912001546001600160a01b0316036107465750600192915050565b6001016106fd565b505f92915050565b61075e6108d5565b5f805b6003548110156107ad57826001600160a01b03166003828154811061078857610788610b5b565b5f918252602090912001546001600160a01b0316036107a5578091505b600101610761565b50600380546107be90600190610ced565b815481106107ce576107ce610b5b565b5f91825260209091200154600380546001600160a01b0390921691839081106107f9576107f9610b5b565b905f5260205f20015f6101000a8154816001600160a01b0302191690836001600160a01b03160217905550600380548061083557610835610d12565b5f8281526020908190205f19908301810180546001600160a01b03191690559091019091556040516001600160a01b03841681527fb43ac7bf01d16ebcb8c868a4c03fecb1f6984ea4fa1a52c116ef282b8dbb17c5910160405180910390a15050565b6108a06108d5565b6001600160a01b0381166108c957604051631e4fbdf760e01b81525f6004820152602401610450565b6108d281610901565b50565b5f546001600160a01b031633146106a45760405163118cdaa760e01b8152336004820152602401610450565b5f80546001600160a01b038381166001600160a01b0319831681178455604051919092169283917f8be0079c531659141344cd1fd0a4f28419497f9722a3daafe3b4186f6b6457e09190a35050565b5f5b8381101561096a578181015183820152602001610952565b50505f910152565b602081525f8251806020840152610990816040850160208701610950565b601f01601f19169190910160400192915050565b602080825282518282018190525f9190848201906040850190845b818110156109e45783516001600160a01b0316835292840192918401916001016109bf565b50909695505050505050565b6001600160a01b03811681146108d2575f80fd5b5f60208284031215610a14575f80fd5b8135610a1f816109f0565b9392505050565b634e487b7160e01b5f52604160045260245ffd5b604051601f8201601f1916810167ffffffffffffffff81118282101715610a6357610a63610a26565b604052919050565b5f67ffffffffffffffff821115610a8457610a84610a26565b50601f01601f191660200190565b5f60208284031215610aa2575f80fd5b813567ffffffffffffffff811115610ab8575f80fd5b8201601f81018413610ac8575f80fd5b8035610adb610ad682610a6b565b610a3a565b818152856020838501011115610aef575f80fd5b816020840160208301375f91810160200191909152949350505050565b5f60208284031215610b1c575f80fd5b5035919050565b600181811c90821680610b3757607f821691505b602082108103610b5557634e487b7160e01b5f52602260045260245ffd5b50919050565b634e487b7160e01b5f52603260045260245ffd5b5f60208284031215610b7f575f80fd5b815167ffffffffffffffff811115610b95575f80fd5b8201601f81018413610ba5575f80fd5b8051610bb3610ad682610a6b565b818152856020838501011115610bc7575f80fd5b610bd8826020830160208601610950565b95945050505050565b601f821115610c2857805f5260205f20601f840160051c81016020851015610c065750805b601f840160051c820191505b81811015610c25575f8155600101610c12565b50505b505050565b815167ffffffffffffffff811115610c4757610c47610a26565b610c5b81610c558454610b23565b84610be1565b602080601f831160018114610c8e575f8415610c775750858301515b5f19600386901b1c1916600185901b178555610ce5565b5f85815260208120601f198616915b82811015610cbc57888601518255948401946001909101908401610c9d565b5085821015610cd957878501515f19600388901b60f8161c191681555b505060018460011b0185555b505050505050565b81810381811115610d0c57634e487b7160e01b5f52601160045260245ffd5b92915050565b634e487b7160e01b5f52603160045260245ffdfea264697066735822122074e2379f2cd648fd805081e7b1dd251e4709b25c3ae1ac00b2129e7c1866ca7664736f6c63430008180033",
      "linkReferences": {}
   },
   "methodIdentifiers": {
      "authorizeUser(address,address)": "34436ce5",
      "compareStrings(string,string)": "bed34bba",
      "createCustomer(address,string,string)": "79221d08",
      "createDevice(address,string,string,uint8)": "45160925",
      "createDevices(address,string[],string)": "cc1ed9e3",
      "customers(uint256)": "c0abda2a",
      "devices(uint256)": "10ff8e31",
      "getCustomers()": "f1ba7127",
      "getDeviceByIndex(uint256)": "e1f653b1",
      "getDeviceBySn(string)": "9b1fa7a8",
      "getDevices()": "d611d6c8",
      "getDevicesOfCustomer(address)": "40bbcc3e",
      "getDevicesUnderCustomer(address)": "d7c80d89",
      "owner()": "8da5cb5b",
      "removeUserFromCustomer(address,address)": "eb3599d2",
      "renounceOwnership()": "715018a6",
      "setCustomerDeviceMetadata(string,address)": "7a277af2",
      "setCustomerName(string,address)": "a8a6aa90",
      "setDeviceCustomer(address,address)": "645ae3b3",
      "setDeviceMetadataUri(string,address)": "d6eb463e",
      "setDeviceState(uint8,address)": "474ba1a5",
      "toggleDeviceVisible(address)": "85590405",
      "transferOwnership(address)": "f2fde38b"
   },
   "id": 20
}