{
   "abi": [
      {
         "type": "constructor",
         "inputs": [],
         "stateMutability": "nonpayable"
      },
      {
         "type": "function",
         "name": "addUserToCustomer",
         "inputs": [
            {
               "name": "customer",
               "type": "address",
               "internalType": "contract Customer"
            },
            {
               "name": "user",
               "type": "address",
               "internalType": "address"
            }
         ],
         "outputs": [],
         "stateMutability": "nonpayable"
      },
      {
         "type": "function",
         "name": "authorizeUser",
         "inputs": [
            {
               "name": "customer",
               "type": "address",
               "internalType": "contract Customer"
            },
            {
               "name": "user",
               "type": "address",
               "internalType": "address"
            }
         ],
         "outputs": [],
         "stateMutability": "nonpayable"
      },
      {
         "type": "function",
         "name": "compareStrings",
         "inputs": [
            {
               "name": "a",
               "type": "string",
               "internalType": "string"
            },
            {
               "name": "b",
               "type": "string",
               "internalType": "string"
            }
         ],
         "outputs": [
            {
               "name": "",
               "type": "bool",
               "internalType": "bool"
            }
         ],
         "stateMutability": "pure"
      },
      {
         "type": "function",
         "name": "createCustomer",
         "inputs": [
            {
               "name": "parent",
               "type": "address",
               "internalType": "contract Customer"
            },
            {
               "name": "_name",
               "type": "string",
               "internalType": "string"
            }
         ],
         "outputs": [
            {
               "name": "newCustomer",
               "type": "address",
               "internalType": "contract Customer"
            }
         ],
         "stateMutability": "nonpayable"
      },
      {
         "type": "function",
         "name": "createDevice",
         "inputs": [
            {
               "name": "customer",
               "type": "address",
               "internalType": "contract Customer"
            },
            {
               "name": "sn",
               "type": "string",
               "internalType": "string"
            },
            {
               "name": "metadata",
               "type": "string",
               "internalType": "string"
            }
         ],
         "outputs": [
            {
               "name": "newDevice",
               "type": "address",
               "internalType": "contract Device"
            }
         ],
         "stateMutability": "nonpayable"
      },
      {
         "type": "function",
         "name": "createDevices",
         "inputs": [
            {
               "name": "customer",
               "type": "address",
               "internalType": "contract Customer"
            },
            {
               "name": "sns",
               "type": "string[]",
               "internalType": "string[]"
            },
            {
               "name": "metadata",
               "type": "string",
               "internalType": "string"
            }
         ],
         "outputs": [
            {
               "name": "newDevices",
               "type": "address[]",
               "internalType": "contract Device[]"
            }
         ],
         "stateMutability": "nonpayable"
      },
      {
         "type": "function",
         "name": "customers",
         "inputs": [
            {
               "name": "",
               "type": "uint256",
               "internalType": "uint256"
            }
         ],
         "outputs": [
            {
               "name": "",
               "type": "address",
               "internalType": "contract Customer"
            }
         ],
         "stateMutability": "view"
      },
      {
         "type": "function",
         "name": "devices",
         "inputs": [
            {
               "name": "",
               "type": "uint256",
               "internalType": "uint256"
            }
         ],
         "outputs": [
            {
               "name": "",
               "type": "address",
               "internalType": "contract Device"
            }
         ],
         "stateMutability": "view"
      },
      {
         "type": "function",
         "name": "getCustomers",
         "inputs": [],
         "outputs": [
            {
               "name": "",
               "type": "address[]",
               "internalType": "contract Customer[]"
            }
         ],
         "stateMutability": "view"
      },
      {
         "type": "function",
         "name": "getDeviceByIndex",
         "inputs": [
            {
               "name": "index",
               "type": "uint256",
               "internalType": "uint256"
            }
         ],
         "outputs": [
            {
               "name": "device",
               "type": "address",
               "internalType": "contract Device"
            }
         ],
         "stateMutability": "view"
      },
      {
         "type": "function",
         "name": "getDeviceBySn",
         "inputs": [
            {
               "name": "sn",
               "type": "string",
               "internalType": "string"
            }
         ],
         "outputs": [
            {
               "name": "device",
               "type": "address",
               "internalType": "contract Device"
            }
         ],
         "stateMutability": "view"
      },
      {
         "type": "function",
         "name": "getDevices",
         "inputs": [],
         "outputs": [
            {
               "name": "",
               "type": "address[]",
               "internalType": "contract Device[]"
            }
         ],
         "stateMutability": "view"
      },
      {
         "type": "function",
         "name": "getDevicesOfCustomer",
         "inputs": [
            {
               "name": "customer",
               "type": "address",
               "internalType": "contract Customer"
            }
         ],
         "outputs": [
            {
               "name": "",
               "type": "address[]",
               "internalType": "contract Device[]"
            }
         ],
         "stateMutability": "view"
      },
      {
         "type": "function",
         "name": "getDevicesUnderCustomer",
         "inputs": [
            {
               "name": "customer",
               "type": "address",
               "internalType": "contract Customer"
            }
         ],
         "outputs": [
            {
               "name": "",
               "type": "address[]",
               "internalType": "contract Device[]"
            }
         ],
         "stateMutability": "view"
      },
      {
         "type": "function",
         "name": "owner",
         "inputs": [],
         "outputs": [
            {
               "name": "",
               "type": "address",
               "internalType": "address"
            }
         ],
         "stateMutability": "view"
      },
      {
         "type": "function",
         "name": "removeUserFromCustomer",
         "inputs": [
            {
               "name": "customer",
               "type": "address",
               "internalType": "contract Customer"
            },
            {
               "name": "user",
               "type": "address",
               "internalType": "address"
            }
         ],
         "outputs": [],
         "stateMutability": "nonpayable"
      },
      {
         "type": "function",
         "name": "renounceOwnership",
         "inputs": [],
         "outputs": [],
         "stateMutability": "nonpayable"
      },
      {
         "type": "function",
         "name": "setDeviceCustomer",
         "inputs": [
            {
               "name": "customer",
               "type": "address",
               "internalType": "contract Customer"
            },
            {
               "name": "device",
               "type": "address",
               "internalType": "contract Device"
            }
         ],
         "outputs": [],
         "stateMutability": "nonpayable"
      },
      {
         "type": "function",
         "name": "transferOwnership",
         "inputs": [
            {
               "name": "newOwner",
               "type": "address",
               "internalType": "address"
            }
         ],
         "outputs": [],
         "stateMutability": "nonpayable"
      },
      {
         "type": "event",
         "name": "CustomerCreated",
         "inputs": [
            {
               "name": "customerAddress",
               "type": "address",
               "indexed": false,
               "internalType": "address"
            },
            {
               "name": "parent",
               "type": "address",
               "indexed": false,
               "internalType": "address"
            }
         ],
         "anonymous": false
      },
      {
         "type": "event",
         "name": "DeviceAssigned",
         "inputs": [
            {
               "name": "customer",
               "type": "address",
               "indexed": false,
               "internalType": "address"
            },
            {
               "name": "device",
               "type": "address",
               "indexed": false,
               "internalType": "address"
            }
         ],
         "anonymous": false
      },
      {
         "type": "event",
         "name": "DeviceCreated",
         "inputs": [
            {
               "name": "customer",
               "type": "address",
               "indexed": false,
               "internalType": "address"
            },
            {
               "name": "deviceAddress",
               "type": "address",
               "indexed": false,
               "internalType": "address"
            },
            {
               "name": "sn",
               "type": "string",
               "indexed": false,
               "internalType": "string"
            }
         ],
         "anonymous": false
      },
      {
         "type": "event",
         "name": "OwnershipTransferred",
         "inputs": [
            {
               "name": "previousOwner",
               "type": "address",
               "indexed": true,
               "internalType": "address"
            },
            {
               "name": "newOwner",
               "type": "address",
               "indexed": true,
               "internalType": "address"
            }
         ],
         "anonymous": false
      },
      {
         "type": "error",
         "name": "OwnableInvalidOwner",
         "inputs": [
            {
               "name": "owner",
               "type": "address",
               "internalType": "address"
            }
         ]
      },
      {
         "type": "error",
         "name": "OwnableUnauthorizedAccount",
         "inputs": [
            {
               "name": "account",
               "type": "address",
               "internalType": "address"
            }
         ]
      }
   ],
   "bytecode": {
      "object": "0x608060405234801562000010575f80fd5b5033806200003757604051631e4fbdf760e01b81525f600482015260240160405180910390fd5b6200004281620000f7565b505f8033604051620000549062000146565b6001600160a01b0392831681529116602082015260606040820181905260049082015263149bdbdd60e21b608082015260a001604051809103905ff080158015620000a1573d5f803e3d5ffd5b506001805480820182555f919091527fb10e2d527612073b26eecdfd717e6a320cf44b4afac2b0732d9fcbe2b7fa0cf60180546001600160a01b0319166001600160a01b03929092169190911790555062000154565b5f80546001600160a01b038381166001600160a01b0319831681178455604051919092169283917f8be0079c531659141344cd1fd0a4f28419497f9722a3daafe3b4186f6b6457e09190a35050565b610d09806200385f83390190565b6136fd80620001625f395ff3fe608060405234801562000010575f80fd5b506004361062000134575f3560e01c8063bed34bba11620000b7578063e1f653b11162000077578063e1f653b11462000299578063eb3599d214620002b0578063f1ba712714620002c7578063f2fde38b14620002d1578063f7ab64e11462000183575f80fd5b8063bed34bba1462000222578063c0abda2a146200024a578063cc1ed9e31462000261578063d611d6c81462000278578063d7c80d891462000282575f80fd5b8063645ae3b31162000103578063645ae3b314620001c2578063715018a614620001d95780638da5cb5b14620001e35780639b1fa7a814620001f45780639b9f34c4146200020b575f80fd5b806310ff8e3114620001385780632924d4ee146200016c57806334436ce5146200018357806340bbcc3e146200019c575b5f80fd5b6200014f62000149366004620017ca565b620002e8565b6040516001600160a01b0390911681526020015b60405180910390f35b6200014f6200017d3660046200183e565b62000311565b6200019a62000194366004620018c3565b620005e1565b005b620001b3620001ad366004620018ff565b62000709565b60405162000163919062001924565b6200019a620001d3366004620018c3565b620008ee565b6200019a62000abb565b5f546001600160a01b03166200014f565b6200014f6200020536600462001972565b62000ad2565b6200014f6200021c36600462001a7c565b62000bf5565b620002396200023336600462001ace565b62000de5565b604051901515815260200162000163565b6200014f6200025b366004620017ca565b62000e41565b620001b36200027236600462001b2a565b62000e51565b620001b362000fe7565b620001b362000293366004620018ff565b62001049565b6200014f620002aa366004620017ca565b6200124a565b6200019a620002c1366004620018c3565b6200127b565b620001b362001373565b6200019a620002e2366004620018ff565b620013d3565b60028181548110620002f8575f80fd5b5f918252602090912001546001600160a01b0316905081565b5f856001600160a01b03811615801590620003905750806001600160a01b031663267c4ae46040518163ffffffff1660e01b8152600401602060405180830381865afa15801562000364573d5f803e3d5ffd5b505050506040513d601f19601f820116820180604052508101906200038a919062001bbe565b15156001145b620003b85760405162461bcd60e51b8152600401620003af9062001bdf565b60405180910390fd5b85855f5b600254811015620004dc576200049060028281548110620003e157620003e162001c0b565b5f918252602082200154604080516303e1cafb60e61b815290516001600160a01b039092169263f872bec0926004808401938290030181865afa1580156200042b573d5f803e3d5ffd5b505050506040513d5f823e601f3d908101601f1916820160405262000454919081019062001c43565b84848080601f0160208091040260200160405190810160405280939291908181526020018383808284375f9201919091525062000de592505050565b15620004d35760405162461bcd60e51b8152602060048201526011602482015270534e206d75737420626520756e6971756560781b6044820152606401620003af565b600101620003bc565b5088620004ea338262001416565b620005095760405162461bcd60e51b8152600401620003af9062001cbd565b89898989896040516200051c90620017ae565b6200052c95949392919062001d15565b604051809103905ff08015801562000546573d5f803e3d5ffd5b50600280546001810182555f919091527f405787fa12a823e0f2b7631cc41b3ba8828b3321ca811111fa75cd3aa3bb5ace0180546001600160a01b0319166001600160a01b0383161790556040519095507f8ae62abfaf1a8a2062b143252dc200ce0c832a887b9378af263e30910d10909690620005cc908c9088908d908d9062001d5c565b60405180910390a15050505095945050505050565b816001600160a01b038116158015906200065f5750806001600160a01b031663267c4ae46040518163ffffffff1660e01b8152600401602060405180830381865afa15801562000633573d5f803e3d5ffd5b505050506040513d601f19601f8201168201806040525081019062000659919062001bbe565b15156001145b6200067e5760405162461bcd60e51b8152600401620003af9062001bdf565b826200068b338262001416565b620006aa5760405162461bcd60e51b8152600401620003af9062001cbd565b60405163033e151b60e51b81526001600160a01b0384811660048301528516906367c2a360906024015b5f604051808303815f87803b158015620006ec575f80fd5b505af1158015620006ff573d5f803e3d5ffd5b5050505050505050565b6002546060905f906001600160401b038111156200072b576200072b620019b4565b60405190808252806020026020018201604052801562000755578160200160208202803683370190505b5090505f805b6002548110156200083d57846001600160a01b03166200077b826200124a565b6001600160a01b0316632804b2c06040518163ffffffff1660e01b8152600401602060405180830381865afa158015620007b7573d5f803e3d5ffd5b505050506040513d601f19601f82011682018060405250810190620007dd919062001d94565b6001600160a01b0316036200083457620007f7816200124a565b8383815181106200080c576200080c62001c0b565b6001600160a01b039092166020928302919091019091015281620008308162001dc6565b9250505b6001016200075b565b505f816001600160401b038111156200085a576200085a620019b4565b60405190808252806020026020018201604052801562000884578160200160208202803683370190505b5090505f5b82811015620008e557838181518110620008a757620008a762001c0b565b6020026020010151828281518110620008c457620008c462001c0b565b6001600160a01b039092166020928302919091019091015260010162000889565b50949350505050565b806001600160a01b0316632804b2c06040518163ffffffff1660e01b8152600401602060405180830381865afa1580156200092b573d5f803e3d5ffd5b505050506040513d601f19601f8201168201806040525081019062000951919062001d94565b6200095d338262001416565b6200097c5760405162461bcd60e51b8152600401620003af9062001cbd565b826001600160a01b03811615801590620009fa5750806001600160a01b031663267c4ae46040518163ffffffff1660e01b8152600401602060405180830381865afa158015620009ce573d5f803e3d5ffd5b505050506040513d601f19601f82011682018060405250810190620009f4919062001bbe565b15156001145b62000a195760405162461bcd60e51b8152600401620003af9062001bdf565b60405163620c0c4b60e01b81526001600160a01b03858116600483015284169063620c0c4b906024015f604051808303815f87803b15801562000a5a575f80fd5b505af115801562000a6d573d5f803e3d5ffd5b5050604080516001600160a01b038089168252871660208201527f6589dc94843e0a8aa870e5c8bcf2fdd91ed0e0a26442e17e4f098db6b6bc2bfe935001905060405180910390a150505050565b62000ac562001601565b62000ad05f6200162f565b565b5f805b60025481101562000bb25762000b8f62000aef826200124a565b6001600160a01b031663f872bec06040518163ffffffff1660e01b81526004015f60405180830381865afa15801562000b2a573d5f803e3d5ffd5b505050506040513d5f823e601f3d908101601f1916820160405262000b53919081019062001c43565b85858080601f0160208091040260200160405190810160405280939291908181526020018383808284375f9201919091525062000de592505050565b1562000ba95762000ba0816200124a565b91505062000bef565b60010162000ad5565b5060405162461bcd60e51b815260206004820152601060248201526f11195d9a58d9481b9bdd08199bdd5b9960821b6044820152606401620003af565b92915050565b5f826001600160a01b0381161580159062000c745750806001600160a01b031663267c4ae46040518163ffffffff1660e01b8152600401602060405180830381865afa15801562000c48573d5f803e3d5ffd5b505050506040513d601f19601f8201168201806040525081019062000c6e919062001bbe565b15156001145b62000c935760405162461bcd60e51b8152600401620003af9062001bdf565b8362000ca0338262001416565b62000cbf5760405162461bcd60e51b8152600401620003af9062001cbd565b84338560405162000cd090620017bc565b62000cde9392919062001de1565b604051809103905ff08015801562000cf8573d5f803e3d5ffd5b506001805480820182555f919091527fb10e2d527612073b26eecdfd717e6a320cf44b4afac2b0732d9fcbe2b7fa0cf60180546001600160a01b0319166001600160a01b03838116918217909255604051630f774c9d60e11b81526004810191909152919450861690631eee993a906024015f604051808303815f87803b15801562000d82575f80fd5b505af115801562000d95573d5f803e3d5ffd5b5050604080516001600160a01b038088168252891660208201527f85f6e79cf83af1b4acc033f88391b65cf5441b4553e1fe67dda9b9784a839d5f935001905060405180910390a1505092915050565b5f8160405160200162000df9919062001e2f565b604051602081830303815290604052805190602001208360405160200162000e22919062001e2f565b6040516020818303038152906040528051906020012014905092915050565b60018181548110620002f8575f80fd5b6060856001600160a01b0381161580159062000ed15750806001600160a01b031663267c4ae46040518163ffffffff1660e01b8152600401602060405180830381865afa15801562000ea5573d5f803e3d5ffd5b505050506040513d601f19601f8201168201806040525081019062000ecb919062001bbe565b15156001145b62000ef05760405162461bcd60e51b8152600401620003af9062001bdf565b8662000efd338262001416565b62000f1c5760405162461bcd60e51b8152600401620003af9062001cbd565b856001600160401b0381111562000f375762000f37620019b4565b60405190808252806020026020018201604052801562000f61578160200160208202803683370190505b5092505f5b8681101562000fdb5762000fa58989898481811062000f895762000f8962001c0b565b905060200281019062000f9d919062001e4c565b898962000311565b84828151811062000fba5762000fba62001c0b565b6001600160a01b039092166020928302919091019091015260010162000f66565b50505095945050505050565b606060028054806020026020016040519081016040528092919081815260200182805480156200103f57602002820191905f5260205f20905b81546001600160a01b0316815260019091019060200180831162001020575b5050505050905090565b6060816001600160a01b03811615801590620010c95750806001600160a01b031663267c4ae46040518163ffffffff1660e01b8152600401602060405180830381865afa1580156200109d573d5f803e3d5ffd5b505050506040513d601f19601f82011682018060405250810190620010c3919062001bbe565b15156001145b620010e85760405162461bcd60e51b8152600401620003af9062001bdf565b5f836001600160a01b0316634892e8e86040518163ffffffff1660e01b81526004015f60405180830381865afa15801562001125573d5f803e3d5ffd5b505050506040513d5f823e601f3d908101601f191682016040526200114e919081019062001e91565b519050805f036200116d57620011648462000709565b92505062001244565b60605f6200117b8662000709565b90506200118982826200167e565b91505f866001600160a01b0316634892e8e86040518163ffffffff1660e01b81526004015f60405180830381865afa158015620011c8573d5f803e3d5ffd5b505050506040513d5f823e601f3d908101601f19168201604052620011f1919081019062001e91565b90505f5b81518110156200123c5762001231846200122b8484815181106200121d576200121d62001c0b565b602002602001015162001049565b6200167e565b9350600101620011f5565b509194505050505b50919050565b5f6002828154811062001261576200126162001c0b565b5f918252602090912001546001600160a01b031692915050565b816001600160a01b03811615801590620012f95750806001600160a01b031663267c4ae46040518163ffffffff1660e01b8152600401602060405180830381865afa158015620012cd573d5f803e3d5ffd5b505050506040513d601f19601f82011682018060405250810190620012f3919062001bbe565b15156001145b620013185760405162461bcd60e51b8152600401620003af9062001bdf565b8262001325338262001416565b620013445760405162461bcd60e51b8152600401620003af9062001cbd565b604051633bc25ff160e21b81526001600160a01b03848116600483015285169063ef097fc490602401620006d4565b606060018054806020026020016040519081016040528092919081815260200182805480156200103f57602002820191905f5260205f209081546001600160a01b0316815260019091019060200180831162001020575050505050905090565b620013dd62001601565b6001600160a01b0381166200140857604051631e4fbdf760e01b81525f6004820152602401620003af565b62001413816200162f565b50565b5f815b5f6001600160a01b0316816001600160a01b03166360f96a8f6040518163ffffffff1660e01b8152600401602060405180830381865afa15801562001460573d5f803e3d5ffd5b505050506040513d601f19601f8201168201806040525081019062001486919062001d94565b6001600160a01b0316146200157c5760405163760bf09d60e11b81526001600160a01b03858116600483015282169063ec17e13a90602401602060405180830381865afa158015620014da573d5f803e3d5ffd5b505050506040513d601f19601f8201168201806040525081019062001500919062001bbe565b156200151157600191505062000bef565b806001600160a01b03166360f96a8f6040518163ffffffff1660e01b8152600401602060405180830381865afa1580156200154e573d5f803e3d5ffd5b505050506040513d601f19601f8201168201806040525081019062001574919062001d94565b905062001419565b60405163760bf09d60e11b81526001600160a01b03858116600483015282169063ec17e13a90602401602060405180830381865afa158015620015c1573d5f803e3d5ffd5b505050506040513d601f19601f82011682018060405250810190620015e7919062001bbe565b15620015f857600191505062000bef565b505f9392505050565b5f546001600160a01b0316331462000ad05760405163118cdaa760e01b8152336004820152602401620003af565b5f80546001600160a01b038381166001600160a01b0319831681178455604051919092169283917f8be0079c531659141344cd1fd0a4f28419497f9722a3daafe3b4186f6b6457e09190a35050565b81518151606091905f62001693828462001f3e565b6001600160401b03811115620016ad57620016ad620019b4565b604051908082528060200260200182016040528015620016d7578160200160208202803683370190505b5090505f5b838110156200173857868181518110620016fa57620016fa62001c0b565b602002602001015182828151811062001717576200171762001c0b565b6001600160a01b0390921660209283029190910190910152600101620016dc565b505f5b82811015620017a45785818151811062001759576200175962001c0b565b602002602001015182828662001770919062001f3e565b8151811062001783576200178362001c0b565b6001600160a01b03909216602092830291909101909101526001016200173b565b5095945050505050565b610a6a8062001f5583390190565b610d0980620029bf83390190565b5f60208284031215620017db575f80fd5b5035919050565b6001600160a01b038116811462001413575f80fd5b5f8083601f84011262001808575f80fd5b5081356001600160401b038111156200181f575f80fd5b60208301915083602082850101111562001837575f80fd5b9250929050565b5f805f805f6060868803121562001853575f80fd5b85356200186081620017e2565b945060208601356001600160401b03808211156200187c575f80fd5b6200188a89838a01620017f7565b90965094506040880135915080821115620018a3575f80fd5b50620018b288828901620017f7565b969995985093965092949392505050565b5f8060408385031215620018d5575f80fd5b8235620018e281620017e2565b91506020830135620018f481620017e2565b809150509250929050565b5f6020828403121562001910575f80fd5b81356200191d81620017e2565b9392505050565b602080825282518282018190525f9190848201906040850190845b81811015620019665783516001600160a01b0316835292840192918401916001016200193f565b50909695505050505050565b5f806020838503121562001984575f80fd5b82356001600160401b038111156200199a575f80fd5b620019a885828601620017f7565b90969095509350505050565b634e487b7160e01b5f52604160045260245ffd5b604051601f8201601f191681016001600160401b0381118282101715620019f357620019f3620019b4565b604052919050565b5f6001600160401b0382111562001a165762001a16620019b4565b50601f01601f191660200190565b5f82601f83011262001a34575f80fd5b813562001a4b62001a4582620019fb565b620019c8565b81815284602083860101111562001a60575f80fd5b816020850160208301375f918101602001919091529392505050565b5f806040838503121562001a8e575f80fd5b823562001a9b81620017e2565b915060208301356001600160401b0381111562001ab6575f80fd5b62001ac48582860162001a24565b9150509250929050565b5f806040838503121562001ae0575f80fd5b82356001600160401b038082111562001af7575f80fd5b62001b058683870162001a24565b9350602085013591508082111562001b1b575f80fd5b5062001ac48582860162001a24565b5f805f805f6060868803121562001b3f575f80fd5b853562001b4c81620017e2565b945060208601356001600160401b038082111562001b68575f80fd5b818801915088601f83011262001b7c575f80fd5b81358181111562001b8b575f80fd5b8960208260051b850101111562001ba0575f80fd5b602083019650809550506040880135915080821115620018a3575f80fd5b5f6020828403121562001bcf575f80fd5b815180151581146200191d575f80fd5b60208082526012908201527110dd5cdd1bdb595c881b9bdd08199bdd5b9960721b604082015260600190565b634e487b7160e01b5f52603260045260245ffd5b5f5b8381101562001c3b57818101518382015260200162001c21565b50505f910152565b5f6020828403121562001c54575f80fd5b81516001600160401b0381111562001c6a575f80fd5b8201601f8101841362001c7b575f80fd5b805162001c8c62001a4582620019fb565b81815285602083850101111562001ca1575f80fd5b62001cb482602083016020860162001c1f565b95945050505050565b6020808252601690820152752ab730baba3437b934bd32b21037b832b930ba34b7b760511b604082015260600190565b81835281816020850137505f828201602090810191909152601f909101601f19169091010190565b6001600160a01b03861681526060602082018190525f9062001d3b908301868862001ced565b828103604084015262001d5081858762001ced565b98975050505050505050565b6001600160a01b038581168252841660208201526060604082018190525f9062001d8a908301848662001ced565b9695505050505050565b5f6020828403121562001da5575f80fd5b81516200191d81620017e2565b634e487b7160e01b5f52601160045260245ffd5b5f6001820162001dda5762001dda62001db2565b5060010190565b5f60018060a01b03808616835280851660208401525060606040830152825180606084015262001e1981608085016020870162001c1f565b601f01601f191691909101608001949350505050565b5f825162001e4281846020870162001c1f565b9190910192915050565b5f808335601e1984360301811262001e62575f80fd5b8301803591506001600160401b0382111562001e7c575f80fd5b60200191503681900382131562001837575f80fd5b5f602080838503121562001ea3575f80fd5b82516001600160401b038082111562001eba575f80fd5b818501915085601f83011262001ece575f80fd5b81518181111562001ee35762001ee3620019b4565b8060051b915062001ef6848301620019c8565b818152918301840191848101908884111562001f10575f80fd5b938501935b8385101562001d50578451925062001f2d83620017e2565b828252938501939085019062001f15565b8082018082111562000bef5762000bef62001db256fe608060405234801562000010575f80fd5b5060405162000a6a38038062000a6a8339810160408190526200003391620001c4565b33806200005957604051631e4fbdf760e01b81525f600482015260240160405180910390fd5b6200006481620000b4565b50600180546001600160a01b0319166001600160a01b03851617905560026200008e8382620002d2565b506003805460ff191660011790556004620000aa8282620002d2565b505050506200039e565b5f80546001600160a01b038381166001600160a01b0319831681178455604051919092169283917f8be0079c531659141344cd1fd0a4f28419497f9722a3daafe3b4186f6b6457e09190a35050565b634e487b7160e01b5f52604160045260245ffd5b5f82601f83011262000127575f80fd5b81516001600160401b038082111562000144576200014462000103565b604051601f8301601f19908116603f011681019082821181831017156200016f576200016f62000103565b81604052838152602092508660208588010111156200018c575f80fd5b5f91505b83821015620001af578582018301518183018401529082019062000190565b5f602085830101528094505050505092915050565b5f805f60608486031215620001d7575f80fd5b83516001600160a01b0381168114620001ee575f80fd5b60208501519093506001600160401b03808211156200020b575f80fd5b620002198783880162000117565b935060408601519150808211156200022f575f80fd5b506200023e8682870162000117565b9150509250925092565b600181811c908216806200025d57607f821691505b6020821081036200027c57634e487b7160e01b5f52602260045260245ffd5b50919050565b601f821115620002cd57805f5260205f20601f840160051c81016020851015620002a95750805b601f840160051c820191505b81811015620002ca575f8155600101620002b5565b50505b505050565b81516001600160401b03811115620002ee57620002ee62000103565b6200030681620002ff845462000248565b8462000282565b602080601f8311600181146200033c575f8415620003245750858301515b5f19600386901b1c1916600185901b17855562000396565b5f85815260208120601f198616915b828110156200036c578886015182559484019460019091019084016200034b565b50858210156200038a57878501515f19600388901b60f8161c191681555b505060018460011b0185555b505050505050565b6106be80620003ac5f395ff3fe608060405234801561000f575f80fd5b506004361061009b575f3560e01c8063715018a611610063578063715018a61461011f5780638da5cb5b14610127578063cf30901214610137578063f2fde38b14610151578063f872bec014610164575f80fd5b80632804b2c01461009f578063392f37e9146100cf57806356de96db146100e45780635cc48039146100f9578063620c0c4b1461010c575b5f80fd5b6001546100b2906001600160a01b031681565b6040516001600160a01b0390911681526020015b60405180910390f35b6100d761016c565b6040516100c691906103c8565b6100f76100f2366004610414565b6101f8565b005b6100f7610107366004610439565b610268565b6100f761011a3660046104b9565b61027a565b6100f76102eb565b5f546001600160a01b03166100b2565b6003546101449060ff1681565b6040516100c69190610508565b6100f761015f3660046104b9565b6102fe565b6100d7610340565b600480546101799061051c565b80601f01602080910402602001604051908101604052809291908181526020018280546101a59061051c565b80156101f05780601f106101c7576101008083540402835291602001916101f0565b820191905f5260205f20905b8154815290600101906020018083116101d357829003601f168201915b505050505081565b61020061034d565b6003546040517fe8a97ea87e4388fa22d496b95a8ed5ced6717f49790318de2b928aaf37a021d8916102399160ff909116908490610554565b60405180910390a16003805482919060ff19166001836002811115610260576102606104d4565b021790555050565b60046102758284836105ce565b505050565b61028261034d565b600154604080516001600160a01b03928316815291831660208301527f391847abdda0edb4f1e720f30e246be400e373ef6243bd03bd41fe7db6e74f55910160405180910390a1600180546001600160a01b0319166001600160a01b0392909216919091179055565b6102f361034d565b6102fc5f610379565b565b61030661034d565b6001600160a01b03811661033457604051631e4fbdf760e01b81525f60048201526024015b60405180910390fd5b61033d81610379565b50565b600280546101799061051c565b5f546001600160a01b031633146102fc5760405163118cdaa760e01b815233600482015260240161032b565b5f80546001600160a01b038381166001600160a01b0319831681178455604051919092169283917f8be0079c531659141344cd1fd0a4f28419497f9722a3daafe3b4186f6b6457e09190a35050565b5f602080835283518060208501525f5b818110156103f4578581018301518582016040015282016103d8565b505f604082860101526040601f19601f8301168501019250505092915050565b5f60208284031215610424575f80fd5b813560038110610432575f80fd5b9392505050565b5f806020838503121561044a575f80fd5b823567ffffffffffffffff80821115610461575f80fd5b818501915085601f830112610474575f80fd5b813581811115610482575f80fd5b866020828501011115610493575f80fd5b60209290920196919550909350505050565b6001600160a01b038116811461033d575f80fd5b5f602082840312156104c9575f80fd5b8135610432816104a5565b634e487b7160e01b5f52602160045260245ffd5b6003811061050457634e487b7160e01b5f52602160045260245ffd5b9052565b6020810161051682846104e8565b92915050565b600181811c9082168061053057607f821691505b60208210810361054e57634e487b7160e01b5f52602260045260245ffd5b50919050565b6040810161056282856104e8565b61043260208301846104e8565b634e487b7160e01b5f52604160045260245ffd5b601f82111561027557805f5260205f20601f840160051c810160208510156105a85750805b601f840160051c820191505b818110156105c7575f81556001016105b4565b5050505050565b67ffffffffffffffff8311156105e6576105e661056f565b6105fa836105f4835461051c565b83610583565b5f601f84116001811461062b575f85156106145750838201355b5f19600387901b1c1916600186901b1783556105c7565b5f83815260208120601f198716915b8281101561065a578685013582556020948501946001909201910161063a565b5086821015610676575f1960f88860031b161c19848701351681555b505060018560011b018355505050505056fea264697066735822122079ed802e5d762eebd47a6896961f76b94d2828bcd21e8b28199e746c00f420a064736f6c63430008180033608060405234801562000010575f80fd5b5060405162000d0938038062000d0983398101604081905262000033916200019c565b33806200005957604051631e4fbdf760e01b81525f600482015260240160405180910390fd5b620000648162000121565b50600180546001600160a01b038086166001600160a01b03199283161783556004805460ff1916841790556003805493840181555f527fc2575a0e9e593c00f959f8c92f12db2869c3395a3b0502d05e2516446f71f85b9092018054928516929091169190911790556005620000db82826200031e565b506040516001600160a01b03831681527f19ef9a4877199f89440a26acb26895ec02ed86f2df1aeaa90dc18041b892f71f9060200160405180910390a1505050620003ea565b5f80546001600160a01b038381166001600160a01b0319831681178455604051919092169283917f8be0079c531659141344cd1fd0a4f28419497f9722a3daafe3b4186f6b6457e09190a35050565b6001600160a01b038116811462000185575f80fd5b50565b634e487b7160e01b5f52604160045260245ffd5b5f805f60608486031215620001af575f80fd5b8351620001bc8162000170565b80935050602080850151620001d18162000170565b60408601519093506001600160401b0380821115620001ee575f80fd5b818701915087601f83011262000202575f80fd5b81518181111562000217576200021762000188565b604051601f8201601f19908116603f0116810190838211818310171562000242576200024262000188565b816040528281528a868487010111156200025a575f80fd5b5f93505b828410156200027d57848401860151818501870152928501926200025e565b5f8684830101528096505050505050509250925092565b600181811c90821680620002a957607f821691505b602082108103620002c857634e487b7160e01b5f52602260045260245ffd5b50919050565b601f8211156200031957805f5260205f20601f840160051c81016020851015620002f55750805b601f840160051c820191505b8181101562000316575f815560010162000301565b50505b505050565b81516001600160401b038111156200033a576200033a62000188565b62000352816200034b845462000294565b84620002ce565b602080601f83116001811462000388575f8415620003705750858301515b5f19600386901b1c1916600185901b178555620003e2565b5f85815260208120601f198616915b82811015620003b85788860151825594840194600190910190840162000397565b5085821015620003d657878501515f19600388901b60f8161c191681555b505060018460011b0185555b505050505050565b61091180620003f85f395ff3fe608060405234801561000f575f80fd5b50600436106100e5575f3560e01c806367c2a36011610088578063d8e7d36a11610063578063d8e7d36a1461020b578063ec17e13a1461021e578063ef097fc414610231578063f2fde38b14610244575f80fd5b806367c2a360146101e0578063715018a6146101f35780638da5cb5b146101fb575f80fd5b806325a10a70116100c357806325a10a701461017d578063267c4ae4146101a85780634892e8e8146101c557806360f96a8f146101cd575f80fd5b806306fdde03146100e95780631ba7214c146101075780631eee993a1461011c575b5f80fd5b6100f1610257565b6040516100fe9190610771565b60405180910390f35b61010f6102e3565b6040516100fe91906107bd565b61017b61012a36600461081d565b600280546001810182555f919091527f405787fa12a823e0f2b7631cc41b3ba8828b3321ca811111fa75cd3aa3bb5ace0180546001600160a01b0319166001600160a01b0392909216919091179055565b005b61019061018b36600461081d565b610343565b6040516001600160a01b0390911681526020016100fe565b6004546101b59060ff1681565b60405190151581526020016100fe565b61010f6103f7565b600154610190906001600160a01b031681565b61017b6101ee36600461081d565b610455565b61017b6104e0565b5f546001600160a01b0316610190565b61019061021936600461083f565b6104f3565b6101b561022c36600461081d565b61051b565b61017b61023f36600461081d565b610577565b61017b61025236600461081d565b6106b9565b6005805461026490610856565b80601f016020809104026020016040519081016040528092919081815260200182805461029090610856565b80156102db5780601f106102b2576101008083540402835291602001916102db565b820191905f5260205f20905b8154815290600101906020018083116102be57829003601f168201915b505050505081565b6060600380548060200260200160405190810160405280929190818152602001828054801561033957602002820191905f5260205f20905b81546001600160a01b0316815260019091019060200180831161031b575b5050505050905090565b5f8061034d6103f7565b90505f5b81518110156103b757836001600160a01b03168282815181106103765761037661088e565b60200260200101516001600160a01b0316036103af5781818151811061039e5761039e61088e565b602002602001015192505050919050565b600101610351565b5060405162461bcd60e51b815260206004820152600f60248201526e10da1a5b19081b9bdd08199bdd5b99608a1b60448201526064015b60405180910390fd5b6060600280548060200260200160405190810160405280929190818152602001828054801561033957602002820191905f5260205f209081546001600160a01b0316815260019091019060200180831161031b575050505050905090565b61045d6106f6565b600380546001810182555f919091527fc2575a0e9e593c00f959f8c92f12db2869c3395a3b0502d05e2516446f71f85b0180546001600160a01b0319166001600160a01b0383169081179091556040519081527f19ef9a4877199f89440a26acb26895ec02ed86f2df1aeaa90dc18041b892f71f9060200160405180910390a150565b6104e86106f6565b6104f15f610722565b565b60038181548110610502575f80fd5b5f918252602090912001546001600160a01b0316905081565b5f805b60035481101561056f57826001600160a01b0316600382815481106105455761054561088e565b5f918252602090912001546001600160a01b0316036105675750600192915050565b60010161051e565b505f92915050565b61057f6106f6565b5f805b6003548110156105ce57826001600160a01b0316600382815481106105a9576105a961088e565b5f918252602090912001546001600160a01b0316036105c6578091505b600101610582565b50600380546105df906001906108a2565b815481106105ef576105ef61088e565b5f91825260209091200154600380546001600160a01b03909216918390811061061a5761061a61088e565b905f5260205f20015f6101000a8154816001600160a01b0302191690836001600160a01b031602179055506003805480610656576106566108c7565b5f8281526020908190205f19908301810180546001600160a01b03191690559091019091556040516001600160a01b03841681527fb43ac7bf01d16ebcb8c868a4c03fecb1f6984ea4fa1a52c116ef282b8dbb17c5910160405180910390a15050565b6106c16106f6565b6001600160a01b0381166106ea57604051631e4fbdf760e01b81525f60048201526024016103ee565b6106f381610722565b50565b5f546001600160a01b031633146104f15760405163118cdaa760e01b81523360048201526024016103ee565b5f80546001600160a01b038381166001600160a01b0319831681178455604051919092169283917f8be0079c531659141344cd1fd0a4f28419497f9722a3daafe3b4186f6b6457e09190a35050565b5f602080835283518060208501525f5b8181101561079d57858101830151858201604001528201610781565b505f604082860101526040601f19601f8301168501019250505092915050565b602080825282518282018190525f9190848201906040850190845b818110156107fd5783516001600160a01b0316835292840192918401916001016107d8565b50909695505050505050565b6001600160a01b03811681146106f3575f80fd5b5f6020828403121561082d575f80fd5b813561083881610809565b9392505050565b5f6020828403121561084f575f80fd5b5035919050565b600181811c9082168061086a57607f821691505b60208210810361088857634e487b7160e01b5f52602260045260245ffd5b50919050565b634e487b7160e01b5f52603260045260245ffd5b818103818111156108c157634e487b7160e01b5f52601160045260245ffd5b92915050565b634e487b7160e01b5f52603160045260245ffdfea2646970667358221220c470be4ecfaef7568dc7e3f94624ccea62dee37fdb5915db055e05cf7a1844b364736f6c63430008180033a2646970667358221220573985c8f97ac5e454bfe721f5597c74f3cb73fc1e0b78cac0f733c45884b83364736f6c63430008180033608060405234801562000010575f80fd5b5060405162000d0938038062000d0983398101604081905262000033916200019c565b33806200005957604051631e4fbdf760e01b81525f600482015260240160405180910390fd5b620000648162000121565b50600180546001600160a01b038086166001600160a01b03199283161783556004805460ff1916841790556003805493840181555f527fc2575a0e9e593c00f959f8c92f12db2869c3395a3b0502d05e2516446f71f85b9092018054928516929091169190911790556005620000db82826200031e565b506040516001600160a01b03831681527f19ef9a4877199f89440a26acb26895ec02ed86f2df1aeaa90dc18041b892f71f9060200160405180910390a1505050620003ea565b5f80546001600160a01b038381166001600160a01b0319831681178455604051919092169283917f8be0079c531659141344cd1fd0a4f28419497f9722a3daafe3b4186f6b6457e09190a35050565b6001600160a01b038116811462000185575f80fd5b50565b634e487b7160e01b5f52604160045260245ffd5b5f805f60608486031215620001af575f80fd5b8351620001bc8162000170565b80935050602080850151620001d18162000170565b60408601519093506001600160401b0380821115620001ee575f80fd5b818701915087601f83011262000202575f80fd5b81518181111562000217576200021762000188565b604051601f8201601f19908116603f0116810190838211818310171562000242576200024262000188565b816040528281528a868487010111156200025a575f80fd5b5f93505b828410156200027d57848401860151818501870152928501926200025e565b5f8684830101528096505050505050509250925092565b600181811c90821680620002a957607f821691505b602082108103620002c857634e487b7160e01b5f52602260045260245ffd5b50919050565b601f8211156200031957805f5260205f20601f840160051c81016020851015620002f55750805b601f840160051c820191505b8181101562000316575f815560010162000301565b50505b505050565b81516001600160401b038111156200033a576200033a62000188565b62000352816200034b845462000294565b84620002ce565b602080601f83116001811462000388575f8415620003705750858301515b5f19600386901b1c1916600185901b178555620003e2565b5f85815260208120601f198616915b82811015620003b85788860151825594840194600190910190840162000397565b5085821015620003d657878501515f19600388901b60f8161c191681555b505060018460011b0185555b505050505050565b61091180620003f85f395ff3fe608060405234801561000f575f80fd5b50600436106100e5575f3560e01c806367c2a36011610088578063d8e7d36a11610063578063d8e7d36a1461020b578063ec17e13a1461021e578063ef097fc414610231578063f2fde38b14610244575f80fd5b806367c2a360146101e0578063715018a6146101f35780638da5cb5b146101fb575f80fd5b806325a10a70116100c357806325a10a701461017d578063267c4ae4146101a85780634892e8e8146101c557806360f96a8f146101cd575f80fd5b806306fdde03146100e95780631ba7214c146101075780631eee993a1461011c575b5f80fd5b6100f1610257565b6040516100fe9190610771565b60405180910390f35b61010f6102e3565b6040516100fe91906107bd565b61017b61012a36600461081d565b600280546001810182555f919091527f405787fa12a823e0f2b7631cc41b3ba8828b3321ca811111fa75cd3aa3bb5ace0180546001600160a01b0319166001600160a01b0392909216919091179055565b005b61019061018b36600461081d565b610343565b6040516001600160a01b0390911681526020016100fe565b6004546101b59060ff1681565b60405190151581526020016100fe565b61010f6103f7565b600154610190906001600160a01b031681565b61017b6101ee36600461081d565b610455565b61017b6104e0565b5f546001600160a01b0316610190565b61019061021936600461083f565b6104f3565b6101b561022c36600461081d565b61051b565b61017b61023f36600461081d565b610577565b61017b61025236600461081d565b6106b9565b6005805461026490610856565b80601f016020809104026020016040519081016040528092919081815260200182805461029090610856565b80156102db5780601f106102b2576101008083540402835291602001916102db565b820191905f5260205f20905b8154815290600101906020018083116102be57829003601f168201915b505050505081565b6060600380548060200260200160405190810160405280929190818152602001828054801561033957602002820191905f5260205f20905b81546001600160a01b0316815260019091019060200180831161031b575b5050505050905090565b5f8061034d6103f7565b90505f5b81518110156103b757836001600160a01b03168282815181106103765761037661088e565b60200260200101516001600160a01b0316036103af5781818151811061039e5761039e61088e565b602002602001015192505050919050565b600101610351565b5060405162461bcd60e51b815260206004820152600f60248201526e10da1a5b19081b9bdd08199bdd5b99608a1b60448201526064015b60405180910390fd5b6060600280548060200260200160405190810160405280929190818152602001828054801561033957602002820191905f5260205f209081546001600160a01b0316815260019091019060200180831161031b575050505050905090565b61045d6106f6565b600380546001810182555f919091527fc2575a0e9e593c00f959f8c92f12db2869c3395a3b0502d05e2516446f71f85b0180546001600160a01b0319166001600160a01b0383169081179091556040519081527f19ef9a4877199f89440a26acb26895ec02ed86f2df1aeaa90dc18041b892f71f9060200160405180910390a150565b6104e86106f6565b6104f15f610722565b565b60038181548110610502575f80fd5b5f918252602090912001546001600160a01b0316905081565b5f805b60035481101561056f57826001600160a01b0316600382815481106105455761054561088e565b5f918252602090912001546001600160a01b0316036105675750600192915050565b60010161051e565b505f92915050565b61057f6106f6565b5f805b6003548110156105ce57826001600160a01b0316600382815481106105a9576105a961088e565b5f918252602090912001546001600160a01b0316036105c6578091505b600101610582565b50600380546105df906001906108a2565b815481106105ef576105ef61088e565b5f91825260209091200154600380546001600160a01b03909216918390811061061a5761061a61088e565b905f5260205f20015f6101000a8154816001600160a01b0302191690836001600160a01b031602179055506003805480610656576106566108c7565b5f8281526020908190205f19908301810180546001600160a01b03191690559091019091556040516001600160a01b03841681527fb43ac7bf01d16ebcb8c868a4c03fecb1f6984ea4fa1a52c116ef282b8dbb17c5910160405180910390a15050565b6106c16106f6565b6001600160a01b0381166106ea57604051631e4fbdf760e01b81525f60048201526024016103ee565b6106f381610722565b50565b5f546001600160a01b031633146104f15760405163118cdaa760e01b81523360048201526024016103ee565b5f80546001600160a01b038381166001600160a01b0319831681178455604051919092169283917f8be0079c531659141344cd1fd0a4f28419497f9722a3daafe3b4186f6b6457e09190a35050565b5f602080835283518060208501525f5b8181101561079d57858101830151858201604001528201610781565b505f604082860101526040601f19601f8301168501019250505092915050565b602080825282518282018190525f9190848201906040850190845b818110156107fd5783516001600160a01b0316835292840192918401916001016107d8565b50909695505050505050565b6001600160a01b03811681146106f3575f80fd5b5f6020828403121561082d575f80fd5b813561083881610809565b9392505050565b5f6020828403121561084f575f80fd5b5035919050565b600181811c9082168061086a57607f821691505b60208210810361088857634e487b7160e01b5f52602260045260245ffd5b50919050565b634e487b7160e01b5f52603260045260245ffd5b818103818111156108c157634e487b7160e01b5f52601160045260245ffd5b92915050565b634e487b7160e01b5f52603160045260245ffdfea2646970667358221220c470be4ecfaef7568dc7e3f94624ccea62dee37fdb5915db055e05cf7a1844b364736f6c63430008180033",
      "linkReferences": {}
   },
   "methodIdentifiers": {
      "addUserToCustomer(address,address)": "f7ab64e1",
      "authorizeUser(address,address)": "34436ce5",
      "compareStrings(string,string)": "bed34bba",
      "createCustomer(address,string)": "9b9f34c4",
      "createDevice(address,string,string)": "2924d4ee",
      "createDevices(address,string[],string)": "cc1ed9e3",
      "customers(uint256)": "c0abda2a",
      "devices(uint256)": "10ff8e31",
      "getCustomers()": "f1ba7127",
      "getDeviceByIndex(uint256)": "e1f653b1",
      "getDeviceBySn(string)": "9b1fa7a8",
      "getDevices()": "d611d6c8",
      "getDevicesOfCustomer(address)": "40bbcc3e",
      "getDevicesUnderCustomer(address)": "d7c80d89",
      "owner()": "8da5cb5b",
      "removeUserFromCustomer(address,address)": "eb3599d2",
      "renounceOwnership()": "715018a6",
      "setDeviceCustomer(address,address)": "645ae3b3",
      "transferOwnership(address)": "f2fde38b"
   },
   "id": 27
}