{
  "abi": [
    {
      "type": "constructor",
      "inputs": [],
      "stateMutability": "nonpayable"
    },
    {
      "type": "function",
      "name": "addUserToCustomer",
      "inputs": [
        {
          "name": "customer",
          "type": "address",
          "internalType": "contract Customer"
        },
        {
          "name": "user",
          "type": "address",
          "internalType": "address"
        }
      ],
      "outputs": [],
      "stateMutability": "nonpayable"
    },
    {
      "type": "function",
      "name": "authorizeUser",
      "inputs": [
        {
          "name": "customer",
          "type": "address",
          "internalType": "contract Customer"
        },
        {
          "name": "user",
          "type": "address",
          "internalType": "address"
        }
      ],
      "outputs": [],
      "stateMutability": "nonpayable"
    },
    {
      "type": "function",
      "name": "createCustomer",
      "inputs": [
        {
          "name": "parent",
          "type": "address",
          "internalType": "contract Customer"
        },
        {
          "name": "_name",
          "type": "string",
          "internalType": "string"
        }
      ],
      "outputs": [
        {
          "name": "newCustomer",
          "type": "address",
          "internalType": "contract Customer"
        }
      ],
      "stateMutability": "nonpayable"
    },
    {
      "type": "function",
      "name": "createDevice",
      "inputs": [
        {
          "name": "customer",
          "type": "address",
          "internalType": "contract Customer"
        },
        {
          "name": "sn",
          "type": "bytes32",
          "internalType": "bytes32"
        }
      ],
      "outputs": [
        {
          "name": "newDevice",
          "type": "address",
          "internalType": "contract Device"
        }
      ],
      "stateMutability": "nonpayable"
    },
    {
      "type": "function",
      "name": "createDevices",
      "inputs": [
        {
          "name": "customer",
          "type": "address",
          "internalType": "contract Customer"
        },
        {
          "name": "sns",
          "type": "bytes32[]",
          "internalType": "bytes32[]"
        }
      ],
      "outputs": [
        {
          "name": "newDevices",
          "type": "address[]",
          "internalType": "contract Device[]"
        }
      ],
      "stateMutability": "nonpayable"
    },
    {
      "type": "function",
      "name": "customers",
      "inputs": [
        {
          "name": "",
          "type": "uint256",
          "internalType": "uint256"
        }
      ],
      "outputs": [
        {
          "name": "",
          "type": "address",
          "internalType": "contract Customer"
        }
      ],
      "stateMutability": "view"
    },
    {
      "type": "function",
      "name": "devices",
      "inputs": [
        {
          "name": "",
          "type": "uint256",
          "internalType": "uint256"
        }
      ],
      "outputs": [
        {
          "name": "",
          "type": "address",
          "internalType": "contract Device"
        }
      ],
      "stateMutability": "view"
    },
    {
      "type": "function",
      "name": "getCustomers",
      "inputs": [],
      "outputs": [
        {
          "name": "",
          "type": "address[]",
          "internalType": "contract Customer[]"
        }
      ],
      "stateMutability": "view"
    },
    {
      "type": "function",
      "name": "getDeviceByIndex",
      "inputs": [
        {
          "name": "index",
          "type": "uint256",
          "internalType": "uint256"
        }
      ],
      "outputs": [
        {
          "name": "device",
          "type": "address",
          "internalType": "contract Device"
        }
      ],
      "stateMutability": "view"
    },
    {
      "type": "function",
      "name": "getDeviceBySn",
      "inputs": [
        {
          "name": "sn",
          "type": "bytes32",
          "internalType": "bytes32"
        }
      ],
      "outputs": [
        {
          "name": "device",
          "type": "address",
          "internalType": "contract Device"
        }
      ],
      "stateMutability": "view"
    },
    {
      "type": "function",
      "name": "getDevices",
      "inputs": [],
      "outputs": [
        {
          "name": "",
          "type": "address[]",
          "internalType": "contract Device[]"
        }
      ],
      "stateMutability": "view"
    },
    {
      "type": "function",
      "name": "getDevicesOfCustomer",
      "inputs": [
        {
          "name": "customer",
          "type": "address",
          "internalType": "contract Customer"
        }
      ],
      "outputs": [
        {
          "name": "",
          "type": "address[]",
          "internalType": "contract Device[]"
        }
      ],
      "stateMutability": "view"
    },
    {
      "type": "function",
      "name": "getDevicesUnderCustomer",
      "inputs": [
        {
          "name": "customer",
          "type": "address",
          "internalType": "contract Customer"
        }
      ],
      "outputs": [
        {
          "name": "",
          "type": "address[]",
          "internalType": "contract Device[]"
        }
      ],
      "stateMutability": "view"
    },
    {
      "type": "function",
      "name": "owner",
      "inputs": [],
      "outputs": [
        {
          "name": "",
          "type": "address",
          "internalType": "address"
        }
      ],
      "stateMutability": "view"
    },
    {
      "type": "function",
      "name": "removeUserFromCustomer",
      "inputs": [
        {
          "name": "customer",
          "type": "address",
          "internalType": "contract Customer"
        },
        {
          "name": "user",
          "type": "address",
          "internalType": "address"
        }
      ],
      "outputs": [],
      "stateMutability": "nonpayable"
    },
    {
      "type": "function",
      "name": "renounceOwnership",
      "inputs": [],
      "outputs": [],
      "stateMutability": "nonpayable"
    },
    {
      "type": "function",
      "name": "setDeviceCustomer",
      "inputs": [
        {
          "name": "customer",
          "type": "address",
          "internalType": "contract Customer"
        },
        {
          "name": "device",
          "type": "address",
          "internalType": "contract Device"
        }
      ],
      "outputs": [],
      "stateMutability": "nonpayable"
    },
    {
      "type": "function",
      "name": "transferOwnership",
      "inputs": [
        {
          "name": "newOwner",
          "type": "address",
          "internalType": "address"
        }
      ],
      "outputs": [],
      "stateMutability": "nonpayable"
    },
    {
      "type": "event",
      "name": "CustomerCreated",
      "inputs": [
        {
          "name": "customerAddress",
          "type": "address",
          "indexed": false,
          "internalType": "address"
        },
        {
          "name": "parent",
          "type": "address",
          "indexed": false,
          "internalType": "address"
        }
      ],
      "anonymous": false
    },
    {
      "type": "event",
      "name": "DeviceAssigned",
      "inputs": [
        {
          "name": "customer",
          "type": "address",
          "indexed": false,
          "internalType": "address"
        },
        {
          "name": "device",
          "type": "address",
          "indexed": false,
          "internalType": "address"
        }
      ],
      "anonymous": false
    },
    {
      "type": "event",
      "name": "DeviceCreated",
      "inputs": [
        {
          "name": "customer",
          "type": "address",
          "indexed": false,
          "internalType": "address"
        },
        {
          "name": "deviceAddress",
          "type": "address",
          "indexed": false,
          "internalType": "address"
        },
        {
          "name": "sn",
          "type": "bytes32",
          "indexed": false,
          "internalType": "bytes32"
        }
      ],
      "anonymous": false
    },
    {
      "type": "event",
      "name": "OwnershipTransferred",
      "inputs": [
        {
          "name": "previousOwner",
          "type": "address",
          "indexed": true,
          "internalType": "address"
        },
        {
          "name": "newOwner",
          "type": "address",
          "indexed": true,
          "internalType": "address"
        }
      ],
      "anonymous": false
    },
    {
      "type": "error",
      "name": "OwnableInvalidOwner",
      "inputs": [
        {
          "name": "owner",
          "type": "address",
          "internalType": "address"
        }
      ]
    },
    {
      "type": "error",
      "name": "OwnableUnauthorizedAccount",
      "inputs": [
        {
          "name": "account",
          "type": "address",
          "internalType": "address"
        }
      ]
    }
  ],
  "bytecode": {
    "object": "0x608060405234801562000010575f80fd5b50335f73ffffffffffffffffffffffffffffffffffffffff168173ffffffffffffffffffffffffffffffffffffffff160362000085575f6040517f1e4fbdf70000000000000000000000000000000000000000000000000000000081526004016200007c91906200024b565b60405180910390fd5b62000096816200013960201b60201c565b505f8033604051620000a890620001fa565b620000b59291906200032b565b604051809103905ff080158015620000cf573d5f803e3d5ffd5b509050600181908060018154018082558091505060019003905f5260205f20015f9091909190916101000a81548173ffffffffffffffffffffffffffffffffffffffff021916908373ffffffffffffffffffffffffffffffffffffffff160217905550506200036b565b5f805f9054906101000a900473ffffffffffffffffffffffffffffffffffffffff169050815f806101000a81548173ffffffffffffffffffffffffffffffffffffffff021916908373ffffffffffffffffffffffffffffffffffffffff1602179055508173ffffffffffffffffffffffffffffffffffffffff168173ffffffffffffffffffffffffffffffffffffffff167f8be0079c531659141344cd1fd0a4f28419497f9722a3daafe3b4186f6b6457e060405160405180910390a35050565b61157d80620053bf83390190565b5f73ffffffffffffffffffffffffffffffffffffffff82169050919050565b5f620002338262000208565b9050919050565b620002458162000227565b82525050565b5f602082019050620002605f8301846200023a565b92915050565b5f819050919050565b5f6200028f62000289620002838462000208565b62000266565b62000208565b9050919050565b5f620002a2826200026f565b9050919050565b5f620002b58262000296565b9050919050565b620002c781620002a9565b82525050565b5f82825260208201905092915050565b7f526f6f74000000000000000000000000000000000000000000000000000000005f82015250565b5f62000313600483620002cd565b91506200032082620002dd565b602082019050919050565b5f606082019050620003405f830185620002bc565b6200034f60208301846200023a565b8181036040830152620003628162000305565b90509392505050565b61504680620003795f395ff3fe608060405234801562000010575f80fd5b50600436106200012e575f3560e01c80639b9f34c411620000af578063e1f653b11162000079578063e1f653b11462000372578063eb3599d214620003a8578063f1ba712714620003c8578063f2fde38b14620003ea578063f7ab64e1146200040a576200012e565b80639b9f34c414620002ae578063c0abda2a14620002e4578063d611d6c8146200031a578063d7c80d89146200033c576200012e565b80634bbc4cb211620000fd5780634bbc4cb214620001f45780635baf423f146200022a578063645ae3b31462000260578063715018a614620002805780638da5cb5b146200028c576200012e565b806310ff8e31146200013257806334436ce514620001685780633f492428146200018857806340bbcc3e14620001be575b5f80fd5b6200015060048036038101906200014a919062002201565b6200042a565b6040516200015f9190620022b7565b60405180910390f35b62000186600480360381019062000180919062002356565b62000466565b005b620001a66004803603810190620001a09190620023d3565b62000618565b604051620001b59190620022b7565b60405180910390f35b620001dc6004803603810190620001d6919062002418565b6200094d565b604051620001eb91906200250f565b60405180910390f35b6200021260048036038101906200020c919062002531565b62000bc0565b604051620002219190620022b7565b60405180910390f35b620002486004803603810190620002429190620025cb565b62000cba565b6040516200025791906200250f565b60405180910390f35b6200027e600480360381019062000278919062002674565b62000eee565b005b6200028a6200114a565b005b6200029662001161565b604051620002a59190620026ca565b60405180910390f35b620002cc6004803603810190620002c6919062002839565b62001188565b604051620002db9190620028c1565b60405180910390f35b620003026004803603810190620002fc919062002201565b62001414565b604051620003119190620028c1565b60405180910390f35b6200032462001450565b6040516200033391906200250f565b60405180910390f35b6200035a600480360381019062000354919062002418565b620014dd565b6040516200036991906200250f565b60405180910390f35b6200039060048036038101906200038a919062002201565b620017a7565b6040516200039f9190620022b7565b60405180910390f35b620003c66004803603810190620003c0919062002356565b620017ee565b005b620003d2620019a0565b604051620003e1919062002993565b60405180910390f35b620004086004803603810190620004029190620029b5565b62001a2d565b005b62000428600480360381019062000422919062002356565b62001ab8565b005b600281815481106200043a575f80fd5b905f5260205f20015f915054906101000a900473ffffffffffffffffffffffffffffffffffffffff1681565b815f73ffffffffffffffffffffffffffffffffffffffff168173ffffffffffffffffffffffffffffffffffffffff1614158015620005175750600115158173ffffffffffffffffffffffffffffffffffffffff1663267c4ae46040518163ffffffff1660e01b8152600401602060405180830381865afa158015620004ed573d5f803e3d5ffd5b505050506040513d601f19601f8201168201806040525081019062000513919062002a1f565b1515145b62000559576040517f08c379a0000000000000000000000000000000000000000000000000000000008152600401620005509062002aad565b60405180910390fd5b8262000566338262001c6a565b620005a8576040517f08c379a00000000000000000000000000000000000000000000000000000000081526004016200059f9062002b1b565b60405180910390fd5b8373ffffffffffffffffffffffffffffffffffffffff166367c2a360846040518263ffffffff1660e01b8152600401620005e39190620026ca565b5f604051808303815f87803b158015620005fb575f80fd5b505af11580156200060e573d5f803e3d5ffd5b5050505050505050565b5f825f73ffffffffffffffffffffffffffffffffffffffff168173ffffffffffffffffffffffffffffffffffffffff1614158015620006ca5750600115158173ffffffffffffffffffffffffffffffffffffffff1663267c4ae46040518163ffffffff1660e01b8152600401602060405180830381865afa158015620006a0573d5f803e3d5ffd5b505050506040513d601f19601f82011682018060405250810190620006c6919062002a1f565b1515145b6200070c576040517f08c379a0000000000000000000000000000000000000000000000000000000008152600401620007039062002aad565b60405180910390fd5b825f5b6002805490508110156200081d57816002828154811062000735576200073462002b3b565b5b905f5260205f20015f9054906101000a900473ffffffffffffffffffffffffffffffffffffffff1673ffffffffffffffffffffffffffffffffffffffff1663f872bec06040518163ffffffff1660e01b8152600401602060405180830381865afa158015620007a6573d5f803e3d5ffd5b505050506040513d601f19601f82011682018060405250810190620007cc919062002b7e565b036200080f576040517f08c379a0000000000000000000000000000000000000000000000000000000008152600401620008069062002bfc565b60405180910390fd5b80806001019150506200070f565b50846200082b338262001c6a565b6200086d576040517f08c379a0000000000000000000000000000000000000000000000000000000008152600401620008649062002b1b565b60405180910390fd5b85856040516200087d906200219c565b6200088a92919062002c2d565b604051809103905ff080158015620008a4573d5f803e3d5ffd5b509350600284908060018154018082558091505060019003905f5260205f20015f9091909190916101000a81548173ffffffffffffffffffffffffffffffffffffffff021916908373ffffffffffffffffffffffffffffffffffffffff1602179055507faba505d4baf2cd0d0707e6a557625c688c5b3ce183dbc70aa0e43ad2257d6cc78685876040516200093c9392919062002c58565b60405180910390a150505092915050565b60605f60028054905067ffffffffffffffff811115620009725762000971620026f9565b5b604051908082528060200260200182016040528015620009a15781602001602082028036833780820191505090505b5090505f805b60028054905081101562000adc578473ffffffffffffffffffffffffffffffffffffffff16620009d782620017a7565b73ffffffffffffffffffffffffffffffffffffffff16632804b2c06040518163ffffffff1660e01b8152600401602060405180830381865afa15801562000a20573d5f803e3d5ffd5b505050506040513d601f19601f8201168201806040525081019062000a46919062002ca9565b73ffffffffffffffffffffffffffffffffffffffff160362000ace5762000a6d81620017a7565b83838151811062000a835762000a8262002b3b565b5b602002602001019073ffffffffffffffffffffffffffffffffffffffff16908173ffffffffffffffffffffffffffffffffffffffff1681525050818062000aca9062002d06565b9250505b8080600101915050620009a7565b505f8167ffffffffffffffff81111562000afb5762000afa620026f9565b5b60405190808252806020026020018201604052801562000b2a5781602001602082028036833780820191505090505b5090505f5b8281101562000bb45783818151811062000b4e5762000b4d62002b3b565b5b602002602001015182828151811062000b6c5762000b6b62002b3b565b5b602002602001019073ffffffffffffffffffffffffffffffffffffffff16908173ffffffffffffffffffffffffffffffffffffffff1681525050808060010191505062000b2f565b50809350505050919050565b5f805f90505b60028054905081101562000c77578262000be082620017a7565b73ffffffffffffffffffffffffffffffffffffffff1663f872bec06040518163ffffffff1660e01b8152600401602060405180830381865afa15801562000c29573d5f803e3d5ffd5b505050506040513d601f19601f8201168201806040525081019062000c4f919062002b7e565b0362000c695762000c6081620017a7565b91505062000cb5565b808060010191505062000bc6565b506040517f08c379a000000000000000000000000000000000000000000000000000000000815260040162000cac9062002da0565b60405180910390fd5b919050565b6060835f73ffffffffffffffffffffffffffffffffffffffff168173ffffffffffffffffffffffffffffffffffffffff161415801562000d6d5750600115158173ffffffffffffffffffffffffffffffffffffffff1663267c4ae46040518163ffffffff1660e01b8152600401602060405180830381865afa15801562000d43573d5f803e3d5ffd5b505050506040513d601f19601f8201168201806040525081019062000d69919062002a1f565b1515145b62000daf576040517f08c379a000000000000000000000000000000000000000000000000000000000815260040162000da69062002aad565b60405180910390fd5b8462000dbc338262001c6a565b62000dfe576040517f08c379a000000000000000000000000000000000000000000000000000000000815260040162000df59062002b1b565b60405180910390fd5b8484905067ffffffffffffffff81111562000e1e5762000e1d620026f9565b5b60405190808252806020026020018201604052801562000e4d5781602001602082028036833780820191505090505b5092505f5b8585905081101562000ee45762000e868787878481811062000e795762000e7862002b3b565b5b9050602002013562000618565b84828151811062000e9c5762000e9b62002b3b565b5b602002602001019073ffffffffffffffffffffffffffffffffffffffff16908173ffffffffffffffffffffffffffffffffffffffff1681525050808060010191505062000e52565b5050509392505050565b8073ffffffffffffffffffffffffffffffffffffffff16632804b2c06040518163ffffffff1660e01b8152600401602060405180830381865afa15801562000f38573d5f803e3d5ffd5b505050506040513d601f19601f8201168201806040525081019062000f5e919062002ca9565b62000f6a338262001c6a565b62000fac576040517f08c379a000000000000000000000000000000000000000000000000000000000815260040162000fa39062002b1b565b60405180910390fd5b825f73ffffffffffffffffffffffffffffffffffffffff168173ffffffffffffffffffffffffffffffffffffffff16141580156200105d5750600115158173ffffffffffffffffffffffffffffffffffffffff1663267c4ae46040518163ffffffff1660e01b8152600401602060405180830381865afa15801562001033573d5f803e3d5ffd5b505050506040513d601f19601f8201168201806040525081019062001059919062002a1f565b1515145b6200109f576040517f08c379a0000000000000000000000000000000000000000000000000000000008152600401620010969062002aad565b60405180910390fd5b8273ffffffffffffffffffffffffffffffffffffffff1663620c0c4b856040518263ffffffff1660e01b8152600401620010da9190620028c1565b5f604051808303815f87803b158015620010f2575f80fd5b505af115801562001105573d5f803e3d5ffd5b505050507f6589dc94843e0a8aa870e5c8bcf2fdd91ed0e0a26442e17e4f098db6b6bc2bfe84846040516200113c92919062002dc0565b60405180910390a150505050565b6200115462001eb2565b6200115f5f62001f42565b565b5f805f9054906101000a900473ffffffffffffffffffffffffffffffffffffffff16905090565b5f825f73ffffffffffffffffffffffffffffffffffffffff168173ffffffffffffffffffffffffffffffffffffffff16141580156200123a5750600115158173ffffffffffffffffffffffffffffffffffffffff1663267c4ae46040518163ffffffff1660e01b8152600401602060405180830381865afa15801562001210573d5f803e3d5ffd5b505050506040513d601f19601f8201168201806040525081019062001236919062002a1f565b1515145b6200127c576040517f08c379a0000000000000000000000000000000000000000000000000000000008152600401620012739062002aad565b60405180910390fd5b8362001289338262001c6a565b620012cb576040517f08c379a0000000000000000000000000000000000000000000000000000000008152600401620012c29062002b1b565b60405180910390fd5b843385604051620012dc90620021aa565b620012ea9392919062002e5f565b604051809103905ff08015801562001304573d5f803e3d5ffd5b509250600183908060018154018082558091505060019003905f5260205f20015f9091909190916101000a81548173ffffffffffffffffffffffffffffffffffffffff021916908373ffffffffffffffffffffffffffffffffffffffff1602179055508473ffffffffffffffffffffffffffffffffffffffff16631eee993a846040518263ffffffff1660e01b8152600401620013a29190620028c1565b5f604051808303815f87803b158015620013ba575f80fd5b505af1158015620013cd573d5f803e3d5ffd5b505050507f85f6e79cf83af1b4acc033f88391b65cf5441b4553e1fe67dda9b9784a839d5f83866040516200140492919062002dc0565b60405180910390a1505092915050565b6001818154811062001424575f80fd5b905f5260205f20015f915054906101000a900473ffffffffffffffffffffffffffffffffffffffff1681565b60606002805480602002602001604051908101604052809291908181526020018280548015620014d357602002820191905f5260205f20905b815f9054906101000a900473ffffffffffffffffffffffffffffffffffffffff1673ffffffffffffffffffffffffffffffffffffffff168152602001906001019080831162001489575b5050505050905090565b6060815f73ffffffffffffffffffffffffffffffffffffffff168173ffffffffffffffffffffffffffffffffffffffff1614158015620015905750600115158173ffffffffffffffffffffffffffffffffffffffff1663267c4ae46040518163ffffffff1660e01b8152600401602060405180830381865afa15801562001566573d5f803e3d5ffd5b505050506040513d601f19601f820116820180604052508101906200158c919062002a1f565b1515145b620015d2576040517f08c379a0000000000000000000000000000000000000000000000000000000008152600401620015c99062002aad565b60405180910390fd5b82620015df338262001c6a565b62001621576040517f08c379a0000000000000000000000000000000000000000000000000000000008152600401620016189062002b1b565b60405180910390fd5b5f8473ffffffffffffffffffffffffffffffffffffffff16634892e8e86040518163ffffffff1660e01b81526004015f60405180830381865afa1580156200166b573d5f803e3d5ffd5b505050506040513d5f823e3d601f19601f8201168201806040525081019062001695919062002f74565b5190505f8103620016b457620016ab856200094d565b935050620017a0565b60605f620016c2876200094d565b9050620016d0828262002003565b91505f8773ffffffffffffffffffffffffffffffffffffffff16634892e8e86040518163ffffffff1660e01b81526004015f60405180830381865afa1580156200171c573d5f803e3d5ffd5b505050506040513d5f823e3d601f19601f8201168201806040525081019062001746919062002f74565b90505f5b8151811015620017975762001787846200178184848151811062001773576200177262002b3b565b5b6020026020010151620014dd565b62002003565b935080806001019150506200174a565b50829650505050505b5050919050565b5f60028281548110620017bf57620017be62002b3b565b5b905f5260205f20015f9054906101000a900473ffffffffffffffffffffffffffffffffffffffff169050919050565b815f73ffffffffffffffffffffffffffffffffffffffff168173ffffffffffffffffffffffffffffffffffffffff16141580156200189f5750600115158173ffffffffffffffffffffffffffffffffffffffff1663267c4ae46040518163ffffffff1660e01b8152600401602060405180830381865afa15801562001875573d5f803e3d5ffd5b505050506040513d601f19601f820116820180604052508101906200189b919062002a1f565b1515145b620018e1576040517f08c379a0000000000000000000000000000000000000000000000000000000008152600401620018d89062002aad565b60405180910390fd5b82620018ee338262001c6a565b62001930576040517f08c379a0000000000000000000000000000000000000000000000000000000008152600401620019279062002b1b565b60405180910390fd5b8373ffffffffffffffffffffffffffffffffffffffff1663ef097fc4846040518263ffffffff1660e01b81526004016200196b9190620026ca565b5f604051808303815f87803b15801562001983575f80fd5b505af115801562001996573d5f803e3d5ffd5b5050505050505050565b6060600180548060200260200160405190810160405280929190818152602001828054801562001a2357602002820191905f5260205f20905b815f9054906101000a900473ffffffffffffffffffffffffffffffffffffffff1673ffffffffffffffffffffffffffffffffffffffff1681526020019060010190808311620019d9575b5050505050905090565b62001a3762001eb2565b5f73ffffffffffffffffffffffffffffffffffffffff168173ffffffffffffffffffffffffffffffffffffffff160362001aaa575f6040517f1e4fbdf700000000000000000000000000000000000000000000000000000000815260040162001aa19190620026ca565b60405180910390fd5b62001ab58162001f42565b50565b815f73ffffffffffffffffffffffffffffffffffffffff168173ffffffffffffffffffffffffffffffffffffffff161415801562001b695750600115158173ffffffffffffffffffffffffffffffffffffffff1663267c4ae46040518163ffffffff1660e01b8152600401602060405180830381865afa15801562001b3f573d5f803e3d5ffd5b505050506040513d601f19601f8201168201806040525081019062001b65919062002a1f565b1515145b62001bab576040517f08c379a000000000000000000000000000000000000000000000000000000000815260040162001ba29062002aad565b60405180910390fd5b8262001bb8338262001c6a565b62001bfa576040517f08c379a000000000000000000000000000000000000000000000000000000000815260040162001bf19062002b1b565b60405180910390fd5b8373ffffffffffffffffffffffffffffffffffffffff166367c2a360846040518263ffffffff1660e01b815260040162001c359190620026ca565b5f604051808303815f87803b15801562001c4d575f80fd5b505af115801562001c60573d5f803e3d5ffd5b5050505050505050565b5f808290505b5f73ffffffffffffffffffffffffffffffffffffffff168173ffffffffffffffffffffffffffffffffffffffff166360f96a8f6040518163ffffffff1660e01b8152600401602060405180830381865afa15801562001cd1573d5f803e3d5ffd5b505050506040513d601f19601f8201168201806040525081019062001cf7919062002ca9565b73ffffffffffffffffffffffffffffffffffffffff161462001e19578073ffffffffffffffffffffffffffffffffffffffff1663ec17e13a856040518263ffffffff1660e01b815260040162001d4e9190620026ca565b602060405180830381865afa15801562001d6a573d5f803e3d5ffd5b505050506040513d601f19601f8201168201806040525081019062001d90919062002a1f565b1562001da157600191505062001eac565b8073ffffffffffffffffffffffffffffffffffffffff166360f96a8f6040518163ffffffff1660e01b8152600401602060405180830381865afa15801562001deb573d5f803e3d5ffd5b505050506040513d601f19601f8201168201806040525081019062001e11919062002ca9565b905062001c70565b8073ffffffffffffffffffffffffffffffffffffffff1663ec17e13a856040518263ffffffff1660e01b815260040162001e549190620026ca565b602060405180830381865afa15801562001e70573d5f803e3d5ffd5b505050506040513d601f19601f8201168201806040525081019062001e96919062002a1f565b1562001ea757600191505062001eac565b5f9150505b92915050565b62001ebc62002195565b73ffffffffffffffffffffffffffffffffffffffff1662001edc62001161565b73ffffffffffffffffffffffffffffffffffffffff161462001f405762001f0262002195565b6040517f118cdaa700000000000000000000000000000000000000000000000000000000815260040162001f379190620026ca565b60405180910390fd5b565b5f805f9054906101000a900473ffffffffffffffffffffffffffffffffffffffff169050815f806101000a81548173ffffffffffffffffffffffffffffffffffffffff021916908373ffffffffffffffffffffffffffffffffffffffff1602179055508173ffffffffffffffffffffffffffffffffffffffff168173ffffffffffffffffffffffffffffffffffffffff167f8be0079c531659141344cd1fd0a4f28419497f9722a3daafe3b4186f6b6457e060405160405180910390a35050565b60605f835190505f835190505f81836200201e919062002fc3565b67ffffffffffffffff8111156200203a5762002039620026f9565b5b604051908082528060200260200182016040528015620020695781602001602082028036833780820191505090505b5090505f5b83811015620020f3578681815181106200208d576200208c62002b3b565b5b6020026020010151828281518110620020ab57620020aa62002b3b565b5b602002602001019073ffffffffffffffffffffffffffffffffffffffff16908173ffffffffffffffffffffffffffffffffffffffff168152505080806001019150506200206e565b505f5b82811015620021885785818151811062002115576200211462002b3b565b5b60200260200101518282866200212c919062002fc3565b8151811062002140576200213f62002b3b565b5b602002602001019073ffffffffffffffffffffffffffffffffffffffff16908173ffffffffffffffffffffffffffffffffffffffff16815250508080600101915050620020f6565b5080935050505092915050565b5f33905090565b610a968062002ffe83390190565b61157d8062003a9483390190565b5f604051905090565b5f80fd5b5f80fd5b5f819050919050565b620021dd81620021c9565b8114620021e8575f80fd5b50565b5f81359050620021fb81620021d2565b92915050565b5f60208284031215620022195762002218620021c1565b5b5f6200222884828501620021eb565b91505092915050565b5f73ffffffffffffffffffffffffffffffffffffffff82169050919050565b5f819050919050565b5f62002279620022736200226d8462002231565b62002250565b62002231565b9050919050565b5f6200228c8262002259565b9050919050565b5f6200229f8262002280565b9050919050565b620022b18162002293565b82525050565b5f602082019050620022cc5f830184620022a6565b92915050565b5f620022de8262002231565b9050919050565b5f620022f182620022d2565b9050919050565b6200230381620022e5565b81146200230e575f80fd5b50565b5f813590506200232181620022f8565b92915050565b6200233281620022d2565b81146200233d575f80fd5b50565b5f81359050620023508162002327565b92915050565b5f80604083850312156200236f576200236e620021c1565b5b5f6200237e8582860162002311565b9250506020620023918582860162002340565b9150509250929050565b5f819050919050565b620023af816200239b565b8114620023ba575f80fd5b50565b5f81359050620023cd81620023a4565b92915050565b5f8060408385031215620023ec57620023eb620021c1565b5b5f620023fb8582860162002311565b92505060206200240e85828601620023bd565b9150509250929050565b5f6020828403121562002430576200242f620021c1565b5b5f6200243f8482850162002311565b91505092915050565b5f81519050919050565b5f82825260208201905092915050565b5f819050602082019050919050565b6200247c8162002293565b82525050565b5f6200248f838362002471565b60208301905092915050565b5f602082019050919050565b5f620024b38262002448565b620024bf818562002452565b9350620024cc8362002462565b805f5b8381101562002502578151620024e6888262002482565b9750620024f3836200249b565b925050600181019050620024cf565b5085935050505092915050565b5f6020820190508181035f830152620025298184620024a7565b905092915050565b5f60208284031215620025495762002548620021c1565b5b5f6200255884828501620023bd565b91505092915050565b5f80fd5b5f80fd5b5f80fd5b5f8083601f84011262002585576200258462002561565b5b8235905067ffffffffffffffff811115620025a557620025a462002565565b5b602083019150836020820283011115620025c457620025c362002569565b5b9250929050565b5f805f60408486031215620025e557620025e4620021c1565b5b5f620025f48682870162002311565b935050602084013567ffffffffffffffff811115620026185762002617620021c5565b5b62002626868287016200256d565b92509250509250925092565b5f6200263e82620022d2565b9050919050565b620026508162002632565b81146200265b575f80fd5b50565b5f813590506200266e8162002645565b92915050565b5f80604083850312156200268d576200268c620021c1565b5b5f6200269c8582860162002311565b9250506020620026af858286016200265e565b9150509250929050565b620026c481620022d2565b82525050565b5f602082019050620026df5f830184620026b9565b92915050565b5f80fd5b5f601f19601f8301169050919050565b7f4e487b71000000000000000000000000000000000000000000000000000000005f52604160045260245ffd5b6200273182620026e9565b810181811067ffffffffffffffff82111715620027535762002752620026f9565b5b80604052505050565b5f62002767620021b8565b905062002775828262002726565b919050565b5f67ffffffffffffffff821115620027975762002796620026f9565b5b620027a282620026e9565b9050602081019050919050565b828183375f83830152505050565b5f620027d3620027cd846200277a565b6200275c565b905082815260208101848484011115620027f257620027f1620026e5565b5b620027ff848285620027af565b509392505050565b5f82601f8301126200281e576200281d62002561565b5b813562002830848260208601620027bd565b91505092915050565b5f8060408385031215620028525762002851620021c1565b5b5f620028618582860162002311565b925050602083013567ffffffffffffffff811115620028855762002884620021c5565b5b620028938582860162002807565b9150509250929050565b5f620028a98262002280565b9050919050565b620028bb816200289d565b82525050565b5f602082019050620028d65f830184620028b0565b92915050565b5f81519050919050565b5f819050602082019050919050565b62002900816200289d565b82525050565b5f620029138383620028f5565b60208301905092915050565b5f602082019050919050565b5f6200293782620028dc565b62002943818562002452565b93506200295083620028e6565b805f5b83811015620029865781516200296a888262002906565b975062002977836200291f565b92505060018101905062002953565b5085935050505092915050565b5f6020820190508181035f830152620029ad81846200292b565b905092915050565b5f60208284031215620029cd57620029cc620021c1565b5b5f620029dc8482850162002340565b91505092915050565b5f8115159050919050565b620029fb81620029e5565b811462002a06575f80fd5b50565b5f8151905062002a1981620029f0565b92915050565b5f6020828403121562002a375762002a36620021c1565b5b5f62002a468482850162002a09565b91505092915050565b5f82825260208201905092915050565b7f437573746f6d6572206e6f7420666f756e6400000000000000000000000000005f82015250565b5f62002a9560128362002a4f565b915062002aa28262002a5f565b602082019050919050565b5f6020820190508181035f83015262002ac68162002a87565b9050919050565b7f556e617574686f72697a6564206f7065726174696f6e000000000000000000005f82015250565b5f62002b0360168362002a4f565b915062002b108262002acd565b602082019050919050565b5f6020820190508181035f83015262002b348162002af5565b9050919050565b7f4e487b71000000000000000000000000000000000000000000000000000000005f52603260045260245ffd5b5f8151905062002b7881620023a4565b92915050565b5f6020828403121562002b965762002b95620021c1565b5b5f62002ba58482850162002b68565b91505092915050565b7f534e206d75737420626520756e697175650000000000000000000000000000005f82015250565b5f62002be460118362002a4f565b915062002bf18262002bae565b602082019050919050565b5f6020820190508181035f83015262002c158162002bd6565b9050919050565b62002c27816200239b565b82525050565b5f60408201905062002c425f830185620028b0565b62002c51602083018462002c1c565b9392505050565b5f60608201905062002c6d5f830186620026b9565b62002c7c6020830185620026b9565b62002c8b604083018462002c1c565b949350505050565b5f8151905062002ca381620022f8565b92915050565b5f6020828403121562002cc15762002cc0620021c1565b5b5f62002cd08482850162002c93565b91505092915050565b7f4e487b71000000000000000000000000000000000000000000000000000000005f52601160045260245ffd5b5f62002d1282620021c9565b91507fffffffffffffffffffffffffffffffffffffffffffffffffffffffffffffffff820362002d475762002d4662002cd9565b5b600182019050919050565b7f446576696365206e6f7420666f756e64000000000000000000000000000000005f82015250565b5f62002d8860108362002a4f565b915062002d958262002d52565b602082019050919050565b5f6020820190508181035f83015262002db98162002d7a565b9050919050565b5f60408201905062002dd55f830185620026b9565b62002de46020830184620026b9565b9392505050565b5f81519050919050565b5f5b8381101562002e1457808201518184015260208101905062002df7565b5f8484015250505050565b5f62002e2b8262002deb565b62002e37818562002a4f565b935062002e4981856020860162002df5565b62002e5481620026e9565b840191505092915050565b5f60608201905062002e745f830186620028b0565b62002e836020830185620026b9565b818103604083015262002e97818462002e1f565b9050949350505050565b5f67ffffffffffffffff82111562002ebe5762002ebd620026f9565b5b602082029050602081019050919050565b5f62002ee562002edf8462002ea1565b6200275c565b9050808382526020820190506020840283018581111562002f0b5762002f0a62002569565b5b835b8181101562002f38578062002f23888262002c93565b84526020840193505060208101905062002f0d565b5050509392505050565b5f82601f83011262002f595762002f5862002561565b5b815162002f6b84826020860162002ecf565b91505092915050565b5f6020828403121562002f8c5762002f8b620021c1565b5b5f82015167ffffffffffffffff81111562002fac5762002fab620021c5565b5b62002fba8482850162002f42565b91505092915050565b5f62002fcf82620021c9565b915062002fdc83620021c9565b925082820190508082111562002ff75762002ff662002cd9565b5b9291505056fe608060405234801562000010575f80fd5b5060405162000a9638038062000a96833981810160405281019062000036919062000295565b335f73ffffffffffffffffffffffffffffffffffffffff168173ffffffffffffffffffffffffffffffffffffffff1603620000aa575f6040517f1e4fbdf7000000000000000000000000000000000000000000000000000000008152600401620000a19190620002eb565b60405180910390fd5b620000bb816200012460201b60201c565b508160015f6101000a81548173ffffffffffffffffffffffffffffffffffffffff021916908373ffffffffffffffffffffffffffffffffffffffff160217905550806002819055505f60035f6101000a81548160ff021916908315150217905550505062000306565b5f805f9054906101000a900473ffffffffffffffffffffffffffffffffffffffff169050815f806101000a81548173ffffffffffffffffffffffffffffffffffffffff021916908373ffffffffffffffffffffffffffffffffffffffff1602179055508173ffffffffffffffffffffffffffffffffffffffff168173ffffffffffffffffffffffffffffffffffffffff167f8be0079c531659141344cd1fd0a4f28419497f9722a3daafe3b4186f6b6457e060405160405180910390a35050565b5f80fd5b5f73ffffffffffffffffffffffffffffffffffffffff82169050919050565b5f6200021482620001e9565b9050919050565b5f620002278262000208565b9050919050565b62000239816200021b565b811462000244575f80fd5b50565b5f8151905062000257816200022e565b92915050565b5f819050919050565b62000271816200025d565b81146200027c575f80fd5b50565b5f815190506200028f8162000266565b92915050565b5f8060408385031215620002ae57620002ad620001e5565b5b5f620002bd8582860162000247565b9250506020620002d0858286016200027f565b9150509250929050565b620002e58162000208565b82525050565b5f602082019050620003005f830184620002da565b92915050565b61078280620003145f395ff3fe608060405234801561000f575f80fd5b5060043610610086575f3560e01c8063ac9f022211610059578063ac9f0222146100ec578063cf30901214610108578063f2fde38b14610126578063f872bec01461014257610086565b80632804b2c01461008a578063620c0c4b146100a8578063715018a6146100c45780638da5cb5b146100ce575b5f80fd5b610092610160565b60405161009f9190610534565b60405180910390f35b6100c260048036038101906100bd919061059d565b610185565b005b6100cc61022a565b005b6100d661023d565b6040516100e391906105d7565b60405180910390f35b61010660048036038101906101019190610625565b610264565b005b6101106102cf565b60405161011d919061065f565b60405180910390f35b610140600480360381019061013b91906106a2565b6102e1565b005b61014a610365565b60405161015791906106e5565b60405180910390f35b60015f9054906101000a900473ffffffffffffffffffffffffffffffffffffffff1681565b61018d61036b565b7f391847abdda0edb4f1e720f30e246be400e373ef6243bd03bd41fe7db6e74f5560015f9054906101000a900473ffffffffffffffffffffffffffffffffffffffff16826040516101df9291906106fe565b60405180910390a18060015f6101000a81548173ffffffffffffffffffffffffffffffffffffffff021916908373ffffffffffffffffffffffffffffffffffffffff16021790555050565b61023261036b565b61023b5f6103f2565b565b5f805f9054906101000a900473ffffffffffffffffffffffffffffffffffffffff16905090565b61026c61036b565b7ffc0e030a4910d669332f14d7b6edab0ecb99edf84e6ed379b219bf01933ab20560035f9054906101000a900460ff16826040516102ab929190610725565b60405180910390a18060035f6101000a81548160ff02191690831515021790555050565b60035f9054906101000a900460ff1681565b6102e961036b565b5f73ffffffffffffffffffffffffffffffffffffffff168173ffffffffffffffffffffffffffffffffffffffff1603610359575f6040517f1e4fbdf700000000000000000000000000000000000000000000000000000000815260040161035091906105d7565b60405180910390fd5b610362816103f2565b50565b60025481565b6103736104b3565b73ffffffffffffffffffffffffffffffffffffffff1661039161023d565b73ffffffffffffffffffffffffffffffffffffffff16146103f0576103b46104b3565b6040517f118cdaa70000000000000000000000000000000000000000000000000000000081526004016103e791906105d7565b60405180910390fd5b565b5f805f9054906101000a900473ffffffffffffffffffffffffffffffffffffffff169050815f806101000a81548173ffffffffffffffffffffffffffffffffffffffff021916908373ffffffffffffffffffffffffffffffffffffffff1602179055508173ffffffffffffffffffffffffffffffffffffffff168173ffffffffffffffffffffffffffffffffffffffff167f8be0079c531659141344cd1fd0a4f28419497f9722a3daafe3b4186f6b6457e060405160405180910390a35050565b5f33905090565b5f73ffffffffffffffffffffffffffffffffffffffff82169050919050565b5f819050919050565b5f6104fc6104f76104f2846104ba565b6104d9565b6104ba565b9050919050565b5f61050d826104e2565b9050919050565b5f61051e82610503565b9050919050565b61052e81610514565b82525050565b5f6020820190506105475f830184610525565b92915050565b5f80fd5b5f61055b826104ba565b9050919050565b5f61056c82610551565b9050919050565b61057c81610562565b8114610586575f80fd5b50565b5f8135905061059781610573565b92915050565b5f602082840312156105b2576105b161054d565b5b5f6105bf84828501610589565b91505092915050565b6105d181610551565b82525050565b5f6020820190506105ea5f8301846105c8565b92915050565b5f8115159050919050565b610604816105f0565b811461060e575f80fd5b50565b5f8135905061061f816105fb565b92915050565b5f6020828403121561063a5761063961054d565b5b5f61064784828501610611565b91505092915050565b610659816105f0565b82525050565b5f6020820190506106725f830184610650565b92915050565b61068181610551565b811461068b575f80fd5b50565b5f8135905061069c81610678565b92915050565b5f602082840312156106b7576106b661054d565b5b5f6106c48482850161068e565b91505092915050565b5f819050919050565b6106df816106cd565b82525050565b5f6020820190506106f85f8301846106d6565b92915050565b5f6040820190506107115f8301856105c8565b61071e60208301846105c8565b9392505050565b5f6040820190506107385f830185610650565b6107456020830184610650565b939250505056fea264697066735822122096d0247bc3c8661843f78b43afd9e6535e64705c5f757ff9f4eda879fc51a6dc64736f6c63430008180033608060405234801562000010575f80fd5b506040516200157d3803806200157d8339818101604052810190620000369190620004a8565b335f73ffffffffffffffffffffffffffffffffffffffff168173ffffffffffffffffffffffffffffffffffffffff1603620000aa575f6040517f1e4fbdf7000000000000000000000000000000000000000000000000000000008152600401620000a1919062000531565b60405180910390fd5b620000bb81620001bf60201b60201c565b508260015f6101000a81548173ffffffffffffffffffffffffffffffffffffffff021916908373ffffffffffffffffffffffffffffffffffffffff160217905550600160045f6101000a81548160ff021916908315150217905550600160035f8473ffffffffffffffffffffffffffffffffffffffff1673ffffffffffffffffffffffffffffffffffffffff1681526020019081526020015f205f6101000a81548160ff02191690831515021790555080600590816200017c919062000783565b507f19ef9a4877199f89440a26acb26895ec02ed86f2df1aeaa90dc18041b892f71f82604051620001ae919062000531565b60405180910390a150505062000867565b5f805f9054906101000a900473ffffffffffffffffffffffffffffffffffffffff169050815f806101000a81548173ffffffffffffffffffffffffffffffffffffffff021916908373ffffffffffffffffffffffffffffffffffffffff1602179055508173ffffffffffffffffffffffffffffffffffffffff168173ffffffffffffffffffffffffffffffffffffffff167f8be0079c531659141344cd1fd0a4f28419497f9722a3daafe3b4186f6b6457e060405160405180910390a35050565b5f604051905090565b5f80fd5b5f80fd5b5f73ffffffffffffffffffffffffffffffffffffffff82169050919050565b5f620002bc8262000291565b9050919050565b5f620002cf82620002b0565b9050919050565b620002e181620002c3565b8114620002ec575f80fd5b50565b5f81519050620002ff81620002d6565b92915050565b6200031081620002b0565b81146200031b575f80fd5b50565b5f815190506200032e8162000305565b92915050565b5f80fd5b5f80fd5b5f601f19601f8301169050919050565b7f4e487b71000000000000000000000000000000000000000000000000000000005f52604160045260245ffd5b62000384826200033c565b810181811067ffffffffffffffff82111715620003a657620003a56200034c565b5b80604052505050565b5f620003ba62000280565b9050620003c8828262000379565b919050565b5f67ffffffffffffffff821115620003ea57620003e96200034c565b5b620003f5826200033c565b9050602081019050919050565b5f5b838110156200042157808201518184015260208101905062000404565b5f8484015250505050565b5f620004426200043c84620003cd565b620003af565b90508281526020810184848401111562000461576200046062000338565b5b6200046e84828562000402565b509392505050565b5f82601f8301126200048d576200048c62000334565b5b81516200049f8482602086016200042c565b91505092915050565b5f805f60608486031215620004c257620004c162000289565b5b5f620004d186828701620002ef565b9350506020620004e4868287016200031e565b925050604084015167ffffffffffffffff8111156200050857620005076200028d565b5b620005168682870162000476565b9150509250925092565b6200052b81620002b0565b82525050565b5f602082019050620005465f83018462000520565b92915050565b5f81519050919050565b7f4e487b71000000000000000000000000000000000000000000000000000000005f52602260045260245ffd5b5f60028204905060018216806200059b57607f821691505b602082108103620005b157620005b062000556565b5b50919050565b5f819050815f5260205f209050919050565b5f6020601f8301049050919050565b5f82821b905092915050565b5f60088302620006157fffffffffffffffffffffffffffffffffffffffffffffffffffffffffffffffff82620005d8565b620006218683620005d8565b95508019841693508086168417925050509392505050565b5f819050919050565b5f819050919050565b5f6200066b620006656200065f8462000639565b62000642565b62000639565b9050919050565b5f819050919050565b62000686836200064b565b6200069e620006958262000672565b848454620005e4565b825550505050565b5f90565b620006b4620006a6565b620006c18184846200067b565b505050565b5b81811015620006e857620006dc5f82620006aa565b600181019050620006c7565b5050565b601f82111562000737576200070181620005b7565b6200070c84620005c9565b810160208510156200071c578190505b620007346200072b85620005c9565b830182620006c6565b50505b505050565b5f82821c905092915050565b5f620007595f19846008026200073c565b1980831691505092915050565b5f62000773838362000748565b9150826002028217905092915050565b6200078e826200054c565b67ffffffffffffffff811115620007aa57620007a96200034c565b5b620007b6825462000583565b620007c3828285620006ec565b5f60209050601f831160018114620007f9575f8415620007e4578287015190505b620007f0858262000766565b8655506200085f565b601f1984166200080986620005b7565b5f5b8281101562000832578489015182556001820191506020850194506020810190506200080b565b868310156200085257848901516200084e601f89168262000748565b8355505b6001600288020188555050505b505050505050565b610d0880620008755f395ff3fe608060405234801561000f575f80fd5b50600436106100cd575f3560e01c806360f96a8f1161008a5780638da5cb5b116100645780638da5cb5b146101eb578063ec17e13a14610209578063ef097fc414610239578063f2fde38b14610255576100cd565b806360f96a8f146101a757806367c2a360146101c5578063715018a6146101e1576100cd565b806306fdde03146100d15780631828983a146100ef5780631eee993a1461011f57806325a10a701461013b578063267c4ae41461016b5780634892e8e814610189575b5f80fd5b6100d9610271565b6040516100e6919061092b565b60405180910390f35b610109600480360381019061010491906109a9565b6102fd565b60405161011691906109ee565b60405180910390f35b61013960048036038101906101349190610a42565b61031a565b005b61015560048036038101906101509190610a42565b61037d565b6040516101629190610ac8565b60405180910390f35b610173610453565b60405161018091906109ee565b60405180910390f35b610191610465565b60405161019e9190610b98565b60405180910390f35b6101af6104f0565b6040516101bc9190610ac8565b60405180910390f35b6101df60048036038101906101da91906109a9565b610515565b005b6101e96105ac565b005b6101f36105bf565b6040516102009190610bc7565b60405180910390f35b610223600480360381019061021e91906109a9565b6105e6565b60405161023091906109ee565b60405180910390f35b610253600480360381019061024e91906109a9565b610638565b005b61026f600480360381019061026a91906109a9565b6106ce565b005b6005805461027e90610c0d565b80601f01602080910402602001604051908101604052809291908181526020018280546102aa90610c0d565b80156102f55780601f106102cc576101008083540402835291602001916102f5565b820191905f5260205f20905b8154815290600101906020018083116102d857829003601f168201915b505050505081565b6003602052805f5260405f205f915054906101000a900460ff1681565b600281908060018154018082558091505060019003905f5260205f20015f9091909190916101000a81548173ffffffffffffffffffffffffffffffffffffffff021916908373ffffffffffffffffffffffffffffffffffffffff16021790555050565b5f80610387610465565b90505f5b8151811015610412578373ffffffffffffffffffffffffffffffffffffffff168282815181106103be576103bd610c3d565b5b602002602001015173ffffffffffffffffffffffffffffffffffffffff1603610405578181815181106103f4576103f3610c3d565b5b60200260200101519250505061044e565b808060010191505061038b565b506040517f08c379a000000000000000000000000000000000000000000000000000000000815260040161044590610cb4565b60405180910390fd5b919050565b60045f9054906101000a900460ff1681565b606060028054806020026020016040519081016040528092919081815260200182805480156104e657602002820191905f5260205f20905b815f9054906101000a900473ffffffffffffffffffffffffffffffffffffffff1673ffffffffffffffffffffffffffffffffffffffff168152602001906001019080831161049d575b5050505050905090565b60015f9054906101000a900473ffffffffffffffffffffffffffffffffffffffff1681565b61051d610752565b600160035f8373ffffffffffffffffffffffffffffffffffffffff1673ffffffffffffffffffffffffffffffffffffffff1681526020019081526020015f205f6101000a81548160ff0219169083151502179055507f19ef9a4877199f89440a26acb26895ec02ed86f2df1aeaa90dc18041b892f71f816040516105a19190610bc7565b60405180910390a150565b6105b4610752565b6105bd5f6107d9565b565b5f805f9054906101000a900473ffffffffffffffffffffffffffffffffffffffff16905090565b5f60035f8373ffffffffffffffffffffffffffffffffffffffff1673ffffffffffffffffffffffffffffffffffffffff1681526020019081526020015f205f9054906101000a900460ff169050919050565b610640610752565b5f60035f8373ffffffffffffffffffffffffffffffffffffffff1673ffffffffffffffffffffffffffffffffffffffff1681526020019081526020015f205f6101000a81548160ff0219169083151502179055507fb43ac7bf01d16ebcb8c868a4c03fecb1f6984ea4fa1a52c116ef282b8dbb17c5816040516106c39190610bc7565b60405180910390a150565b6106d6610752565b5f73ffffffffffffffffffffffffffffffffffffffff168173ffffffffffffffffffffffffffffffffffffffff1603610746575f6040517f1e4fbdf700000000000000000000000000000000000000000000000000000000815260040161073d9190610bc7565b60405180910390fd5b61074f816107d9565b50565b61075a61089a565b73ffffffffffffffffffffffffffffffffffffffff166107786105bf565b73ffffffffffffffffffffffffffffffffffffffff16146107d75761079b61089a565b6040517f118cdaa70000000000000000000000000000000000000000000000000000000081526004016107ce9190610bc7565b60405180910390fd5b565b5f805f9054906101000a900473ffffffffffffffffffffffffffffffffffffffff169050815f806101000a81548173ffffffffffffffffffffffffffffffffffffffff021916908373ffffffffffffffffffffffffffffffffffffffff1602179055508173ffffffffffffffffffffffffffffffffffffffff168173ffffffffffffffffffffffffffffffffffffffff167f8be0079c531659141344cd1fd0a4f28419497f9722a3daafe3b4186f6b6457e060405160405180910390a35050565b5f33905090565b5f81519050919050565b5f82825260208201905092915050565b5f5b838110156108d85780820151818401526020810190506108bd565b5f8484015250505050565b5f601f19601f8301169050919050565b5f6108fd826108a1565b61090781856108ab565b93506109178185602086016108bb565b610920816108e3565b840191505092915050565b5f6020820190508181035f83015261094381846108f3565b905092915050565b5f80fd5b5f73ffffffffffffffffffffffffffffffffffffffff82169050919050565b5f6109788261094f565b9050919050565b6109888161096e565b8114610992575f80fd5b50565b5f813590506109a38161097f565b92915050565b5f602082840312156109be576109bd61094b565b5b5f6109cb84828501610995565b91505092915050565b5f8115159050919050565b6109e8816109d4565b82525050565b5f602082019050610a015f8301846109df565b92915050565b5f610a118261096e565b9050919050565b610a2181610a07565b8114610a2b575f80fd5b50565b5f81359050610a3c81610a18565b92915050565b5f60208284031215610a5757610a5661094b565b5b5f610a6484828501610a2e565b91505092915050565b5f819050919050565b5f610a90610a8b610a868461094f565b610a6d565b61094f565b9050919050565b5f610aa182610a76565b9050919050565b5f610ab282610a97565b9050919050565b610ac281610aa8565b82525050565b5f602082019050610adb5f830184610ab9565b92915050565b5f81519050919050565b5f82825260208201905092915050565b5f819050602082019050919050565b610b1381610aa8565b82525050565b5f610b248383610b0a565b60208301905092915050565b5f602082019050919050565b5f610b4682610ae1565b610b508185610aeb565b9350610b5b83610afb565b805f5b83811015610b8b578151610b728882610b19565b9750610b7d83610b30565b925050600181019050610b5e565b5085935050505092915050565b5f6020820190508181035f830152610bb08184610b3c565b905092915050565b610bc18161096e565b82525050565b5f602082019050610bda5f830184610bb8565b92915050565b7f4e487b71000000000000000000000000000000000000000000000000000000005f52602260045260245ffd5b5f6002820490506001821680610c2457607f821691505b602082108103610c3757610c36610be0565b5b50919050565b7f4e487b71000000000000000000000000000000000000000000000000000000005f52603260045260245ffd5b7f4368696c64206e6f7420666f756e6400000000000000000000000000000000005f82015250565b5f610c9e600f836108ab565b9150610ca982610c6a565b602082019050919050565b5f6020820190508181035f830152610ccb81610c92565b905091905056fea26469706673582212206c5fc5a158f19c3bda35bd197f2ccfeecc71053cf86eb240527b8dc98657990b64736f6c63430008180033a2646970667358221220f58e6252eddc7b1598f63a164cfbe4292a955262289c4368af60bd2ff1102c5b64736f6c63430008180033608060405234801562000010575f80fd5b506040516200157d3803806200157d8339818101604052810190620000369190620004a8565b335f73ffffffffffffffffffffffffffffffffffffffff168173ffffffffffffffffffffffffffffffffffffffff1603620000aa575f6040517f1e4fbdf7000000000000000000000000000000000000000000000000000000008152600401620000a1919062000531565b60405180910390fd5b620000bb81620001bf60201b60201c565b508260015f6101000a81548173ffffffffffffffffffffffffffffffffffffffff021916908373ffffffffffffffffffffffffffffffffffffffff160217905550600160045f6101000a81548160ff021916908315150217905550600160035f8473ffffffffffffffffffffffffffffffffffffffff1673ffffffffffffffffffffffffffffffffffffffff1681526020019081526020015f205f6101000a81548160ff02191690831515021790555080600590816200017c919062000783565b507f19ef9a4877199f89440a26acb26895ec02ed86f2df1aeaa90dc18041b892f71f82604051620001ae919062000531565b60405180910390a150505062000867565b5f805f9054906101000a900473ffffffffffffffffffffffffffffffffffffffff169050815f806101000a81548173ffffffffffffffffffffffffffffffffffffffff021916908373ffffffffffffffffffffffffffffffffffffffff1602179055508173ffffffffffffffffffffffffffffffffffffffff168173ffffffffffffffffffffffffffffffffffffffff167f8be0079c531659141344cd1fd0a4f28419497f9722a3daafe3b4186f6b6457e060405160405180910390a35050565b5f604051905090565b5f80fd5b5f80fd5b5f73ffffffffffffffffffffffffffffffffffffffff82169050919050565b5f620002bc8262000291565b9050919050565b5f620002cf82620002b0565b9050919050565b620002e181620002c3565b8114620002ec575f80fd5b50565b5f81519050620002ff81620002d6565b92915050565b6200031081620002b0565b81146200031b575f80fd5b50565b5f815190506200032e8162000305565b92915050565b5f80fd5b5f80fd5b5f601f19601f8301169050919050565b7f4e487b71000000000000000000000000000000000000000000000000000000005f52604160045260245ffd5b62000384826200033c565b810181811067ffffffffffffffff82111715620003a657620003a56200034c565b5b80604052505050565b5f620003ba62000280565b9050620003c8828262000379565b919050565b5f67ffffffffffffffff821115620003ea57620003e96200034c565b5b620003f5826200033c565b9050602081019050919050565b5f5b838110156200042157808201518184015260208101905062000404565b5f8484015250505050565b5f620004426200043c84620003cd565b620003af565b90508281526020810184848401111562000461576200046062000338565b5b6200046e84828562000402565b509392505050565b5f82601f8301126200048d576200048c62000334565b5b81516200049f8482602086016200042c565b91505092915050565b5f805f60608486031215620004c257620004c162000289565b5b5f620004d186828701620002ef565b9350506020620004e4868287016200031e565b925050604084015167ffffffffffffffff8111156200050857620005076200028d565b5b620005168682870162000476565b9150509250925092565b6200052b81620002b0565b82525050565b5f602082019050620005465f83018462000520565b92915050565b5f81519050919050565b7f4e487b71000000000000000000000000000000000000000000000000000000005f52602260045260245ffd5b5f60028204905060018216806200059b57607f821691505b602082108103620005b157620005b062000556565b5b50919050565b5f819050815f5260205f209050919050565b5f6020601f8301049050919050565b5f82821b905092915050565b5f60088302620006157fffffffffffffffffffffffffffffffffffffffffffffffffffffffffffffffff82620005d8565b620006218683620005d8565b95508019841693508086168417925050509392505050565b5f819050919050565b5f819050919050565b5f6200066b620006656200065f8462000639565b62000642565b62000639565b9050919050565b5f819050919050565b62000686836200064b565b6200069e620006958262000672565b848454620005e4565b825550505050565b5f90565b620006b4620006a6565b620006c18184846200067b565b505050565b5b81811015620006e857620006dc5f82620006aa565b600181019050620006c7565b5050565b601f82111562000737576200070181620005b7565b6200070c84620005c9565b810160208510156200071c578190505b620007346200072b85620005c9565b830182620006c6565b50505b505050565b5f82821c905092915050565b5f620007595f19846008026200073c565b1980831691505092915050565b5f62000773838362000748565b9150826002028217905092915050565b6200078e826200054c565b67ffffffffffffffff811115620007aa57620007a96200034c565b5b620007b6825462000583565b620007c3828285620006ec565b5f60209050601f831160018114620007f9575f8415620007e4578287015190505b620007f0858262000766565b8655506200085f565b601f1984166200080986620005b7565b5f5b8281101562000832578489015182556001820191506020850194506020810190506200080b565b868310156200085257848901516200084e601f89168262000748565b8355505b6001600288020188555050505b505050505050565b610d0880620008755f395ff3fe608060405234801561000f575f80fd5b50600436106100cd575f3560e01c806360f96a8f1161008a5780638da5cb5b116100645780638da5cb5b146101eb578063ec17e13a14610209578063ef097fc414610239578063f2fde38b14610255576100cd565b806360f96a8f146101a757806367c2a360146101c5578063715018a6146101e1576100cd565b806306fdde03146100d15780631828983a146100ef5780631eee993a1461011f57806325a10a701461013b578063267c4ae41461016b5780634892e8e814610189575b5f80fd5b6100d9610271565b6040516100e6919061092b565b60405180910390f35b610109600480360381019061010491906109a9565b6102fd565b60405161011691906109ee565b60405180910390f35b61013960048036038101906101349190610a42565b61031a565b005b61015560048036038101906101509190610a42565b61037d565b6040516101629190610ac8565b60405180910390f35b610173610453565b60405161018091906109ee565b60405180910390f35b610191610465565b60405161019e9190610b98565b60405180910390f35b6101af6104f0565b6040516101bc9190610ac8565b60405180910390f35b6101df60048036038101906101da91906109a9565b610515565b005b6101e96105ac565b005b6101f36105bf565b6040516102009190610bc7565b60405180910390f35b610223600480360381019061021e91906109a9565b6105e6565b60405161023091906109ee565b60405180910390f35b610253600480360381019061024e91906109a9565b610638565b005b61026f600480360381019061026a91906109a9565b6106ce565b005b6005805461027e90610c0d565b80601f01602080910402602001604051908101604052809291908181526020018280546102aa90610c0d565b80156102f55780601f106102cc576101008083540402835291602001916102f5565b820191905f5260205f20905b8154815290600101906020018083116102d857829003601f168201915b505050505081565b6003602052805f5260405f205f915054906101000a900460ff1681565b600281908060018154018082558091505060019003905f5260205f20015f9091909190916101000a81548173ffffffffffffffffffffffffffffffffffffffff021916908373ffffffffffffffffffffffffffffffffffffffff16021790555050565b5f80610387610465565b90505f5b8151811015610412578373ffffffffffffffffffffffffffffffffffffffff168282815181106103be576103bd610c3d565b5b602002602001015173ffffffffffffffffffffffffffffffffffffffff1603610405578181815181106103f4576103f3610c3d565b5b60200260200101519250505061044e565b808060010191505061038b565b506040517f08c379a000000000000000000000000000000000000000000000000000000000815260040161044590610cb4565b60405180910390fd5b919050565b60045f9054906101000a900460ff1681565b606060028054806020026020016040519081016040528092919081815260200182805480156104e657602002820191905f5260205f20905b815f9054906101000a900473ffffffffffffffffffffffffffffffffffffffff1673ffffffffffffffffffffffffffffffffffffffff168152602001906001019080831161049d575b5050505050905090565b60015f9054906101000a900473ffffffffffffffffffffffffffffffffffffffff1681565b61051d610752565b600160035f8373ffffffffffffffffffffffffffffffffffffffff1673ffffffffffffffffffffffffffffffffffffffff1681526020019081526020015f205f6101000a81548160ff0219169083151502179055507f19ef9a4877199f89440a26acb26895ec02ed86f2df1aeaa90dc18041b892f71f816040516105a19190610bc7565b60405180910390a150565b6105b4610752565b6105bd5f6107d9565b565b5f805f9054906101000a900473ffffffffffffffffffffffffffffffffffffffff16905090565b5f60035f8373ffffffffffffffffffffffffffffffffffffffff1673ffffffffffffffffffffffffffffffffffffffff1681526020019081526020015f205f9054906101000a900460ff169050919050565b610640610752565b5f60035f8373ffffffffffffffffffffffffffffffffffffffff1673ffffffffffffffffffffffffffffffffffffffff1681526020019081526020015f205f6101000a81548160ff0219169083151502179055507fb43ac7bf01d16ebcb8c868a4c03fecb1f6984ea4fa1a52c116ef282b8dbb17c5816040516106c39190610bc7565b60405180910390a150565b6106d6610752565b5f73ffffffffffffffffffffffffffffffffffffffff168173ffffffffffffffffffffffffffffffffffffffff1603610746575f6040517f1e4fbdf700000000000000000000000000000000000000000000000000000000815260040161073d9190610bc7565b60405180910390fd5b61074f816107d9565b50565b61075a61089a565b73ffffffffffffffffffffffffffffffffffffffff166107786105bf565b73ffffffffffffffffffffffffffffffffffffffff16146107d75761079b61089a565b6040517f118cdaa70000000000000000000000000000000000000000000000000000000081526004016107ce9190610bc7565b60405180910390fd5b565b5f805f9054906101000a900473ffffffffffffffffffffffffffffffffffffffff169050815f806101000a81548173ffffffffffffffffffffffffffffffffffffffff021916908373ffffffffffffffffffffffffffffffffffffffff1602179055508173ffffffffffffffffffffffffffffffffffffffff168173ffffffffffffffffffffffffffffffffffffffff167f8be0079c531659141344cd1fd0a4f28419497f9722a3daafe3b4186f6b6457e060405160405180910390a35050565b5f33905090565b5f81519050919050565b5f82825260208201905092915050565b5f5b838110156108d85780820151818401526020810190506108bd565b5f8484015250505050565b5f601f19601f8301169050919050565b5f6108fd826108a1565b61090781856108ab565b93506109178185602086016108bb565b610920816108e3565b840191505092915050565b5f6020820190508181035f83015261094381846108f3565b905092915050565b5f80fd5b5f73ffffffffffffffffffffffffffffffffffffffff82169050919050565b5f6109788261094f565b9050919050565b6109888161096e565b8114610992575f80fd5b50565b5f813590506109a38161097f565b92915050565b5f602082840312156109be576109bd61094b565b5b5f6109cb84828501610995565b91505092915050565b5f8115159050919050565b6109e8816109d4565b82525050565b5f602082019050610a015f8301846109df565b92915050565b5f610a118261096e565b9050919050565b610a2181610a07565b8114610a2b575f80fd5b50565b5f81359050610a3c81610a18565b92915050565b5f60208284031215610a5757610a5661094b565b5b5f610a6484828501610a2e565b91505092915050565b5f819050919050565b5f610a90610a8b610a868461094f565b610a6d565b61094f565b9050919050565b5f610aa182610a76565b9050919050565b5f610ab282610a97565b9050919050565b610ac281610aa8565b82525050565b5f602082019050610adb5f830184610ab9565b92915050565b5f81519050919050565b5f82825260208201905092915050565b5f819050602082019050919050565b610b1381610aa8565b82525050565b5f610b248383610b0a565b60208301905092915050565b5f602082019050919050565b5f610b4682610ae1565b610b508185610aeb565b9350610b5b83610afb565b805f5b83811015610b8b578151610b728882610b19565b9750610b7d83610b30565b925050600181019050610b5e565b5085935050505092915050565b5f6020820190508181035f830152610bb08184610b3c565b905092915050565b610bc18161096e565b82525050565b5f602082019050610bda5f830184610bb8565b92915050565b7f4e487b71000000000000000000000000000000000000000000000000000000005f52602260045260245ffd5b5f6002820490506001821680610c2457607f821691505b602082108103610c3757610c36610be0565b5b50919050565b7f4e487b71000000000000000000000000000000000000000000000000000000005f52603260045260245ffd5b7f4368696c64206e6f7420666f756e6400000000000000000000000000000000005f82015250565b5f610c9e600f836108ab565b9150610ca982610c6a565b602082019050919050565b5f6020820190508181035f830152610ccb81610c92565b905091905056fea26469706673582212206c5fc5a158f19c3bda35bd197f2ccfeecc71053cf86eb240527b8dc98657990b64736f6c63430008180033",
    "linkReferences": {}
  },
  "methodIdentifiers": {
    "addUserToCustomer(address,address)": "f7ab64e1",
    "authorizeUser(address,address)": "34436ce5",
    "createCustomer(address,string)": "9b9f34c4",
    "createDevice(address,bytes32)": "3f492428",
    "createDevices(address,bytes32[])": "5baf423f",
    "customers(uint256)": "c0abda2a",
    "devices(uint256)": "10ff8e31",
    "getCustomers()": "f1ba7127",
    "getDeviceByIndex(uint256)": "e1f653b1",
    "getDeviceBySn(bytes32)": "4bbc4cb2",
    "getDevices()": "d611d6c8",
    "getDevicesOfCustomer(address)": "40bbcc3e",
    "getDevicesUnderCustomer(address)": "d7c80d89",
    "owner()": "8da5cb5b",
    "removeUserFromCustomer(address,address)": "eb3599d2",
    "renounceOwnership()": "715018a6",
    "setDeviceCustomer(address,address)": "645ae3b3",
    "transferOwnership(address)": "f2fde38b"
  },
  "id": 25
}