{
   "abi": [
      {
         "type": "constructor",
         "inputs": [
            {
               "name": "_parent",
               "type": "address",
               "internalType": "contract Customer"
            },
            {
               "name": "admin",
               "type": "address",
               "internalType": "address"
            },
            {
               "name": "_name",
               "type": "string",
               "internalType": "string"
            },
            {
               "name": "_deviceMetadata",
               "type": "string",
               "internalType": "string"
            }
         ],
         "stateMutability": "nonpayable"
      },
      {
         "type": "function",
         "name": "addChild",
         "inputs": [
            {
               "name": "childId",
               "type": "address",
               "internalType": "contract Customer"
            }
         ],
         "outputs": [],
         "stateMutability": "nonpayable"
      },
      {
         "type": "function",
         "name": "authorizeUser",
         "inputs": [
            {
               "name": "user",
               "type": "address",
               "internalType": "address"
            }
         ],
         "outputs": [],
         "stateMutability": "nonpayable"
      },
      {
         "type": "function",
         "name": "authorizedUsers",
         "inputs": [
            {
               "name": "",
               "type": "uint256",
               "internalType": "uint256"
            }
         ],
         "outputs": [
            {
               "name": "",
               "type": "address",
               "internalType": "address"
            }
         ],
         "stateMutability": "view"
      },
      {
         "type": "function",
         "name": "deviceMetadata",
         "inputs": [],
         "outputs": [
            {
               "name": "",
               "type": "string",
               "internalType": "string"
            }
         ],
         "stateMutability": "view"
      },
      {
         "type": "function",
         "name": "exists",
         "inputs": [],
         "outputs": [
            {
               "name": "",
               "type": "bool",
               "internalType": "bool"
            }
         ],
         "stateMutability": "view"
      },
      {
         "type": "function",
         "name": "getAuthorizedUsers",
         "inputs": [],
         "outputs": [
            {
               "name": "",
               "type": "address[]",
               "internalType": "address[]"
            }
         ],
         "stateMutability": "view"
      },
      {
         "type": "function",
         "name": "getChild",
         "inputs": [
            {
               "name": "customer",
               "type": "address",
               "internalType": "contract Customer"
            }
         ],
         "outputs": [
            {
               "name": "",
               "type": "address",
               "internalType": "contract Customer"
            }
         ],
         "stateMutability": "view"
      },
      {
         "type": "function",
         "name": "getChildren",
         "inputs": [],
         "outputs": [
            {
               "name": "",
               "type": "address[]",
               "internalType": "contract Customer[]"
            }
         ],
         "stateMutability": "view"
      },
      {
         "type": "function",
         "name": "getDeviceMetadata",
         "inputs": [],
         "outputs": [
            {
               "name": "",
               "type": "string",
               "internalType": "string"
            }
         ],
         "stateMutability": "view"
      },
      {
         "type": "function",
         "name": "isAuthorizedUser",
         "inputs": [
            {
               "name": "user",
               "type": "address",
               "internalType": "address"
            }
         ],
         "outputs": [
            {
               "name": "",
               "type": "bool",
               "internalType": "bool"
            }
         ],
         "stateMutability": "view"
      },
      {
         "type": "function",
         "name": "name",
         "inputs": [],
         "outputs": [
            {
               "name": "",
               "type": "string",
               "internalType": "string"
            }
         ],
         "stateMutability": "view"
      },
      {
         "type": "function",
         "name": "owner",
         "inputs": [],
         "outputs": [
            {
               "name": "",
               "type": "address",
               "internalType": "address"
            }
         ],
         "stateMutability": "view"
      },
      {
         "type": "function",
         "name": "parent",
         "inputs": [],
         "outputs": [
            {
               "name": "",
               "type": "address",
               "internalType": "contract Customer"
            }
         ],
         "stateMutability": "view"
      },
      {
         "type": "function",
         "name": "renounceOwnership",
         "inputs": [],
         "outputs": [],
         "stateMutability": "nonpayable"
      },
      {
         "type": "function",
         "name": "revokeUser",
         "inputs": [
            {
               "name": "user",
               "type": "address",
               "internalType": "address"
            }
         ],
         "outputs": [],
         "stateMutability": "nonpayable"
      },
      {
         "type": "function",
         "name": "setDeviceMetadata",
         "inputs": [
            {
               "name": "_deviceMetadata",
               "type": "string",
               "internalType": "string"
            }
         ],
         "outputs": [],
         "stateMutability": "nonpayable"
      },
      {
         "type": "function",
         "name": "setName",
         "inputs": [
            {
               "name": "_name",
               "type": "string",
               "internalType": "string"
            }
         ],
         "outputs": [],
         "stateMutability": "nonpayable"
      },
      {
         "type": "function",
         "name": "transferOwnership",
         "inputs": [
            {
               "name": "newOwner",
               "type": "address",
               "internalType": "address"
            }
         ],
         "outputs": [],
         "stateMutability": "nonpayable"
      },
      {
         "type": "event",
         "name": "OwnershipTransferred",
         "inputs": [
            {
               "name": "previousOwner",
               "type": "address",
               "indexed": true,
               "internalType": "address"
            },
            {
               "name": "newOwner",
               "type": "address",
               "indexed": true,
               "internalType": "address"
            }
         ],
         "anonymous": false
      },
      {
         "type": "event",
         "name": "UserAdded",
         "inputs": [
            {
               "name": "user",
               "type": "address",
               "indexed": false,
               "internalType": "address"
            }
         ],
         "anonymous": false
      },
      {
         "type": "event",
         "name": "UserRevoked",
         "inputs": [
            {
               "name": "user",
               "type": "address",
               "indexed": false,
               "internalType": "address"
            }
         ],
         "anonymous": false
      },
      {
         "type": "error",
         "name": "OwnableInvalidOwner",
         "inputs": [
            {
               "name": "owner",
               "type": "address",
               "internalType": "address"
            }
         ]
      },
      {
         "type": "error",
         "name": "OwnableUnauthorizedAccount",
         "inputs": [
            {
               "name": "account",
               "type": "address",
               "internalType": "address"
            }
         ]
      }
   ],
   "bytecode": {
      "object": "0x608060405234801562000010575f80fd5b50604051620011a9380380620011a9833981016040819052620000339162000259565b33806200005957604051631e4fbdf760e01b81525f600482015260240160405180910390fd5b620000648162000131565b50600180546001600160a01b038087166001600160a01b03199283161783556004805460ff1916841790556003805493840181555f527fc2575a0e9e593c00f959f8c92f12db2869c3395a3b0502d05e2516446f71f85b9092018054928616929091169190911790556005620000db838262000373565b506006620000ea828262000373565b506040516001600160a01b03841681527f19ef9a4877199f89440a26acb26895ec02ed86f2df1aeaa90dc18041b892f71f9060200160405180910390a1505050506200043f565b5f80546001600160a01b038381166001600160a01b0319831681178455604051919092169283917f8be0079c531659141344cd1fd0a4f28419497f9722a3daafe3b4186f6b6457e09190a35050565b6001600160a01b038116811462000195575f80fd5b50565b634e487b7160e01b5f52604160045260245ffd5b5f82601f830112620001bc575f80fd5b81516001600160401b0380821115620001d957620001d962000198565b604051601f8301601f19908116603f0116810190828211818310171562000204576200020462000198565b816040528381526020925086602085880101111562000221575f80fd5b5f91505b8382101562000244578582018301518183018401529082019062000225565b5f602085830101528094505050505092915050565b5f805f80608085870312156200026d575f80fd5b84516200027a8162000180565b60208601519094506200028d8162000180565b60408601519093506001600160401b0380821115620002aa575f80fd5b620002b888838901620001ac565b93506060870151915080821115620002ce575f80fd5b50620002dd87828801620001ac565b91505092959194509250565b600181811c90821680620002fe57607f821691505b6020821081036200031d57634e487b7160e01b5f52602260045260245ffd5b50919050565b601f8211156200036e57805f5260205f20601f840160051c810160208510156200034a5750805b601f840160051c820191505b818110156200036b575f815560010162000356565b50505b505050565b81516001600160401b038111156200038f576200038f62000198565b620003a781620003a08454620002e9565b8462000323565b602080601f831160018114620003dd575f8415620003c55750858301515b5f19600386901b1c1916600185901b17855562000437565b5f85815260208120601f198616915b828110156200040d57888601518255948401946001909101908401620003ec565b50858210156200042b57878501515f19600388901b60f8161c191681555b505060018460011b0185555b505050505050565b610d5c806200044d5f395ff3fe608060405234801561000f575f80fd5b5060043610610111575f3560e01c806367c2a3601161009e578063c47f00271161006e578063c47f00271461025a578063d8e7d36a1461026d578063ec17e13a14610280578063ef097fc414610293578063f2fde38b146102a6575f80fd5b806367c2a3601461021c578063715018a61461022f5780638da5cb5b14610237578063a3fe15a014610247575f80fd5b8063267c4ae4116100e4578063267c4ae4146101d4578063390330f4146101f15780634892e8e8146101f95780634e5186f11461020157806360f96a8f14610209575f80fd5b806306fdde03146101155780631ba7214c146101335780631eee993a1461014857806325a10a70146101a9575b5f80fd5b61011d6102b9565b60405161012a9190610972565b60405180910390f35b61013b610345565b60405161012a91906109a4565b6101a7610156366004610a04565b600280546001810182555f919091527f405787fa12a823e0f2b7631cc41b3ba8828b3321ca811111fa75cd3aa3bb5ace0180546001600160a01b0319166001600160a01b0392909216919091179055565b005b6101bc6101b7366004610a04565b6103a5565b6040516001600160a01b03909116815260200161012a565b6004546101e19060ff1681565b604051901515815260200161012a565b61011d610459565b61013b61059d565b61011d6105fb565b6001546101bc906001600160a01b031681565b6101a761022a366004610a04565b610608565b6101a7610693565b5f546001600160a01b03166101bc565b6101a7610255366004610a92565b6106a6565b6101a7610268366004610a92565b6106be565b6101bc61027b366004610b0c565b6106d2565b6101e161028e366004610a04565b6106fa565b6101a76102a1366004610a04565b610756565b6101a76102b4366004610a04565b610898565b600580546102c690610b23565b80601f01602080910402602001604051908101604052809291908181526020018280546102f290610b23565b801561033d5780601f106103145761010080835404028352916020019161033d565b820191905f5260205f20905b81548152906001019060200180831161032057829003601f168201915b505050505081565b6060600380548060200260200160405190810160405280929190818152602001828054801561039b57602002820191905f5260205f20905b81546001600160a01b0316815260019091019060200180831161037d575b5050505050905090565b5f806103af61059d565b90505f5b815181101561041957836001600160a01b03168282815181106103d8576103d8610b5b565b60200260200101516001600160a01b0316036104115781818151811061040057610400610b5b565b602002602001015192505050919050565b6001016103b3565b5060405162461bcd60e51b815260206004820152600f60248201526e10da1a5b19081b9bdd08199bdd5b99608a1b60448201526064015b60405180910390fd5b60606006805461046890610b23565b159050801561048157506001546001600160a01b031615155b801561049857506001546001600160a01b03163b15155b156105185760015f9054906101000a90046001600160a01b03166001600160a01b031663390330f46040518163ffffffff1660e01b81526004015f60405180830381865afa1580156104ec573d5f803e3d5ffd5b505050506040513d5f823e601f3d908101601f191682016040526105139190810190610b6f565b905090565b6006805461052590610b23565b80601f016020809104026020016040519081016040528092919081815260200182805461055190610b23565b801561039b5780601f106105735761010080835404028352916020019161039b565b820191905f5260205f20905b81548152906001019060200180831161057f57509395945050505050565b6060600280548060200260200160405190810160405280929190818152602001828054801561039b57602002820191905f5260205f209081546001600160a01b0316815260019091019060200180831161037d575050505050905090565b600680546102c690610b23565b6106106108d5565b600380546001810182555f919091527fc2575a0e9e593c00f959f8c92f12db2869c3395a3b0502d05e2516446f71f85b0180546001600160a01b0319166001600160a01b0383169081179091556040519081527f19ef9a4877199f89440a26acb26895ec02ed86f2df1aeaa90dc18041b892f71f9060200160405180910390a150565b61069b6108d5565b6106a45f610901565b565b6106ae6108d5565b60066106ba8282610c2d565b5050565b6106c66108d5565b60056106ba8282610c2d565b600381815481106106e1575f80fd5b5f918252602090912001546001600160a01b0316905081565b5f805b60035481101561074e57826001600160a01b03166003828154811061072457610724610b5b565b5f918252602090912001546001600160a01b0316036107465750600192915050565b6001016106fd565b505f92915050565b61075e6108d5565b5f805b6003548110156107ad57826001600160a01b03166003828154811061078857610788610b5b565b5f918252602090912001546001600160a01b0316036107a5578091505b600101610761565b50600380546107be90600190610ced565b815481106107ce576107ce610b5b565b5f91825260209091200154600380546001600160a01b0390921691839081106107f9576107f9610b5b565b905f5260205f20015f6101000a8154816001600160a01b0302191690836001600160a01b03160217905550600380548061083557610835610d12565b5f8281526020908190205f19908301810180546001600160a01b03191690559091019091556040516001600160a01b03841681527fb43ac7bf01d16ebcb8c868a4c03fecb1f6984ea4fa1a52c116ef282b8dbb17c5910160405180910390a15050565b6108a06108d5565b6001600160a01b0381166108c957604051631e4fbdf760e01b81525f6004820152602401610450565b6108d281610901565b50565b5f546001600160a01b031633146106a45760405163118cdaa760e01b8152336004820152602401610450565b5f80546001600160a01b038381166001600160a01b0319831681178455604051919092169283917f8be0079c531659141344cd1fd0a4f28419497f9722a3daafe3b4186f6b6457e09190a35050565b5f5b8381101561096a578181015183820152602001610952565b50505f910152565b602081525f8251806020840152610990816040850160208701610950565b601f01601f19169190910160400192915050565b602080825282518282018190525f9190848201906040850190845b818110156109e45783516001600160a01b0316835292840192918401916001016109bf565b50909695505050505050565b6001600160a01b03811681146108d2575f80fd5b5f60208284031215610a14575f80fd5b8135610a1f816109f0565b9392505050565b634e487b7160e01b5f52604160045260245ffd5b604051601f8201601f1916810167ffffffffffffffff81118282101715610a6357610a63610a26565b604052919050565b5f67ffffffffffffffff821115610a8457610a84610a26565b50601f01601f191660200190565b5f60208284031215610aa2575f80fd5b813567ffffffffffffffff811115610ab8575f80fd5b8201601f81018413610ac8575f80fd5b8035610adb610ad682610a6b565b610a3a565b818152856020838501011115610aef575f80fd5b816020840160208301375f91810160200191909152949350505050565b5f60208284031215610b1c575f80fd5b5035919050565b600181811c90821680610b3757607f821691505b602082108103610b5557634e487b7160e01b5f52602260045260245ffd5b50919050565b634e487b7160e01b5f52603260045260245ffd5b5f60208284031215610b7f575f80fd5b815167ffffffffffffffff811115610b95575f80fd5b8201601f81018413610ba5575f80fd5b8051610bb3610ad682610a6b565b818152856020838501011115610bc7575f80fd5b610bd8826020830160208601610950565b95945050505050565b601f821115610c2857805f5260205f20601f840160051c81016020851015610c065750805b601f840160051c820191505b81811015610c25575f8155600101610c12565b50505b505050565b815167ffffffffffffffff811115610c4757610c47610a26565b610c5b81610c558454610b23565b84610be1565b602080601f831160018114610c8e575f8415610c775750858301515b5f19600386901b1c1916600185901b178555610ce5565b5f85815260208120601f198616915b82811015610cbc57888601518255948401946001909101908401610c9d565b5085821015610cd957878501515f19600388901b60f8161c191681555b505060018460011b0185555b505050505050565b81810381811115610d0c57634e487b7160e01b5f52601160045260245ffd5b92915050565b634e487b7160e01b5f52603160045260245ffdfea264697066735822122074e2379f2cd648fd805081e7b1dd251e4709b25c3ae1ac00b2129e7c1866ca7664736f6c63430008180033",
      "linkReferences": {}
   },
   "methodIdentifiers": {
      "addChild(address)": "1eee993a",
      "authorizeUser(address)": "67c2a360",
      "authorizedUsers(uint256)": "d8e7d36a",
      "deviceMetadata()": "4e5186f1",
      "exists()": "267c4ae4",
      "getAuthorizedUsers()": "1ba7214c",
      "getChild(address)": "25a10a70",
      "getChildren()": "4892e8e8",
      "getDeviceMetadata()": "390330f4",
      "isAuthorizedUser(address)": "ec17e13a",
      "name()": "06fdde03",
      "owner()": "8da5cb5b",
      "parent()": "60f96a8f",
      "renounceOwnership()": "715018a6",
      "revokeUser(address)": "ef097fc4",
      "setDeviceMetadata(string)": "a3fe15a0",
      "setName(string)": "c47f0027",
      "transferOwnership(address)": "f2fde38b"
   },
   "id": 21
}