{
  "abi": [
    {
      "type": "constructor",
      "inputs": [
        {
          "name": "_parent",
          "type": "address",
          "internalType": "contract Customer"
        },
        {
          "name": "admin",
          "type": "address",
          "internalType": "address"
        },
        {
          "name": "_name",
          "type": "string",
          "internalType": "string"
        }
      ],
      "stateMutability": "nonpayable"
    },
    {
      "type": "function",
      "name": "addChild",
      "inputs": [
        {
          "name": "childId",
          "type": "address",
          "internalType": "contract Customer"
        }
      ],
      "outputs": [],
      "stateMutability": "nonpayable"
    },
    {
      "type": "function",
      "name": "authorizeUser",
      "inputs": [
        {
          "name": "user",
          "type": "address",
          "internalType": "address"
        }
      ],
      "outputs": [],
      "stateMutability": "nonpayable"
    },
    {
      "type": "function",
      "name": "authorizedUsers",
      "inputs": [
        {
          "name": "",
          "type": "address",
          "internalType": "address"
        }
      ],
      "outputs": [
        {
          "name": "",
          "type": "bool",
          "internalType": "bool"
        }
      ],
      "stateMutability": "view"
    },
    {
      "type": "function",
      "name": "exists",
      "inputs": [],
      "outputs": [
        {
          "name": "",
          "type": "bool",
          "internalType": "bool"
        }
      ],
      "stateMutability": "view"
    },
    {
      "type": "function",
      "name": "getChild",
      "inputs": [
        {
          "name": "customer",
          "type": "address",
          "internalType": "contract Customer"
        }
      ],
      "outputs": [
        {
          "name": "",
          "type": "address",
          "internalType": "contract Customer"
        }
      ],
      "stateMutability": "view"
    },
    {
      "type": "function",
      "name": "getChildren",
      "inputs": [],
      "outputs": [
        {
          "name": "",
          "type": "address[]",
          "internalType": "contract Customer[]"
        }
      ],
      "stateMutability": "view"
    },
    {
      "type": "function",
      "name": "isAuthorizedUser",
      "inputs": [
        {
          "name": "user",
          "type": "address",
          "internalType": "address"
        }
      ],
      "outputs": [
        {
          "name": "",
          "type": "bool",
          "internalType": "bool"
        }
      ],
      "stateMutability": "view"
    },
    {
      "type": "function",
      "name": "name",
      "inputs": [],
      "outputs": [
        {
          "name": "",
          "type": "string",
          "internalType": "string"
        }
      ],
      "stateMutability": "view"
    },
    {
      "type": "function",
      "name": "owner",
      "inputs": [],
      "outputs": [
        {
          "name": "",
          "type": "address",
          "internalType": "address"
        }
      ],
      "stateMutability": "view"
    },
    {
      "type": "function",
      "name": "parent",
      "inputs": [],
      "outputs": [
        {
          "name": "",
          "type": "address",
          "internalType": "contract Customer"
        }
      ],
      "stateMutability": "view"
    },
    {
      "type": "function",
      "name": "renounceOwnership",
      "inputs": [],
      "outputs": [],
      "stateMutability": "nonpayable"
    },
    {
      "type": "function",
      "name": "revokeUser",
      "inputs": [
        {
          "name": "user",
          "type": "address",
          "internalType": "address"
        }
      ],
      "outputs": [],
      "stateMutability": "nonpayable"
    },
    {
      "type": "function",
      "name": "transferOwnership",
      "inputs": [
        {
          "name": "newOwner",
          "type": "address",
          "internalType": "address"
        }
      ],
      "outputs": [],
      "stateMutability": "nonpayable"
    },
    {
      "type": "event",
      "name": "OwnershipTransferred",
      "inputs": [
        {
          "name": "previousOwner",
          "type": "address",
          "indexed": true,
          "internalType": "address"
        },
        {
          "name": "newOwner",
          "type": "address",
          "indexed": true,
          "internalType": "address"
        }
      ],
      "anonymous": false
    },
    {
      "type": "event",
      "name": "UserAdded",
      "inputs": [
        {
          "name": "user",
          "type": "address",
          "indexed": false,
          "internalType": "address"
        }
      ],
      "anonymous": false
    },
    {
      "type": "event",
      "name": "UserRevoked",
      "inputs": [
        {
          "name": "user",
          "type": "address",
          "indexed": false,
          "internalType": "address"
        }
      ],
      "anonymous": false
    },
    {
      "type": "error",
      "name": "OwnableInvalidOwner",
      "inputs": [
        {
          "name": "owner",
          "type": "address",
          "internalType": "address"
        }
      ]
    },
    {
      "type": "error",
      "name": "OwnableUnauthorizedAccount",
      "inputs": [
        {
          "name": "account",
          "type": "address",
          "internalType": "address"
        }
      ]
    }
  ],
  "bytecode": {
    "object": "0x608060405234801562000010575f80fd5b506040516200157d3803806200157d8339818101604052810190620000369190620004a8565b335f73ffffffffffffffffffffffffffffffffffffffff168173ffffffffffffffffffffffffffffffffffffffff1603620000aa575f6040517f1e4fbdf7000000000000000000000000000000000000000000000000000000008152600401620000a1919062000531565b60405180910390fd5b620000bb81620001bf60201b60201c565b508260015f6101000a81548173ffffffffffffffffffffffffffffffffffffffff021916908373ffffffffffffffffffffffffffffffffffffffff160217905550600160045f6101000a81548160ff021916908315150217905550600160035f8473ffffffffffffffffffffffffffffffffffffffff1673ffffffffffffffffffffffffffffffffffffffff1681526020019081526020015f205f6101000a81548160ff02191690831515021790555080600590816200017c919062000783565b507f19ef9a4877199f89440a26acb26895ec02ed86f2df1aeaa90dc18041b892f71f82604051620001ae919062000531565b60405180910390a150505062000867565b5f805f9054906101000a900473ffffffffffffffffffffffffffffffffffffffff169050815f806101000a81548173ffffffffffffffffffffffffffffffffffffffff021916908373ffffffffffffffffffffffffffffffffffffffff1602179055508173ffffffffffffffffffffffffffffffffffffffff168173ffffffffffffffffffffffffffffffffffffffff167f8be0079c531659141344cd1fd0a4f28419497f9722a3daafe3b4186f6b6457e060405160405180910390a35050565b5f604051905090565b5f80fd5b5f80fd5b5f73ffffffffffffffffffffffffffffffffffffffff82169050919050565b5f620002bc8262000291565b9050919050565b5f620002cf82620002b0565b9050919050565b620002e181620002c3565b8114620002ec575f80fd5b50565b5f81519050620002ff81620002d6565b92915050565b6200031081620002b0565b81146200031b575f80fd5b50565b5f815190506200032e8162000305565b92915050565b5f80fd5b5f80fd5b5f601f19601f8301169050919050565b7f4e487b71000000000000000000000000000000000000000000000000000000005f52604160045260245ffd5b62000384826200033c565b810181811067ffffffffffffffff82111715620003a657620003a56200034c565b5b80604052505050565b5f620003ba62000280565b9050620003c8828262000379565b919050565b5f67ffffffffffffffff821115620003ea57620003e96200034c565b5b620003f5826200033c565b9050602081019050919050565b5f5b838110156200042157808201518184015260208101905062000404565b5f8484015250505050565b5f620004426200043c84620003cd565b620003af565b90508281526020810184848401111562000461576200046062000338565b5b6200046e84828562000402565b509392505050565b5f82601f8301126200048d576200048c62000334565b5b81516200049f8482602086016200042c565b91505092915050565b5f805f60608486031215620004c257620004c162000289565b5b5f620004d186828701620002ef565b9350506020620004e4868287016200031e565b925050604084015167ffffffffffffffff8111156200050857620005076200028d565b5b620005168682870162000476565b9150509250925092565b6200052b81620002b0565b82525050565b5f602082019050620005465f83018462000520565b92915050565b5f81519050919050565b7f4e487b71000000000000000000000000000000000000000000000000000000005f52602260045260245ffd5b5f60028204905060018216806200059b57607f821691505b602082108103620005b157620005b062000556565b5b50919050565b5f819050815f5260205f209050919050565b5f6020601f8301049050919050565b5f82821b905092915050565b5f60088302620006157fffffffffffffffffffffffffffffffffffffffffffffffffffffffffffffffff82620005d8565b620006218683620005d8565b95508019841693508086168417925050509392505050565b5f819050919050565b5f819050919050565b5f6200066b620006656200065f8462000639565b62000642565b62000639565b9050919050565b5f819050919050565b62000686836200064b565b6200069e620006958262000672565b848454620005e4565b825550505050565b5f90565b620006b4620006a6565b620006c18184846200067b565b505050565b5b81811015620006e857620006dc5f82620006aa565b600181019050620006c7565b5050565b601f82111562000737576200070181620005b7565b6200070c84620005c9565b810160208510156200071c578190505b620007346200072b85620005c9565b830182620006c6565b50505b505050565b5f82821c905092915050565b5f620007595f19846008026200073c565b1980831691505092915050565b5f62000773838362000748565b9150826002028217905092915050565b6200078e826200054c565b67ffffffffffffffff811115620007aa57620007a96200034c565b5b620007b6825462000583565b620007c3828285620006ec565b5f60209050601f831160018114620007f9575f8415620007e4578287015190505b620007f0858262000766565b8655506200085f565b601f1984166200080986620005b7565b5f5b8281101562000832578489015182556001820191506020850194506020810190506200080b565b868310156200085257848901516200084e601f89168262000748565b8355505b6001600288020188555050505b505050505050565b610d0880620008755f395ff3fe608060405234801561000f575f80fd5b50600436106100cd575f3560e01c806360f96a8f1161008a5780638da5cb5b116100645780638da5cb5b146101eb578063ec17e13a14610209578063ef097fc414610239578063f2fde38b14610255576100cd565b806360f96a8f146101a757806367c2a360146101c5578063715018a6146101e1576100cd565b806306fdde03146100d15780631828983a146100ef5780631eee993a1461011f57806325a10a701461013b578063267c4ae41461016b5780634892e8e814610189575b5f80fd5b6100d9610271565b6040516100e6919061092b565b60405180910390f35b610109600480360381019061010491906109a9565b6102fd565b60405161011691906109ee565b60405180910390f35b61013960048036038101906101349190610a42565b61031a565b005b61015560048036038101906101509190610a42565b61037d565b6040516101629190610ac8565b60405180910390f35b610173610453565b60405161018091906109ee565b60405180910390f35b610191610465565b60405161019e9190610b98565b60405180910390f35b6101af6104f0565b6040516101bc9190610ac8565b60405180910390f35b6101df60048036038101906101da91906109a9565b610515565b005b6101e96105ac565b005b6101f36105bf565b6040516102009190610bc7565b60405180910390f35b610223600480360381019061021e91906109a9565b6105e6565b60405161023091906109ee565b60405180910390f35b610253600480360381019061024e91906109a9565b610638565b005b61026f600480360381019061026a91906109a9565b6106ce565b005b6005805461027e90610c0d565b80601f01602080910402602001604051908101604052809291908181526020018280546102aa90610c0d565b80156102f55780601f106102cc576101008083540402835291602001916102f5565b820191905f5260205f20905b8154815290600101906020018083116102d857829003601f168201915b505050505081565b6003602052805f5260405f205f915054906101000a900460ff1681565b600281908060018154018082558091505060019003905f5260205f20015f9091909190916101000a81548173ffffffffffffffffffffffffffffffffffffffff021916908373ffffffffffffffffffffffffffffffffffffffff16021790555050565b5f80610387610465565b90505f5b8151811015610412578373ffffffffffffffffffffffffffffffffffffffff168282815181106103be576103bd610c3d565b5b602002602001015173ffffffffffffffffffffffffffffffffffffffff1603610405578181815181106103f4576103f3610c3d565b5b60200260200101519250505061044e565b808060010191505061038b565b506040517f08c379a000000000000000000000000000000000000000000000000000000000815260040161044590610cb4565b60405180910390fd5b919050565b60045f9054906101000a900460ff1681565b606060028054806020026020016040519081016040528092919081815260200182805480156104e657602002820191905f5260205f20905b815f9054906101000a900473ffffffffffffffffffffffffffffffffffffffff1673ffffffffffffffffffffffffffffffffffffffff168152602001906001019080831161049d575b5050505050905090565b60015f9054906101000a900473ffffffffffffffffffffffffffffffffffffffff1681565b61051d610752565b600160035f8373ffffffffffffffffffffffffffffffffffffffff1673ffffffffffffffffffffffffffffffffffffffff1681526020019081526020015f205f6101000a81548160ff0219169083151502179055507f19ef9a4877199f89440a26acb26895ec02ed86f2df1aeaa90dc18041b892f71f816040516105a19190610bc7565b60405180910390a150565b6105b4610752565b6105bd5f6107d9565b565b5f805f9054906101000a900473ffffffffffffffffffffffffffffffffffffffff16905090565b5f60035f8373ffffffffffffffffffffffffffffffffffffffff1673ffffffffffffffffffffffffffffffffffffffff1681526020019081526020015f205f9054906101000a900460ff169050919050565b610640610752565b5f60035f8373ffffffffffffffffffffffffffffffffffffffff1673ffffffffffffffffffffffffffffffffffffffff1681526020019081526020015f205f6101000a81548160ff0219169083151502179055507fb43ac7bf01d16ebcb8c868a4c03fecb1f6984ea4fa1a52c116ef282b8dbb17c5816040516106c39190610bc7565b60405180910390a150565b6106d6610752565b5f73ffffffffffffffffffffffffffffffffffffffff168173ffffffffffffffffffffffffffffffffffffffff1603610746575f6040517f1e4fbdf700000000000000000000000000000000000000000000000000000000815260040161073d9190610bc7565b60405180910390fd5b61074f816107d9565b50565b61075a61089a565b73ffffffffffffffffffffffffffffffffffffffff166107786105bf565b73ffffffffffffffffffffffffffffffffffffffff16146107d75761079b61089a565b6040517f118cdaa70000000000000000000000000000000000000000000000000000000081526004016107ce9190610bc7565b60405180910390fd5b565b5f805f9054906101000a900473ffffffffffffffffffffffffffffffffffffffff169050815f806101000a81548173ffffffffffffffffffffffffffffffffffffffff021916908373ffffffffffffffffffffffffffffffffffffffff1602179055508173ffffffffffffffffffffffffffffffffffffffff168173ffffffffffffffffffffffffffffffffffffffff167f8be0079c531659141344cd1fd0a4f28419497f9722a3daafe3b4186f6b6457e060405160405180910390a35050565b5f33905090565b5f81519050919050565b5f82825260208201905092915050565b5f5b838110156108d85780820151818401526020810190506108bd565b5f8484015250505050565b5f601f19601f8301169050919050565b5f6108fd826108a1565b61090781856108ab565b93506109178185602086016108bb565b610920816108e3565b840191505092915050565b5f6020820190508181035f83015261094381846108f3565b905092915050565b5f80fd5b5f73ffffffffffffffffffffffffffffffffffffffff82169050919050565b5f6109788261094f565b9050919050565b6109888161096e565b8114610992575f80fd5b50565b5f813590506109a38161097f565b92915050565b5f602082840312156109be576109bd61094b565b5b5f6109cb84828501610995565b91505092915050565b5f8115159050919050565b6109e8816109d4565b82525050565b5f602082019050610a015f8301846109df565b92915050565b5f610a118261096e565b9050919050565b610a2181610a07565b8114610a2b575f80fd5b50565b5f81359050610a3c81610a18565b92915050565b5f60208284031215610a5757610a5661094b565b5b5f610a6484828501610a2e565b91505092915050565b5f819050919050565b5f610a90610a8b610a868461094f565b610a6d565b61094f565b9050919050565b5f610aa182610a76565b9050919050565b5f610ab282610a97565b9050919050565b610ac281610aa8565b82525050565b5f602082019050610adb5f830184610ab9565b92915050565b5f81519050919050565b5f82825260208201905092915050565b5f819050602082019050919050565b610b1381610aa8565b82525050565b5f610b248383610b0a565b60208301905092915050565b5f602082019050919050565b5f610b4682610ae1565b610b508185610aeb565b9350610b5b83610afb565b805f5b83811015610b8b578151610b728882610b19565b9750610b7d83610b30565b925050600181019050610b5e565b5085935050505092915050565b5f6020820190508181035f830152610bb08184610b3c565b905092915050565b610bc18161096e565b82525050565b5f602082019050610bda5f830184610bb8565b92915050565b7f4e487b71000000000000000000000000000000000000000000000000000000005f52602260045260245ffd5b5f6002820490506001821680610c2457607f821691505b602082108103610c3757610c36610be0565b5b50919050565b7f4e487b71000000000000000000000000000000000000000000000000000000005f52603260045260245ffd5b7f4368696c64206e6f7420666f756e6400000000000000000000000000000000005f82015250565b5f610c9e600f836108ab565b9150610ca982610c6a565b602082019050919050565b5f6020820190508181035f830152610ccb81610c92565b905091905056fea26469706673582212206c5fc5a158f19c3bda35bd197f2ccfeecc71053cf86eb240527b8dc98657990b64736f6c63430008180033",
    "linkReferences": {}
  },
  "methodIdentifiers": {
    "addChild(address)": "1eee993a",
    "authorizeUser(address)": "67c2a360",
    "authorizedUsers(address)": "1828983a",
    "exists()": "267c4ae4",
    "getChild(address)": "25a10a70",
    "getChildren()": "4892e8e8",
    "isAuthorizedUser(address)": "ec17e13a",
    "name()": "06fdde03",
    "owner()": "8da5cb5b",
    "parent()": "60f96a8f",
    "renounceOwnership()": "715018a6",
    "revokeUser(address)": "ef097fc4",
    "transferOwnership(address)": "f2fde38b"
  },
  "id": 26
}