{
   "abi": [
      {
         "type": "constructor",
         "inputs": [
            {
               "name": "_parent",
               "type": "address",
               "internalType": "contract Customer"
            },
            {
               "name": "admin",
               "type": "address",
               "internalType": "address"
            },
            {
               "name": "_name",
               "type": "string",
               "internalType": "string"
            }
         ],
         "stateMutability": "nonpayable"
      },
      {
         "type": "function",
         "name": "addChild",
         "inputs": [
            {
               "name": "childId",
               "type": "address",
               "internalType": "contract Customer"
            }
         ],
         "outputs": [],
         "stateMutability": "nonpayable"
      },
      {
         "type": "function",
         "name": "authorizeUser",
         "inputs": [
            {
               "name": "user",
               "type": "address",
               "internalType": "address"
            }
         ],
         "outputs": [],
         "stateMutability": "nonpayable"
      },
      {
         "type": "function",
         "name": "authorizedUsers",
         "inputs": [
            {
               "name": "",
               "type": "uint256",
               "internalType": "uint256"
            }
         ],
         "outputs": [
            {
               "name": "",
               "type": "address",
               "internalType": "address"
            }
         ],
         "stateMutability": "view"
      },
      {
         "type": "function",
         "name": "exists",
         "inputs": [],
         "outputs": [
            {
               "name": "",
               "type": "bool",
               "internalType": "bool"
            }
         ],
         "stateMutability": "view"
      },
      {
         "type": "function",
         "name": "getAuthorizedUsers",
         "inputs": [],
         "outputs": [
            {
               "name": "",
               "type": "address[]",
               "internalType": "address[]"
            }
         ],
         "stateMutability": "view"
      },
      {
         "type": "function",
         "name": "getChild",
         "inputs": [
            {
               "name": "customer",
               "type": "address",
               "internalType": "contract Customer"
            }
         ],
         "outputs": [
            {
               "name": "",
               "type": "address",
               "internalType": "contract Customer"
            }
         ],
         "stateMutability": "view"
      },
      {
         "type": "function",
         "name": "getChildren",
         "inputs": [],
         "outputs": [
            {
               "name": "",
               "type": "address[]",
               "internalType": "contract Customer[]"
            }
         ],
         "stateMutability": "view"
      },
      {
         "type": "function",
         "name": "isAuthorizedUser",
         "inputs": [
            {
               "name": "user",
               "type": "address",
               "internalType": "address"
            }
         ],
         "outputs": [
            {
               "name": "",
               "type": "bool",
               "internalType": "bool"
            }
         ],
         "stateMutability": "view"
      },
      {
         "type": "function",
         "name": "name",
         "inputs": [],
         "outputs": [
            {
               "name": "",
               "type": "string",
               "internalType": "string"
            }
         ],
         "stateMutability": "view"
      },
      {
         "type": "function",
         "name": "owner",
         "inputs": [],
         "outputs": [
            {
               "name": "",
               "type": "address",
               "internalType": "address"
            }
         ],
         "stateMutability": "view"
      },
      {
         "type": "function",
         "name": "parent",
         "inputs": [],
         "outputs": [
            {
               "name": "",
               "type": "address",
               "internalType": "contract Customer"
            }
         ],
         "stateMutability": "view"
      },
      {
         "type": "function",
         "name": "renounceOwnership",
         "inputs": [],
         "outputs": [],
         "stateMutability": "nonpayable"
      },
      {
         "type": "function",
         "name": "revokeUser",
         "inputs": [
            {
               "name": "user",
               "type": "address",
               "internalType": "address"
            }
         ],
         "outputs": [],
         "stateMutability": "nonpayable"
      },
      {
         "type": "function",
         "name": "transferOwnership",
         "inputs": [
            {
               "name": "newOwner",
               "type": "address",
               "internalType": "address"
            }
         ],
         "outputs": [],
         "stateMutability": "nonpayable"
      },
      {
         "type": "event",
         "name": "OwnershipTransferred",
         "inputs": [
            {
               "name": "previousOwner",
               "type": "address",
               "indexed": true,
               "internalType": "address"
            },
            {
               "name": "newOwner",
               "type": "address",
               "indexed": true,
               "internalType": "address"
            }
         ],
         "anonymous": false
      },
      {
         "type": "event",
         "name": "UserAdded",
         "inputs": [
            {
               "name": "user",
               "type": "address",
               "indexed": false,
               "internalType": "address"
            }
         ],
         "anonymous": false
      },
      {
         "type": "event",
         "name": "UserRevoked",
         "inputs": [
            {
               "name": "user",
               "type": "address",
               "indexed": false,
               "internalType": "address"
            }
         ],
         "anonymous": false
      },
      {
         "type": "error",
         "name": "OwnableInvalidOwner",
         "inputs": [
            {
               "name": "owner",
               "type": "address",
               "internalType": "address"
            }
         ]
      },
      {
         "type": "error",
         "name": "OwnableUnauthorizedAccount",
         "inputs": [
            {
               "name": "account",
               "type": "address",
               "internalType": "address"
            }
         ]
      }
   ],
   "bytecode": {
      "object": "0x608060405234801562000010575f80fd5b5060405162000d0938038062000d0983398101604081905262000033916200019c565b33806200005957604051631e4fbdf760e01b81525f600482015260240160405180910390fd5b620000648162000121565b50600180546001600160a01b038086166001600160a01b03199283161783556004805460ff1916841790556003805493840181555f527fc2575a0e9e593c00f959f8c92f12db2869c3395a3b0502d05e2516446f71f85b9092018054928516929091169190911790556005620000db82826200031e565b506040516001600160a01b03831681527f19ef9a4877199f89440a26acb26895ec02ed86f2df1aeaa90dc18041b892f71f9060200160405180910390a1505050620003ea565b5f80546001600160a01b038381166001600160a01b0319831681178455604051919092169283917f8be0079c531659141344cd1fd0a4f28419497f9722a3daafe3b4186f6b6457e09190a35050565b6001600160a01b038116811462000185575f80fd5b50565b634e487b7160e01b5f52604160045260245ffd5b5f805f60608486031215620001af575f80fd5b8351620001bc8162000170565b80935050602080850151620001d18162000170565b60408601519093506001600160401b0380821115620001ee575f80fd5b818701915087601f83011262000202575f80fd5b81518181111562000217576200021762000188565b604051601f8201601f19908116603f0116810190838211818310171562000242576200024262000188565b816040528281528a868487010111156200025a575f80fd5b5f93505b828410156200027d57848401860151818501870152928501926200025e565b5f8684830101528096505050505050509250925092565b600181811c90821680620002a957607f821691505b602082108103620002c857634e487b7160e01b5f52602260045260245ffd5b50919050565b601f8211156200031957805f5260205f20601f840160051c81016020851015620002f55750805b601f840160051c820191505b8181101562000316575f815560010162000301565b50505b505050565b81516001600160401b038111156200033a576200033a62000188565b62000352816200034b845462000294565b84620002ce565b602080601f83116001811462000388575f8415620003705750858301515b5f19600386901b1c1916600185901b178555620003e2565b5f85815260208120601f198616915b82811015620003b85788860151825594840194600190910190840162000397565b5085821015620003d657878501515f19600388901b60f8161c191681555b505060018460011b0185555b505050505050565b61091180620003f85f395ff3fe608060405234801561000f575f80fd5b50600436106100e5575f3560e01c806367c2a36011610088578063d8e7d36a11610063578063d8e7d36a1461020b578063ec17e13a1461021e578063ef097fc414610231578063f2fde38b14610244575f80fd5b806367c2a360146101e0578063715018a6146101f35780638da5cb5b146101fb575f80fd5b806325a10a70116100c357806325a10a701461017d578063267c4ae4146101a85780634892e8e8146101c557806360f96a8f146101cd575f80fd5b806306fdde03146100e95780631ba7214c146101075780631eee993a1461011c575b5f80fd5b6100f1610257565b6040516100fe9190610771565b60405180910390f35b61010f6102e3565b6040516100fe91906107bd565b61017b61012a36600461081d565b600280546001810182555f919091527f405787fa12a823e0f2b7631cc41b3ba8828b3321ca811111fa75cd3aa3bb5ace0180546001600160a01b0319166001600160a01b0392909216919091179055565b005b61019061018b36600461081d565b610343565b6040516001600160a01b0390911681526020016100fe565b6004546101b59060ff1681565b60405190151581526020016100fe565b61010f6103f7565b600154610190906001600160a01b031681565b61017b6101ee36600461081d565b610455565b61017b6104e0565b5f546001600160a01b0316610190565b61019061021936600461083f565b6104f3565b6101b561022c36600461081d565b61051b565b61017b61023f36600461081d565b610577565b61017b61025236600461081d565b6106b9565b6005805461026490610856565b80601f016020809104026020016040519081016040528092919081815260200182805461029090610856565b80156102db5780601f106102b2576101008083540402835291602001916102db565b820191905f5260205f20905b8154815290600101906020018083116102be57829003601f168201915b505050505081565b6060600380548060200260200160405190810160405280929190818152602001828054801561033957602002820191905f5260205f20905b81546001600160a01b0316815260019091019060200180831161031b575b5050505050905090565b5f8061034d6103f7565b90505f5b81518110156103b757836001600160a01b03168282815181106103765761037661088e565b60200260200101516001600160a01b0316036103af5781818151811061039e5761039e61088e565b602002602001015192505050919050565b600101610351565b5060405162461bcd60e51b815260206004820152600f60248201526e10da1a5b19081b9bdd08199bdd5b99608a1b60448201526064015b60405180910390fd5b6060600280548060200260200160405190810160405280929190818152602001828054801561033957602002820191905f5260205f209081546001600160a01b0316815260019091019060200180831161031b575050505050905090565b61045d6106f6565b600380546001810182555f919091527fc2575a0e9e593c00f959f8c92f12db2869c3395a3b0502d05e2516446f71f85b0180546001600160a01b0319166001600160a01b0383169081179091556040519081527f19ef9a4877199f89440a26acb26895ec02ed86f2df1aeaa90dc18041b892f71f9060200160405180910390a150565b6104e86106f6565b6104f15f610722565b565b60038181548110610502575f80fd5b5f918252602090912001546001600160a01b0316905081565b5f805b60035481101561056f57826001600160a01b0316600382815481106105455761054561088e565b5f918252602090912001546001600160a01b0316036105675750600192915050565b60010161051e565b505f92915050565b61057f6106f6565b5f805b6003548110156105ce57826001600160a01b0316600382815481106105a9576105a961088e565b5f918252602090912001546001600160a01b0316036105c6578091505b600101610582565b50600380546105df906001906108a2565b815481106105ef576105ef61088e565b5f91825260209091200154600380546001600160a01b03909216918390811061061a5761061a61088e565b905f5260205f20015f6101000a8154816001600160a01b0302191690836001600160a01b031602179055506003805480610656576106566108c7565b5f8281526020908190205f19908301810180546001600160a01b03191690559091019091556040516001600160a01b03841681527fb43ac7bf01d16ebcb8c868a4c03fecb1f6984ea4fa1a52c116ef282b8dbb17c5910160405180910390a15050565b6106c16106f6565b6001600160a01b0381166106ea57604051631e4fbdf760e01b81525f60048201526024016103ee565b6106f381610722565b50565b5f546001600160a01b031633146104f15760405163118cdaa760e01b81523360048201526024016103ee565b5f80546001600160a01b038381166001600160a01b0319831681178455604051919092169283917f8be0079c531659141344cd1fd0a4f28419497f9722a3daafe3b4186f6b6457e09190a35050565b5f602080835283518060208501525f5b8181101561079d57858101830151858201604001528201610781565b505f604082860101526040601f19601f8301168501019250505092915050565b602080825282518282018190525f9190848201906040850190845b818110156107fd5783516001600160a01b0316835292840192918401916001016107d8565b50909695505050505050565b6001600160a01b03811681146106f3575f80fd5b5f6020828403121561082d575f80fd5b813561083881610809565b9392505050565b5f6020828403121561084f575f80fd5b5035919050565b600181811c9082168061086a57607f821691505b60208210810361088857634e487b7160e01b5f52602260045260245ffd5b50919050565b634e487b7160e01b5f52603260045260245ffd5b818103818111156108c157634e487b7160e01b5f52601160045260245ffd5b92915050565b634e487b7160e01b5f52603160045260245ffdfea2646970667358221220c470be4ecfaef7568dc7e3f94624ccea62dee37fdb5915db055e05cf7a1844b364736f6c63430008180033",
      "linkReferences": {}
   },
   "methodIdentifiers": {
      "addChild(address)": "1eee993a",
      "authorizeUser(address)": "67c2a360",
      "authorizedUsers(uint256)": "d8e7d36a",
      "exists()": "267c4ae4",
      "getAuthorizedUsers()": "1ba7214c",
      "getChild(address)": "25a10a70",
      "getChildren()": "4892e8e8",
      "isAuthorizedUser(address)": "ec17e13a",
      "name()": "06fdde03",
      "owner()": "8da5cb5b",
      "parent()": "60f96a8f",
      "renounceOwnership()": "715018a6",
      "revokeUser(address)": "ef097fc4",
      "transferOwnership(address)": "f2fde38b"
   },
   "id": 28
}