{
   "abi": [
      {
         "type": "constructor",
         "inputs": [
            {
               "name": "initialCustomer",
               "type": "address",
               "internalType": "contract Customer"
            },
            {
               "name": "_sn",
               "type": "string",
               "internalType": "string"
            },
            {
               "name": "_metadata",
               "type": "string",
               "internalType": "string"
            }
         ],
         "stateMutability": "nonpayable"
      },
      {
         "type": "function",
         "name": "customer",
         "inputs": [],
         "outputs": [
            {
               "name": "",
               "type": "address",
               "internalType": "contract Customer"
            }
         ],
         "stateMutability": "view"
      },
      {
         "type": "function",
         "name": "deviceState",
         "inputs": [],
         "outputs": [
            {
               "name": "",
               "type": "uint8",
               "internalType": "enum Device.DeviceState"
            }
         ],
         "stateMutability": "view"
      },
      {
         "type": "function",
         "name": "metadata",
         "inputs": [],
         "outputs": [
            {
               "name": "",
               "type": "string",
               "internalType": "string"
            }
         ],
         "stateMutability": "view"
      },
      {
         "type": "function",
         "name": "owner",
         "inputs": [],
         "outputs": [
            {
               "name": "",
               "type": "address",
               "internalType": "address"
            }
         ],
         "stateMutability": "view"
      },
      {
         "type": "function",
         "name": "renounceOwnership",
         "inputs": [],
         "outputs": [],
         "stateMutability": "nonpayable"
      },
      {
         "type": "function",
         "name": "setCustomer",
         "inputs": [
            {
               "name": "newCustomer",
               "type": "address",
               "internalType": "contract Customer"
            }
         ],
         "outputs": [],
         "stateMutability": "nonpayable"
      },
      {
         "type": "function",
         "name": "setMetadataUri",
         "inputs": [
            {
               "name": "_metadata",
               "type": "string",
               "internalType": "string"
            }
         ],
         "outputs": [],
         "stateMutability": "nonpayable"
      },
      {
         "type": "function",
         "name": "setState",
         "inputs": [
            {
               "name": "newState",
               "type": "uint8",
               "internalType": "enum Device.DeviceState"
            }
         ],
         "outputs": [],
         "stateMutability": "nonpayable"
      },
      {
         "type": "function",
         "name": "sn",
         "inputs": [],
         "outputs": [
            {
               "name": "",
               "type": "string",
               "internalType": "string"
            }
         ],
         "stateMutability": "view"
      },
      {
         "type": "function",
         "name": "transferOwnership",
         "inputs": [
            {
               "name": "newOwner",
               "type": "address",
               "internalType": "address"
            }
         ],
         "outputs": [],
         "stateMutability": "nonpayable"
      },
      {
         "type": "event",
         "name": "CustomerChanged",
         "inputs": [
            {
               "name": "prevCustomer",
               "type": "address",
               "indexed": false,
               "internalType": "address"
            },
            {
               "name": "newCustomer",
               "type": "address",
               "indexed": false,
               "internalType": "address"
            }
         ],
         "anonymous": false
      },
      {
         "type": "event",
         "name": "MetadataUriChanged",
         "inputs": [
            {
               "name": "prevUri",
               "type": "string",
               "indexed": false,
               "internalType": "string"
            },
            {
               "name": "newUri",
               "type": "string",
               "indexed": false,
               "internalType": "string"
            }
         ],
         "anonymous": false
      },
      {
         "type": "event",
         "name": "OwnershipTransferred",
         "inputs": [
            {
               "name": "previousOwner",
               "type": "address",
               "indexed": true,
               "internalType": "address"
            },
            {
               "name": "newOwner",
               "type": "address",
               "indexed": true,
               "internalType": "address"
            }
         ],
         "anonymous": false
      },
      {
         "type": "event",
         "name": "StateChanged",
         "inputs": [
            {
               "name": "prevState",
               "type": "uint8",
               "indexed": false,
               "internalType": "enum Device.DeviceState"
            },
            {
               "name": "newState",
               "type": "uint8",
               "indexed": false,
               "internalType": "enum Device.DeviceState"
            }
         ],
         "anonymous": false
      },
      {
         "type": "error",
         "name": "OwnableInvalidOwner",
         "inputs": [
            {
               "name": "owner",
               "type": "address",
               "internalType": "address"
            }
         ]
      },
      {
         "type": "error",
         "name": "OwnableUnauthorizedAccount",
         "inputs": [
            {
               "name": "account",
               "type": "address",
               "internalType": "address"
            }
         ]
      }
   ],
   "bytecode": {
      "object": "0x608060405234801562000010575f80fd5b5060405162000b6d38038062000b6d8339810160408190526200003391620001c4565b33806200005957604051631e4fbdf760e01b81525f600482015260240160405180910390fd5b6200006481620000b4565b50600180546001600160a01b0319166001600160a01b03851617905560026200008e8382620002d2565b506003805460ff191660011790556004620000aa8282620002d2565b505050506200039e565b5f80546001600160a01b038381166001600160a01b0319831681178455604051919092169283917f8be0079c531659141344cd1fd0a4f28419497f9722a3daafe3b4186f6b6457e09190a35050565b634e487b7160e01b5f52604160045260245ffd5b5f82601f83011262000127575f80fd5b81516001600160401b038082111562000144576200014462000103565b604051601f8301601f19908116603f011681019082821181831017156200016f576200016f62000103565b81604052838152602092508660208588010111156200018c575f80fd5b5f91505b83821015620001af578582018301518183018401529082019062000190565b5f602085830101528094505050505092915050565b5f805f60608486031215620001d7575f80fd5b83516001600160a01b0381168114620001ee575f80fd5b60208501519093506001600160401b03808211156200020b575f80fd5b620002198783880162000117565b935060408601519150808211156200022f575f80fd5b506200023e8682870162000117565b9150509250925092565b600181811c908216806200025d57607f821691505b6020821081036200027c57634e487b7160e01b5f52602260045260245ffd5b50919050565b601f821115620002cd57805f5260205f20601f840160051c81016020851015620002a95750805b601f840160051c820191505b81811015620002ca575f8155600101620002b5565b50505b505050565b81516001600160401b03811115620002ee57620002ee62000103565b6200030681620002ff845462000248565b8462000282565b602080601f8311600181146200033c575f8415620003245750858301515b5f19600386901b1c1916600185901b17855562000396565b5f85815260208120601f198616915b828110156200036c578886015182559484019460019091019084016200034b565b50858210156200038a57878501515f19600388901b60f8161c191681555b505060018460011b0185555b505050505050565b6107c180620003ac5f395ff3fe608060405234801561000f575f80fd5b506004361061009b575f3560e01c8063715018a611610063578063715018a61461011f5780638da5cb5b14610127578063a34bbe6614610137578063f2fde38b14610151578063f872bec014610164575f80fd5b80631130630c1461009f5780632804b2c0146100b4578063392f37e9146100e457806356de96db146100f9578063620c0c4b1461010c575b5f80fd5b6100b26100ad366004610404565b61016c565b005b6001546100c7906001600160a01b031681565b6040516001600160a01b0390911681526020015b60405180910390f35b6100ec6101ba565b6040516100db9190610470565b6100b26101073660046104bc565b610246565b6100b261011a3660046104f5565b6102b6565b6100b2610327565b5f546001600160a01b03166100c7565b6003546101449060ff1681565b6040516100db9190610544565b6100b261015f3660046104f5565b61033a565b6100ec61037c565b7ff794b32488eb5712dd5a2640efa2ebc0234c4b77fe6f3a290b3402e7b03abc48600483836040516101a0939291906105b8565b60405180910390a160046101b58284836106b6565b505050565b600480546101c790610558565b80601f01602080910402602001604051908101604052809291908181526020018280546101f390610558565b801561023e5780601f106102155761010080835404028352916020019161023e565b820191905f5260205f20905b81548152906001019060200180831161022157829003601f168201915b505050505081565b61024e610389565b6003546040517fe8a97ea87e4388fa22d496b95a8ed5ced6717f49790318de2b928aaf37a021d8916102879160ff909116908490610770565b60405180910390a16003805482919060ff191660018360028111156102ae576102ae610510565b021790555050565b6102be610389565b600154604080516001600160a01b03928316815291831660208301527f391847abdda0edb4f1e720f30e246be400e373ef6243bd03bd41fe7db6e74f55910160405180910390a1600180546001600160a01b0319166001600160a01b0392909216919091179055565b61032f610389565b6103385f6103b5565b565b610342610389565b6001600160a01b03811661037057604051631e4fbdf760e01b81525f60048201526024015b60405180910390fd5b610379816103b5565b50565b600280546101c790610558565b5f546001600160a01b031633146103385760405163118cdaa760e01b8152336004820152602401610367565b5f80546001600160a01b038381166001600160a01b0319831681178455604051919092169283917f8be0079c531659141344cd1fd0a4f28419497f9722a3daafe3b4186f6b6457e09190a35050565b5f8060208385031215610415575f80fd5b823567ffffffffffffffff8082111561042c575f80fd5b818501915085601f83011261043f575f80fd5b81358181111561044d575f80fd5b86602082850101111561045e575f80fd5b60209290920196919550909350505050565b5f602080835283518060208501525f5b8181101561049c57858101830151858201604001528201610480565b505f604082860101526040601f19601f8301168501019250505092915050565b5f602082840312156104cc575f80fd5b8135600381106104da575f80fd5b9392505050565b6001600160a01b0381168114610379575f80fd5b5f60208284031215610505575f80fd5b81356104da816104e1565b634e487b7160e01b5f52602160045260245ffd5b6003811061054057634e487b7160e01b5f52602160045260245ffd5b9052565b602081016105528284610524565b92915050565b600181811c9082168061056c57607f821691505b60208210810361058a57634e487b7160e01b5f52602260045260245ffd5b50919050565b81835281816020850137505f828201602090810191909152601f909101601f19169091010190565b604081525f8085546105c981610558565b806040860152606060018084165f81146105ea576001811461060657610635565b60ff1985166060890152606084151560051b8901019550610635565b8a5f526020805f205f5b8681101561062b5781548b8201870152908401908201610610565b8a01606001975050505b5050505050828103602084015261064d818587610590565b9695505050505050565b634e487b7160e01b5f52604160045260245ffd5b601f8211156101b557805f5260205f20601f840160051c810160208510156106905750805b601f840160051c820191505b818110156106af575f815560010161069c565b5050505050565b67ffffffffffffffff8311156106ce576106ce610657565b6106e2836106dc8354610558565b8361066b565b5f601f841160018114610713575f85156106fc5750838201355b5f19600387901b1c1916600186901b1783556106af565b5f83815260208120601f198716915b828110156107425786850135825560209485019460019092019101610722565b508682101561075e575f1960f88860031b161c19848701351681555b505060018560011b0183555050505050565b6040810161077e8285610524565b6104da602083018461052456fea2646970667358221220f831cecb03c0503fcbf963d22118c218980e4725fda073b28c75c31c2763bf8664736f6c63430008180033",
      "linkReferences": {}
   },
   "methodIdentifiers": {
      "customer()": "2804b2c0",
      "deviceState()": "a34bbe66",
      "metadata()": "392f37e9",
      "owner()": "8da5cb5b",
      "renounceOwnership()": "715018a6",
      "setCustomer(address)": "620c0c4b",
      "setMetadataUri(string)": "1130630c",
      "setState(uint8)": "56de96db",
      "sn()": "f872bec0",
      "transferOwnership(address)": "f2fde38b"
   },
   "id": 25
}