{
   "abi": [
      {
         "type": "constructor",
         "inputs": [
            {
               "name": "initialCustomer",
               "type": "address",
               "internalType": "contract Customer"
            },
            {
               "name": "_sn",
               "type": "string",
               "internalType": "string"
            },
            {
               "name": "_metadata",
               "type": "string",
               "internalType": "string"
            }
         ],
         "stateMutability": "nonpayable"
      },
      {
         "type": "function",
         "name": "customer",
         "inputs": [],
         "outputs": [
            {
               "name": "",
               "type": "address",
               "internalType": "contract Customer"
            }
         ],
         "stateMutability": "view"
      },
      {
         "type": "function",
         "name": "locked",
         "inputs": [],
         "outputs": [
            {
               "name": "",
               "type": "uint8",
               "internalType": "enum Device.DeviceState"
            }
         ],
         "stateMutability": "view"
      },
      {
         "type": "function",
         "name": "metadata",
         "inputs": [],
         "outputs": [
            {
               "name": "",
               "type": "string",
               "internalType": "string"
            }
         ],
         "stateMutability": "view"
      },
      {
         "type": "function",
         "name": "owner",
         "inputs": [],
         "outputs": [
            {
               "name": "",
               "type": "address",
               "internalType": "address"
            }
         ],
         "stateMutability": "view"
      },
      {
         "type": "function",
         "name": "renounceOwnership",
         "inputs": [],
         "outputs": [],
         "stateMutability": "nonpayable"
      },
      {
         "type": "function",
         "name": "setCustomer",
         "inputs": [
            {
               "name": "newCustomer",
               "type": "address",
               "internalType": "contract Customer"
            }
         ],
         "outputs": [],
         "stateMutability": "nonpayable"
      },
      {
         "type": "function",
         "name": "setMetadataUrl",
         "inputs": [
            {
               "name": "_metadata",
               "type": "string",
               "internalType": "string"
            }
         ],
         "outputs": [],
         "stateMutability": "nonpayable"
      },
      {
         "type": "function",
         "name": "setState",
         "inputs": [
            {
               "name": "newState",
               "type": "uint8",
               "internalType": "enum Device.DeviceState"
            }
         ],
         "outputs": [],
         "stateMutability": "nonpayable"
      },
      {
         "type": "function",
         "name": "sn",
         "inputs": [],
         "outputs": [
            {
               "name": "",
               "type": "string",
               "internalType": "string"
            }
         ],
         "stateMutability": "view"
      },
      {
         "type": "function",
         "name": "transferOwnership",
         "inputs": [
            {
               "name": "newOwner",
               "type": "address",
               "internalType": "address"
            }
         ],
         "outputs": [],
         "stateMutability": "nonpayable"
      },
      {
         "type": "event",
         "name": "CustomerChanged",
         "inputs": [
            {
               "name": "prevCustomer",
               "type": "address",
               "indexed": false,
               "internalType": "address"
            },
            {
               "name": "newCustomer",
               "type": "address",
               "indexed": false,
               "internalType": "address"
            }
         ],
         "anonymous": false
      },
      {
         "type": "event",
         "name": "OwnershipTransferred",
         "inputs": [
            {
               "name": "previousOwner",
               "type": "address",
               "indexed": true,
               "internalType": "address"
            },
            {
               "name": "newOwner",
               "type": "address",
               "indexed": true,
               "internalType": "address"
            }
         ],
         "anonymous": false
      },
      {
         "type": "event",
         "name": "StateChanged",
         "inputs": [
            {
               "name": "prevState",
               "type": "uint8",
               "indexed": false,
               "internalType": "enum Device.DeviceState"
            },
            {
               "name": "newState",
               "type": "uint8",
               "indexed": false,
               "internalType": "enum Device.DeviceState"
            }
         ],
         "anonymous": false
      },
      {
         "type": "error",
         "name": "OwnableInvalidOwner",
         "inputs": [
            {
               "name": "owner",
               "type": "address",
               "internalType": "address"
            }
         ]
      },
      {
         "type": "error",
         "name": "OwnableUnauthorizedAccount",
         "inputs": [
            {
               "name": "account",
               "type": "address",
               "internalType": "address"
            }
         ]
      }
   ],
   "bytecode": {
      "object": "0x608060405234801562000010575f80fd5b5060405162000a6a38038062000a6a8339810160408190526200003391620001c4565b33806200005957604051631e4fbdf760e01b81525f600482015260240160405180910390fd5b6200006481620000b4565b50600180546001600160a01b0319166001600160a01b03851617905560026200008e8382620002d2565b506003805460ff191660011790556004620000aa8282620002d2565b505050506200039e565b5f80546001600160a01b038381166001600160a01b0319831681178455604051919092169283917f8be0079c531659141344cd1fd0a4f28419497f9722a3daafe3b4186f6b6457e09190a35050565b634e487b7160e01b5f52604160045260245ffd5b5f82601f83011262000127575f80fd5b81516001600160401b038082111562000144576200014462000103565b604051601f8301601f19908116603f011681019082821181831017156200016f576200016f62000103565b81604052838152602092508660208588010111156200018c575f80fd5b5f91505b83821015620001af578582018301518183018401529082019062000190565b5f602085830101528094505050505092915050565b5f805f60608486031215620001d7575f80fd5b83516001600160a01b0381168114620001ee575f80fd5b60208501519093506001600160401b03808211156200020b575f80fd5b620002198783880162000117565b935060408601519150808211156200022f575f80fd5b506200023e8682870162000117565b9150509250925092565b600181811c908216806200025d57607f821691505b6020821081036200027c57634e487b7160e01b5f52602260045260245ffd5b50919050565b601f821115620002cd57805f5260205f20601f840160051c81016020851015620002a95750805b601f840160051c820191505b81811015620002ca575f8155600101620002b5565b50505b505050565b81516001600160401b03811115620002ee57620002ee62000103565b6200030681620002ff845462000248565b8462000282565b602080601f8311600181146200033c575f8415620003245750858301515b5f19600386901b1c1916600185901b17855562000396565b5f85815260208120601f198616915b828110156200036c578886015182559484019460019091019084016200034b565b50858210156200038a57878501515f19600388901b60f8161c191681555b505060018460011b0185555b505050505050565b6106be80620003ac5f395ff3fe608060405234801561000f575f80fd5b506004361061009b575f3560e01c8063715018a611610063578063715018a61461011f5780638da5cb5b14610127578063cf30901214610137578063f2fde38b14610151578063f872bec014610164575f80fd5b80632804b2c01461009f578063392f37e9146100cf57806356de96db146100e45780635cc48039146100f9578063620c0c4b1461010c575b5f80fd5b6001546100b2906001600160a01b031681565b6040516001600160a01b0390911681526020015b60405180910390f35b6100d761016c565b6040516100c691906103c8565b6100f76100f2366004610414565b6101f8565b005b6100f7610107366004610439565b610268565b6100f761011a3660046104b9565b61027a565b6100f76102eb565b5f546001600160a01b03166100b2565b6003546101449060ff1681565b6040516100c69190610508565b6100f761015f3660046104b9565b6102fe565b6100d7610340565b600480546101799061051c565b80601f01602080910402602001604051908101604052809291908181526020018280546101a59061051c565b80156101f05780601f106101c7576101008083540402835291602001916101f0565b820191905f5260205f20905b8154815290600101906020018083116101d357829003601f168201915b505050505081565b61020061034d565b6003546040517fe8a97ea87e4388fa22d496b95a8ed5ced6717f49790318de2b928aaf37a021d8916102399160ff909116908490610554565b60405180910390a16003805482919060ff19166001836002811115610260576102606104d4565b021790555050565b60046102758284836105ce565b505050565b61028261034d565b600154604080516001600160a01b03928316815291831660208301527f391847abdda0edb4f1e720f30e246be400e373ef6243bd03bd41fe7db6e74f55910160405180910390a1600180546001600160a01b0319166001600160a01b0392909216919091179055565b6102f361034d565b6102fc5f610379565b565b61030661034d565b6001600160a01b03811661033457604051631e4fbdf760e01b81525f60048201526024015b60405180910390fd5b61033d81610379565b50565b600280546101799061051c565b5f546001600160a01b031633146102fc5760405163118cdaa760e01b815233600482015260240161032b565b5f80546001600160a01b038381166001600160a01b0319831681178455604051919092169283917f8be0079c531659141344cd1fd0a4f28419497f9722a3daafe3b4186f6b6457e09190a35050565b5f602080835283518060208501525f5b818110156103f4578581018301518582016040015282016103d8565b505f604082860101526040601f19601f8301168501019250505092915050565b5f60208284031215610424575f80fd5b813560038110610432575f80fd5b9392505050565b5f806020838503121561044a575f80fd5b823567ffffffffffffffff80821115610461575f80fd5b818501915085601f830112610474575f80fd5b813581811115610482575f80fd5b866020828501011115610493575f80fd5b60209290920196919550909350505050565b6001600160a01b038116811461033d575f80fd5b5f602082840312156104c9575f80fd5b8135610432816104a5565b634e487b7160e01b5f52602160045260245ffd5b6003811061050457634e487b7160e01b5f52602160045260245ffd5b9052565b6020810161051682846104e8565b92915050565b600181811c9082168061053057607f821691505b60208210810361054e57634e487b7160e01b5f52602260045260245ffd5b50919050565b6040810161056282856104e8565b61043260208301846104e8565b634e487b7160e01b5f52604160045260245ffd5b601f82111561027557805f5260205f20601f840160051c810160208510156105a85750805b601f840160051c820191505b818110156105c7575f81556001016105b4565b5050505050565b67ffffffffffffffff8311156105e6576105e661056f565b6105fa836105f4835461051c565b83610583565b5f601f84116001811461062b575f85156106145750838201355b5f19600387901b1c1916600186901b1783556105c7565b5f83815260208120601f198716915b8281101561065a578685013582556020948501946001909201910161063a565b5086821015610676575f1960f88860031b161c19848701351681555b505060018560011b018355505050505056fea264697066735822122079ed802e5d762eebd47a6896961f76b94d2828bcd21e8b28199e746c00f420a064736f6c63430008180033",
      "linkReferences": {}
   },
   "methodIdentifiers": {
      "customer()": "2804b2c0",
      "locked()": "cf309012",
      "metadata()": "392f37e9",
      "owner()": "8da5cb5b",
      "renounceOwnership()": "715018a6",
      "setCustomer(address)": "620c0c4b",
      "setMetadataUrl(string)": "5cc48039",
      "setState(uint8)": "56de96db",
      "sn()": "f872bec0",
      "transferOwnership(address)": "f2fde38b"
   },
   "id": 30
}