{
   "abi": [
      {
         "type": "constructor",
         "inputs": [
            {
               "name": "initialCustomer",
               "type": "address",
               "internalType": "contract Customer"
            },
            {
               "name": "_sn",
               "type": "string",
               "internalType": "string"
            },
            {
               "name": "_metadata",
               "type": "string",
               "internalType": "string"
            },
            {
               "name": "initialState",
               "type": "uint8",
               "internalType": "enum Device.DeviceState"
            }
         ],
         "stateMutability": "nonpayable"
      },
      {
         "type": "function",
         "name": "customer",
         "inputs": [],
         "outputs": [
            {
               "name": "",
               "type": "address",
               "internalType": "contract Customer"
            }
         ],
         "stateMutability": "view"
      },
      {
         "type": "function",
         "name": "deviceState",
         "inputs": [],
         "outputs": [
            {
               "name": "",
               "type": "uint8",
               "internalType": "enum Device.DeviceState"
            }
         ],
         "stateMutability": "view"
      },
      {
         "type": "function",
         "name": "metadata",
         "inputs": [],
         "outputs": [
            {
               "name": "",
               "type": "string",
               "internalType": "string"
            }
         ],
         "stateMutability": "view"
      },
      {
         "type": "function",
         "name": "owner",
         "inputs": [],
         "outputs": [
            {
               "name": "",
               "type": "address",
               "internalType": "address"
            }
         ],
         "stateMutability": "view"
      },
      {
         "type": "function",
         "name": "renounceOwnership",
         "inputs": [],
         "outputs": [],
         "stateMutability": "nonpayable"
      },
      {
         "type": "function",
         "name": "setCustomer",
         "inputs": [
            {
               "name": "newCustomer",
               "type": "address",
               "internalType": "contract Customer"
            }
         ],
         "outputs": [],
         "stateMutability": "nonpayable"
      },
      {
         "type": "function",
         "name": "setMetadataUri",
         "inputs": [
            {
               "name": "_metadata",
               "type": "string",
               "internalType": "string"
            }
         ],
         "outputs": [],
         "stateMutability": "nonpayable"
      },
      {
         "type": "function",
         "name": "setState",
         "inputs": [
            {
               "name": "newState",
               "type": "uint8",
               "internalType": "enum Device.DeviceState"
            }
         ],
         "outputs": [],
         "stateMutability": "nonpayable"
      },
      {
         "type": "function",
         "name": "sn",
         "inputs": [],
         "outputs": [
            {
               "name": "",
               "type": "string",
               "internalType": "string"
            }
         ],
         "stateMutability": "view"
      },
      {
         "type": "function",
         "name": "toggleVisible",
         "inputs": [],
         "outputs": [],
         "stateMutability": "nonpayable"
      },
      {
         "type": "function",
         "name": "transferOwnership",
         "inputs": [
            {
               "name": "newOwner",
               "type": "address",
               "internalType": "address"
            }
         ],
         "outputs": [],
         "stateMutability": "nonpayable"
      },
      {
         "type": "function",
         "name": "visible",
         "inputs": [],
         "outputs": [
            {
               "name": "",
               "type": "bool",
               "internalType": "bool"
            }
         ],
         "stateMutability": "view"
      },
      {
         "type": "event",
         "name": "CustomerChanged",
         "inputs": [
            {
               "name": "prevCustomer",
               "type": "address",
               "indexed": false,
               "internalType": "address"
            },
            {
               "name": "newCustomer",
               "type": "address",
               "indexed": false,
               "internalType": "address"
            }
         ],
         "anonymous": false
      },
      {
         "type": "event",
         "name": "MetadataUriChanged",
         "inputs": [
            {
               "name": "prevUri",
               "type": "string",
               "indexed": false,
               "internalType": "string"
            },
            {
               "name": "newUri",
               "type": "string",
               "indexed": false,
               "internalType": "string"
            }
         ],
         "anonymous": false
      },
      {
         "type": "event",
         "name": "OwnershipTransferred",
         "inputs": [
            {
               "name": "previousOwner",
               "type": "address",
               "indexed": true,
               "internalType": "address"
            },
            {
               "name": "newOwner",
               "type": "address",
               "indexed": true,
               "internalType": "address"
            }
         ],
         "anonymous": false
      },
      {
         "type": "event",
         "name": "StateChanged",
         "inputs": [
            {
               "name": "prevState",
               "type": "uint8",
               "indexed": false,
               "internalType": "enum Device.DeviceState"
            },
            {
               "name": "newState",
               "type": "uint8",
               "indexed": false,
               "internalType": "enum Device.DeviceState"
            }
         ],
         "anonymous": false
      },
      {
         "type": "event",
         "name": "VisibleChanged",
         "inputs": [
            {
               "name": "visible",
               "type": "bool",
               "indexed": false,
               "internalType": "bool"
            }
         ],
         "anonymous": false
      },
      {
         "type": "error",
         "name": "OwnableInvalidOwner",
         "inputs": [
            {
               "name": "owner",
               "type": "address",
               "internalType": "address"
            }
         ]
      },
      {
         "type": "error",
         "name": "OwnableUnauthorizedAccount",
         "inputs": [
            {
               "name": "account",
               "type": "address",
               "internalType": "address"
            }
         ]
      }
   ],
   "bytecode": {
      "object": "0x608060405234801562000010575f80fd5b5060405162000c4938038062000c498339810160408190526200003391620001ed565b33806200005957604051631e4fbdf760e01b81525f600482015260240160405180910390fd5b6200006481620000dd565b50600180546001600160a01b0319166001600160a01b03861617905560026200008e848262000312565b506003805482919060ff19166001836002811115620000b157620000b1620003de565b02179055506004620000c4838262000312565b50506005805460ff1916600117905550620003f2915050565b5f80546001600160a01b038381166001600160a01b0319831681178455604051919092169283917f8be0079c531659141344cd1fd0a4f28419497f9722a3daafe3b4186f6b6457e09190a35050565b634e487b7160e01b5f52604160045260245ffd5b5f82601f83011262000150575f80fd5b81516001600160401b03808211156200016d576200016d6200012c565b604051601f8301601f19908116603f011681019082821181831017156200019857620001986200012c565b8160405283815260209250866020858801011115620001b5575f80fd5b5f91505b83821015620001d85785820183015181830184015290820190620001b9565b5f602085830101528094505050505092915050565b5f805f806080858703121562000201575f80fd5b84516001600160a01b038116811462000218575f80fd5b60208601519094506001600160401b038082111562000235575f80fd5b620002438883890162000140565b9450604087015191508082111562000259575f80fd5b50620002688782880162000140565b9250506060850151600381106200027d575f80fd5b939692955090935050565b600181811c908216806200029d57607f821691505b602082108103620002bc57634e487b7160e01b5f52602260045260245ffd5b50919050565b601f8211156200030d57805f5260205f20601f840160051c81016020851015620002e95750805b601f840160051c820191505b818110156200030a575f8155600101620002f5565b50505b505050565b81516001600160401b038111156200032e576200032e6200012c565b62000346816200033f845462000288565b84620002c2565b602080601f8311600181146200037c575f8415620003645750858301515b5f19600386901b1c1916600185901b178555620003d6565b5f85815260208120601f198616915b82811015620003ac578886015182559484019460019091019084016200038b565b5085821015620003ca57878501515f19600388901b60f8161c191681555b505060018460011b0185555b505050505050565b634e487b7160e01b5f52602160045260245ffd5b61084980620004005f395ff3fe608060405234801561000f575f80fd5b50600436106100b1575f3560e01c8063715018a61161006e578063715018a61461013d5780638da5cb5b14610145578063a34bbe6614610155578063af6a6d791461016f578063f2fde38b1461018c578063f872bec01461019f575f80fd5b80631130630c146100b55780632804b2c0146100ca578063392f37e9146100fa57806356de96db1461010f5780635b344c7414610122578063620c0c4b1461012a575b5f80fd5b6100c86100c336600461048c565b6101a7565b005b6001546100dd906001600160a01b031681565b6040516001600160a01b0390911681526020015b60405180910390f35b6101026101f5565b6040516100f191906104f8565b6100c861011d366004610544565b610281565b6100c86102f1565b6100c861013836600461057d565b61033e565b6100c86103af565b5f546001600160a01b03166100dd565b6003546101629060ff1681565b6040516100f191906105cc565b60055461017c9060ff1681565b60405190151581526020016100f1565b6100c861019a36600461057d565b6103c2565b610102610404565b7ff794b32488eb5712dd5a2640efa2ebc0234c4b77fe6f3a290b3402e7b03abc48600483836040516101db93929190610640565b60405180910390a160046101f082848361073e565b505050565b60048054610202906105e0565b80601f016020809104026020016040519081016040528092919081815260200182805461022e906105e0565b80156102795780601f1061025057610100808354040283529160200191610279565b820191905f5260205f20905b81548152906001019060200180831161025c57829003601f168201915b505050505081565b610289610411565b6003546040517fe8a97ea87e4388fa22d496b95a8ed5ced6717f49790318de2b928aaf37a021d8916102c29160ff9091169084906107f8565b60405180910390a16003805482919060ff191660018360028111156102e9576102e9610598565b021790555050565b6005805460ff8082161560ff1990921682179092556040519116151581527f7f291f75b82672cc6f1d9ae48e6cc17849327ce27523fc65d23c9a8208a8c0a19060200160405180910390a1565b610346610411565b600154604080516001600160a01b03928316815291831660208301527f391847abdda0edb4f1e720f30e246be400e373ef6243bd03bd41fe7db6e74f55910160405180910390a1600180546001600160a01b0319166001600160a01b0392909216919091179055565b6103b7610411565b6103c05f61043d565b565b6103ca610411565b6001600160a01b0381166103f857604051631e4fbdf760e01b81525f60048201526024015b60405180910390fd5b6104018161043d565b50565b60028054610202906105e0565b5f546001600160a01b031633146103c05760405163118cdaa760e01b81523360048201526024016103ef565b5f80546001600160a01b038381166001600160a01b0319831681178455604051919092169283917f8be0079c531659141344cd1fd0a4f28419497f9722a3daafe3b4186f6b6457e09190a35050565b5f806020838503121561049d575f80fd5b823567ffffffffffffffff808211156104b4575f80fd5b818501915085601f8301126104c7575f80fd5b8135818111156104d5575f80fd5b8660208285010111156104e6575f80fd5b60209290920196919550909350505050565b5f602080835283518060208501525f5b8181101561052457858101830151858201604001528201610508565b505f604082860101526040601f19601f8301168501019250505092915050565b5f60208284031215610554575f80fd5b813560038110610562575f80fd5b9392505050565b6001600160a01b0381168114610401575f80fd5b5f6020828403121561058d575f80fd5b813561056281610569565b634e487b7160e01b5f52602160045260245ffd5b600381106105c857634e487b7160e01b5f52602160045260245ffd5b9052565b602081016105da82846105ac565b92915050565b600181811c908216806105f457607f821691505b60208210810361061257634e487b7160e01b5f52602260045260245ffd5b50919050565b81835281816020850137505f828201602090810191909152601f909101601f19169091010190565b604081525f808554610651816105e0565b806040860152606060018084165f8114610672576001811461068e576106bd565b60ff1985166060890152606084151560051b89010195506106bd565b8a5f526020805f205f5b868110156106b35781548b8201870152908401908201610698565b8a01606001975050505b505050505082810360208401526106d5818587610618565b9695505050505050565b634e487b7160e01b5f52604160045260245ffd5b601f8211156101f057805f5260205f20601f840160051c810160208510156107185750805b601f840160051c820191505b81811015610737575f8155600101610724565b5050505050565b67ffffffffffffffff831115610756576107566106df565b61076a8361076483546105e0565b836106f3565b5f601f84116001811461079b575f85156107845750838201355b5f19600387901b1c1916600186901b178355610737565b5f83815260208120601f198716915b828110156107ca57868501358255602094850194600190920191016107aa565b50868210156107e6575f1960f88860031b161c19848701351681555b505060018560011b0183555050505050565b6040810161080682856105ac565b61056260208301846105ac56fea264697066735822122011003ad016c534d01a981be91aa92a0cf9078b3c30ba0b5abc0ca80965ce4c1b64736f6c63430008180033",
      "linkReferences": {}
   },
   "methodIdentifiers": {
      "customer()": "2804b2c0",
      "deviceState()": "a34bbe66",
      "metadata()": "392f37e9",
      "owner()": "8da5cb5b",
      "renounceOwnership()": "715018a6",
      "setCustomer(address)": "620c0c4b",
      "setMetadataUri(string)": "1130630c",
      "setState(uint8)": "56de96db",
      "sn()": "f872bec0",
      "toggleVisible()": "5b344c74",
      "transferOwnership(address)": "f2fde38b",
      "visible()": "af6a6d79"
   },
   "id": 23
}