{
  "abi": [
    {
      "type": "constructor",
      "inputs": [
        {
          "name": "initialCustomer",
          "type": "address",
          "internalType": "contract Customer"
        },
        {
          "name": "_sn",
          "type": "bytes32",
          "internalType": "bytes32"
        }
      ],
      "stateMutability": "nonpayable"
    },
    {
      "type": "function",
      "name": "customer",
      "inputs": [],
      "outputs": [
        {
          "name": "",
          "type": "address",
          "internalType": "contract Customer"
        }
      ],
      "stateMutability": "view"
    },
    {
      "type": "function",
      "name": "locked",
      "inputs": [],
      "outputs": [
        {
          "name": "",
          "type": "bool",
          "internalType": "bool"
        }
      ],
      "stateMutability": "view"
    },
    {
      "type": "function",
      "name": "owner",
      "inputs": [],
      "outputs": [
        {
          "name": "",
          "type": "address",
          "internalType": "address"
        }
      ],
      "stateMutability": "view"
    },
    {
      "type": "function",
      "name": "renounceOwnership",
      "inputs": [],
      "outputs": [],
      "stateMutability": "nonpayable"
    },
    {
      "type": "function",
      "name": "setCustomer",
      "inputs": [
        {
          "name": "newCustomer",
          "type": "address",
          "internalType": "contract Customer"
        }
      ],
      "outputs": [],
      "stateMutability": "nonpayable"
    },
    {
      "type": "function",
      "name": "setState",
      "inputs": [
        {
          "name": "newState",
          "type": "bool",
          "internalType": "bool"
        }
      ],
      "outputs": [],
      "stateMutability": "nonpayable"
    },
    {
      "type": "function",
      "name": "sn",
      "inputs": [],
      "outputs": [
        {
          "name": "",
          "type": "bytes32",
          "internalType": "bytes32"
        }
      ],
      "stateMutability": "view"
    },
    {
      "type": "function",
      "name": "transferOwnership",
      "inputs": [
        {
          "name": "newOwner",
          "type": "address",
          "internalType": "address"
        }
      ],
      "outputs": [],
      "stateMutability": "nonpayable"
    },
    {
      "type": "event",
      "name": "CustomerChanged",
      "inputs": [
        {
          "name": "prevCustomer",
          "type": "address",
          "indexed": false,
          "internalType": "address"
        },
        {
          "name": "newCustomer",
          "type": "address",
          "indexed": false,
          "internalType": "address"
        }
      ],
      "anonymous": false
    },
    {
      "type": "event",
      "name": "OwnershipTransferred",
      "inputs": [
        {
          "name": "previousOwner",
          "type": "address",
          "indexed": true,
          "internalType": "address"
        },
        {
          "name": "newOwner",
          "type": "address",
          "indexed": true,
          "internalType": "address"
        }
      ],
      "anonymous": false
    },
    {
      "type": "event",
      "name": "StateChanged",
      "inputs": [
        {
          "name": "prevState",
          "type": "bool",
          "indexed": false,
          "internalType": "bool"
        },
        {
          "name": "newState",
          "type": "bool",
          "indexed": false,
          "internalType": "bool"
        }
      ],
      "anonymous": false
    },
    {
      "type": "error",
      "name": "OwnableInvalidOwner",
      "inputs": [
        {
          "name": "owner",
          "type": "address",
          "internalType": "address"
        }
      ]
    },
    {
      "type": "error",
      "name": "OwnableUnauthorizedAccount",
      "inputs": [
        {
          "name": "account",
          "type": "address",
          "internalType": "address"
        }
      ]
    }
  ],
  "bytecode": {
    "object": "0x608060405234801562000010575f80fd5b5060405162000a9638038062000a96833981810160405281019062000036919062000295565b335f73ffffffffffffffffffffffffffffffffffffffff168173ffffffffffffffffffffffffffffffffffffffff1603620000aa575f6040517f1e4fbdf7000000000000000000000000000000000000000000000000000000008152600401620000a19190620002eb565b60405180910390fd5b620000bb816200012460201b60201c565b508160015f6101000a81548173ffffffffffffffffffffffffffffffffffffffff021916908373ffffffffffffffffffffffffffffffffffffffff160217905550806002819055505f60035f6101000a81548160ff021916908315150217905550505062000306565b5f805f9054906101000a900473ffffffffffffffffffffffffffffffffffffffff169050815f806101000a81548173ffffffffffffffffffffffffffffffffffffffff021916908373ffffffffffffffffffffffffffffffffffffffff1602179055508173ffffffffffffffffffffffffffffffffffffffff168173ffffffffffffffffffffffffffffffffffffffff167f8be0079c531659141344cd1fd0a4f28419497f9722a3daafe3b4186f6b6457e060405160405180910390a35050565b5f80fd5b5f73ffffffffffffffffffffffffffffffffffffffff82169050919050565b5f6200021482620001e9565b9050919050565b5f620002278262000208565b9050919050565b62000239816200021b565b811462000244575f80fd5b50565b5f8151905062000257816200022e565b92915050565b5f819050919050565b62000271816200025d565b81146200027c575f80fd5b50565b5f815190506200028f8162000266565b92915050565b5f8060408385031215620002ae57620002ad620001e5565b5b5f620002bd8582860162000247565b9250506020620002d0858286016200027f565b9150509250929050565b620002e58162000208565b82525050565b5f602082019050620003005f830184620002da565b92915050565b61078280620003145f395ff3fe608060405234801561000f575f80fd5b5060043610610086575f3560e01c8063ac9f022211610059578063ac9f0222146100ec578063cf30901214610108578063f2fde38b14610126578063f872bec01461014257610086565b80632804b2c01461008a578063620c0c4b146100a8578063715018a6146100c45780638da5cb5b146100ce575b5f80fd5b610092610160565b60405161009f9190610534565b60405180910390f35b6100c260048036038101906100bd919061059d565b610185565b005b6100cc61022a565b005b6100d661023d565b6040516100e391906105d7565b60405180910390f35b61010660048036038101906101019190610625565b610264565b005b6101106102cf565b60405161011d919061065f565b60405180910390f35b610140600480360381019061013b91906106a2565b6102e1565b005b61014a610365565b60405161015791906106e5565b60405180910390f35b60015f9054906101000a900473ffffffffffffffffffffffffffffffffffffffff1681565b61018d61036b565b7f391847abdda0edb4f1e720f30e246be400e373ef6243bd03bd41fe7db6e74f5560015f9054906101000a900473ffffffffffffffffffffffffffffffffffffffff16826040516101df9291906106fe565b60405180910390a18060015f6101000a81548173ffffffffffffffffffffffffffffffffffffffff021916908373ffffffffffffffffffffffffffffffffffffffff16021790555050565b61023261036b565b61023b5f6103f2565b565b5f805f9054906101000a900473ffffffffffffffffffffffffffffffffffffffff16905090565b61026c61036b565b7ffc0e030a4910d669332f14d7b6edab0ecb99edf84e6ed379b219bf01933ab20560035f9054906101000a900460ff16826040516102ab929190610725565b60405180910390a18060035f6101000a81548160ff02191690831515021790555050565b60035f9054906101000a900460ff1681565b6102e961036b565b5f73ffffffffffffffffffffffffffffffffffffffff168173ffffffffffffffffffffffffffffffffffffffff1603610359575f6040517f1e4fbdf700000000000000000000000000000000000000000000000000000000815260040161035091906105d7565b60405180910390fd5b610362816103f2565b50565b60025481565b6103736104b3565b73ffffffffffffffffffffffffffffffffffffffff1661039161023d565b73ffffffffffffffffffffffffffffffffffffffff16146103f0576103b46104b3565b6040517f118cdaa70000000000000000000000000000000000000000000000000000000081526004016103e791906105d7565b60405180910390fd5b565b5f805f9054906101000a900473ffffffffffffffffffffffffffffffffffffffff169050815f806101000a81548173ffffffffffffffffffffffffffffffffffffffff021916908373ffffffffffffffffffffffffffffffffffffffff1602179055508173ffffffffffffffffffffffffffffffffffffffff168173ffffffffffffffffffffffffffffffffffffffff167f8be0079c531659141344cd1fd0a4f28419497f9722a3daafe3b4186f6b6457e060405160405180910390a35050565b5f33905090565b5f73ffffffffffffffffffffffffffffffffffffffff82169050919050565b5f819050919050565b5f6104fc6104f76104f2846104ba565b6104d9565b6104ba565b9050919050565b5f61050d826104e2565b9050919050565b5f61051e82610503565b9050919050565b61052e81610514565b82525050565b5f6020820190506105475f830184610525565b92915050565b5f80fd5b5f61055b826104ba565b9050919050565b5f61056c82610551565b9050919050565b61057c81610562565b8114610586575f80fd5b50565b5f8135905061059781610573565b92915050565b5f602082840312156105b2576105b161054d565b5b5f6105bf84828501610589565b91505092915050565b6105d181610551565b82525050565b5f6020820190506105ea5f8301846105c8565b92915050565b5f8115159050919050565b610604816105f0565b811461060e575f80fd5b50565b5f8135905061061f816105fb565b92915050565b5f6020828403121561063a5761063961054d565b5b5f61064784828501610611565b91505092915050565b610659816105f0565b82525050565b5f6020820190506106725f830184610650565b92915050565b61068181610551565b811461068b575f80fd5b50565b5f8135905061069c81610678565b92915050565b5f602082840312156106b7576106b661054d565b5b5f6106c48482850161068e565b91505092915050565b5f819050919050565b6106df816106cd565b82525050565b5f6020820190506106f85f8301846106d6565b92915050565b5f6040820190506107115f8301856105c8565b61071e60208301846105c8565b9392505050565b5f6040820190506107385f830185610650565b6107456020830184610650565b939250505056fea264697066735822122096d0247bc3c8661843f78b43afd9e6535e64705c5f757ff9f4eda879fc51a6dc64736f6c63430008180033",
    "linkReferences": {}
  },
  "methodIdentifiers": {
    "customer()": "2804b2c0",
    "locked()": "cf309012",
    "owner()": "8da5cb5b",
    "renounceOwnership()": "715018a6",
    "setCustomer(address)": "620c0c4b",
    "setState(bool)": "ac9f0222",
    "sn()": "f872bec0",
    "transferOwnership(address)": "f2fde38b"
  },
  "id": 28
}